{
	"contracts/FundMe.sol": {
		"FundMe": {
			"abi": [
				{
					"inputs": [],
					"name": "fund",
					"outputs": [],
					"stateMutability": "payable",
					"type": "function"
				},
				{
					"inputs": [],
					"name": "getConversionRate",
					"outputs": [],
					"stateMutability": "nonpayable",
					"type": "function"
				},
				{
					"inputs": [],
					"name": "getPrice",
					"outputs": [],
					"stateMutability": "nonpayable",
					"type": "function"
				},
				{
					"inputs": [],
					"name": "minimumUSD",
					"outputs": [
						{
							"internalType": "uint256",
							"name": "",
							"type": "uint256"
						}
					],
					"stateMutability": "view",
					"type": "function"
				}
			],
			"devdoc": {
				"kind": "dev",
				"methods": {},
				"version": 1
			},
			"evm": {
				"assembly": "    /* \"contracts/FundMe.sol\":142:851  contract FundMe{\r... */\n  mstore(0x40, 0x80)\n    /* \"contracts/FundMe.sol\":194:196  50 */\n  0x32\n    /* \"contracts/FundMe.sol\":166:196  uint256 public minimumUSD = 50 */\n  0x00\n  sstore\n    /* \"contracts/FundMe.sol\":142:851  contract FundMe{\r... */\n  callvalue\n  dup1\n  iszero\n  tag_1\n  jumpi\n  0x00\n  dup1\n  revert\ntag_1:\n  pop\n  dataSize(sub_0)\n  dup1\n  dataOffset(sub_0)\n  0x00\n  codecopy\n  0x00\n  return\nstop\n\nsub_0: assembly {\n        /* \"contracts/FundMe.sol\":142:851  contract FundMe{\r... */\n      mstore(0x40, 0x80)\n      jumpi(tag_1, lt(calldatasize, 0x04))\n      shr(0xe0, calldataload(0x00))\n      dup1\n      0x3430a88c\n      eq\n      tag_2\n      jumpi\n      dup1\n      0x98d5fdca\n      eq\n      tag_3\n      jumpi\n      dup1\n      0xb60d4288\n      eq\n      tag_4\n      jumpi\n      dup1\n      0xf36089ec\n      eq\n      tag_5\n      jumpi\n    tag_1:\n      0x00\n      dup1\n      revert\n        /* \"contracts/FundMe.sol\":166:196  uint256 public minimumUSD = 50 */\n    tag_2:\n      callvalue\n      dup1\n      iszero\n      tag_6\n      jumpi\n      0x00\n      dup1\n      revert\n    tag_6:\n      pop\n      tag_7\n      tag_8\n      jump\t// in\n    tag_7:\n      mload(0x40)\n      tag_9\n      swap2\n      swap1\n      tag_10\n      jump\t// in\n    tag_9:\n      mload(0x40)\n      dup1\n      swap2\n      sub\n      swap1\n      return\n        /* \"contracts/FundMe.sol\":615:786  function getPrice() public {\r... */\n    tag_3:\n      callvalue\n      dup1\n      iszero\n      tag_11\n      jumpi\n      0x00\n      dup1\n      revert\n    tag_11:\n      pop\n      tag_12\n      tag_13\n      jump\t// in\n    tag_12:\n      stop\n        /* \"contracts/FundMe.sol\":205:607  function fund() public payable{\r... */\n    tag_4:\n      tag_14\n      tag_15\n      jump\t// in\n    tag_14:\n      stop\n        /* \"contracts/FundMe.sol\":794:840  function getConversionRate() public {\r... */\n    tag_5:\n      callvalue\n      dup1\n      iszero\n      tag_16\n      jumpi\n      0x00\n      dup1\n      revert\n    tag_16:\n      pop\n      tag_17\n      tag_18\n      jump\t// in\n    tag_17:\n      stop\n        /* \"contracts/FundMe.sol\":166:196  uint256 public minimumUSD = 50 */\n    tag_8:\n      sload(0x00)\n      dup2\n      jump\t// out\n        /* \"contracts/FundMe.sol\":615:786  function getPrice() public {\r... */\n    tag_13:\n      jump\t// out\n        /* \"contracts/FundMe.sol\":205:607  function fund() public payable{\r... */\n    tag_15:\n        /* \"contracts/FundMe.sol\":517:527  minimumUSD */\n      sload(0x00)\n        /* \"contracts/FundMe.sol\":504:513  msg.value */\n      callvalue\n        /* \"contracts/FundMe.sol\":504:527  msg.value >= minimumUSD */\n      lt\n      iszero\n        /* \"contracts/FundMe.sol\":496:553  require(msg.value >= minimumUSD, \"Didn't send enough !!\") */\n      tag_21\n      jumpi\n      mload(0x40)\n      0x08c379a000000000000000000000000000000000000000000000000000000000\n      dup2\n      mstore\n      0x04\n      add\n      tag_22\n      swap1\n      tag_23\n      jump\t// in\n    tag_22:\n      mload(0x40)\n      dup1\n      swap2\n      sub\n      swap1\n      revert\n    tag_21:\n        /* \"contracts/FundMe.sol\":205:607  function fund() public payable{\r... */\n      jump\t// out\n        /* \"contracts/FundMe.sol\":794:840  function getConversionRate() public {\r... */\n    tag_18:\n      jump\t// out\n        /* \"#utility.yul\":7:373   */\n    tag_26:\n        /* \"#utility.yul\":149:152   */\n      0x00\n        /* \"#utility.yul\":170:237   */\n      tag_28\n        /* \"#utility.yul\":234:236   */\n      0x15\n        /* \"#utility.yul\":229:232   */\n      dup4\n        /* \"#utility.yul\":170:237   */\n      tag_29\n      jump\t// in\n    tag_28:\n        /* \"#utility.yul\":163:237   */\n      swap2\n      pop\n        /* \"#utility.yul\":246:339   */\n      tag_30\n        /* \"#utility.yul\":335:338   */\n      dup3\n        /* \"#utility.yul\":246:339   */\n      tag_31\n      jump\t// in\n    tag_30:\n        /* \"#utility.yul\":364:366   */\n      0x20\n        /* \"#utility.yul\":359:362   */\n      dup3\n        /* \"#utility.yul\":355:367   */\n      add\n        /* \"#utility.yul\":348:367   */\n      swap1\n      pop\n        /* \"#utility.yul\":7:373   */\n      swap2\n      swap1\n      pop\n      jump\t// out\n        /* \"#utility.yul\":379:497   */\n    tag_32:\n        /* \"#utility.yul\":466:490   */\n      tag_34\n        /* \"#utility.yul\":484:489   */\n      dup2\n        /* \"#utility.yul\":466:490   */\n      tag_35\n      jump\t// in\n    tag_34:\n        /* \"#utility.yul\":461:464   */\n      dup3\n        /* \"#utility.yul\":454:491   */\n      mstore\n        /* \"#utility.yul\":379:497   */\n      pop\n      pop\n      jump\t// out\n        /* \"#utility.yul\":503:922   */\n    tag_23:\n        /* \"#utility.yul\":669:673   */\n      0x00\n        /* \"#utility.yul\":707:709   */\n      0x20\n        /* \"#utility.yul\":696:705   */\n      dup3\n        /* \"#utility.yul\":692:710   */\n      add\n        /* \"#utility.yul\":684:710   */\n      swap1\n      pop\n        /* \"#utility.yul\":756:765   */\n      dup2\n        /* \"#utility.yul\":750:754   */\n      dup2\n        /* \"#utility.yul\":746:766   */\n      sub\n        /* \"#utility.yul\":742:743   */\n      0x00\n        /* \"#utility.yul\":731:740   */\n      dup4\n        /* \"#utility.yul\":727:744   */\n      add\n        /* \"#utility.yul\":720:767   */\n      mstore\n        /* \"#utility.yul\":784:915   */\n      tag_37\n        /* \"#utility.yul\":910:914   */\n      dup2\n        /* \"#utility.yul\":784:915   */\n      tag_26\n      jump\t// in\n    tag_37:\n        /* \"#utility.yul\":776:915   */\n      swap1\n      pop\n        /* \"#utility.yul\":503:922   */\n      swap2\n      swap1\n      pop\n      jump\t// out\n        /* \"#utility.yul\":928:1150   */\n    tag_10:\n        /* \"#utility.yul\":1021:1025   */\n      0x00\n        /* \"#utility.yul\":1059:1061   */\n      0x20\n        /* \"#utility.yul\":1048:1057   */\n      dup3\n        /* \"#utility.yul\":1044:1062   */\n      add\n        /* \"#utility.yul\":1036:1062   */\n      swap1\n      pop\n        /* \"#utility.yul\":1072:1143   */\n      tag_39\n        /* \"#utility.yul\":1140:1141   */\n      0x00\n        /* \"#utility.yul\":1129:1138   */\n      dup4\n        /* \"#utility.yul\":1125:1142   */\n      add\n        /* \"#utility.yul\":1116:1122   */\n      dup5\n        /* \"#utility.yul\":1072:1143   */\n      tag_32\n      jump\t// in\n    tag_39:\n        /* \"#utility.yul\":928:1150   */\n      swap3\n      swap2\n      pop\n      pop\n      jump\t// out\n        /* \"#utility.yul\":1156:1325   */\n    tag_29:\n        /* \"#utility.yul\":1240:1251   */\n      0x00\n        /* \"#utility.yul\":1274:1280   */\n      dup3\n        /* \"#utility.yul\":1269:1272   */\n      dup3\n        /* \"#utility.yul\":1262:1281   */\n      mstore\n        /* \"#utility.yul\":1314:1318   */\n      0x20\n        /* \"#utility.yul\":1309:1312   */\n      dup3\n        /* \"#utility.yul\":1305:1319   */\n      add\n        /* \"#utility.yul\":1290:1319   */\n      swap1\n      pop\n        /* \"#utility.yul\":1156:1325   */\n      swap3\n      swap2\n      pop\n      pop\n      jump\t// out\n        /* \"#utility.yul\":1331:1408   */\n    tag_35:\n        /* \"#utility.yul\":1368:1375   */\n      0x00\n        /* \"#utility.yul\":1397:1402   */\n      dup2\n        /* \"#utility.yul\":1386:1402   */\n      swap1\n      pop\n        /* \"#utility.yul\":1331:1408   */\n      swap2\n      swap1\n      pop\n      jump\t// out\n        /* \"#utility.yul\":1414:1585   */\n    tag_31:\n        /* \"#utility.yul\":1554:1577   */\n      0x4469646e27742073656e6420656e6f7567682021210000000000000000000000\n        /* \"#utility.yul\":1550:1551   */\n      0x00\n        /* \"#utility.yul\":1542:1548   */\n      dup3\n        /* \"#utility.yul\":1538:1552   */\n      add\n        /* \"#utility.yul\":1531:1578   */\n      mstore\n        /* \"#utility.yul\":1414:1585   */\n      pop\n      jump\t// out\n\n    auxdata: 0xa2646970667358221220a72db69e47ef0cefd87aa38a259063d80ec74db3c8054d584b17a575adf7dd1564736f6c63430008070033\n}\n",
				"bytecode": {
					"linkReferences": {},
					"object": "6080604052603260005534801561001557600080fd5b506101df806100256000396000f3fe60806040526004361061003f5760003560e01c80633430a88c1461004457806398d5fdca1461006f578063b60d428814610086578063f36089ec14610090575b600080fd5b34801561005057600080fd5b506100596100a7565b604051610066919061014a565b60405180910390f35b34801561007b57600080fd5b506100846100ad565b005b61008e6100af565b005b34801561009c57600080fd5b506100a56100f6565b005b60005481565b565b6000543410156100f4576040517f08c379a00000000000000000000000000000000000000000000000000000000081526004016100eb9061012a565b60405180910390fd5b565b565b6000610105601583610165565b915061011082610180565b602082019050919050565b61012481610176565b82525050565b60006020820190508181036000830152610143816100f8565b9050919050565b600060208201905061015f600083018461011b565b92915050565b600082825260208201905092915050565b6000819050919050565b7f4469646e27742073656e6420656e6f756768202121000000000000000000000060008201525056fea2646970667358221220a72db69e47ef0cefd87aa38a259063d80ec74db3c8054d584b17a575adf7dd1564736f6c63430008070033",
					"opcodes": "PUSH1 0x80 PUSH1 0x40 MSTORE PUSH1 0x32 PUSH1 0x0 SSTORE CALLVALUE DUP1 ISZERO PUSH2 0x15 JUMPI PUSH1 0x0 DUP1 REVERT JUMPDEST POP PUSH2 0x1DF DUP1 PUSH2 0x25 PUSH1 0x0 CODECOPY PUSH1 0x0 RETURN INVALID PUSH1 0x80 PUSH1 0x40 MSTORE PUSH1 0x4 CALLDATASIZE LT PUSH2 0x3F JUMPI PUSH1 0x0 CALLDATALOAD PUSH1 0xE0 SHR DUP1 PUSH4 0x3430A88C EQ PUSH2 0x44 JUMPI DUP1 PUSH4 0x98D5FDCA EQ PUSH2 0x6F JUMPI DUP1 PUSH4 0xB60D4288 EQ PUSH2 0x86 JUMPI DUP1 PUSH4 0xF36089EC EQ PUSH2 0x90 JUMPI JUMPDEST PUSH1 0x0 DUP1 REVERT JUMPDEST CALLVALUE DUP1 ISZERO PUSH2 0x50 JUMPI PUSH1 0x0 DUP1 REVERT JUMPDEST POP PUSH2 0x59 PUSH2 0xA7 JUMP JUMPDEST PUSH1 0x40 MLOAD PUSH2 0x66 SWAP2 SWAP1 PUSH2 0x14A JUMP JUMPDEST PUSH1 0x40 MLOAD DUP1 SWAP2 SUB SWAP1 RETURN JUMPDEST CALLVALUE DUP1 ISZERO PUSH2 0x7B JUMPI PUSH1 0x0 DUP1 REVERT JUMPDEST POP PUSH2 0x84 PUSH2 0xAD JUMP JUMPDEST STOP JUMPDEST PUSH2 0x8E PUSH2 0xAF JUMP JUMPDEST STOP JUMPDEST CALLVALUE DUP1 ISZERO PUSH2 0x9C JUMPI PUSH1 0x0 DUP1 REVERT JUMPDEST POP PUSH2 0xA5 PUSH2 0xF6 JUMP JUMPDEST STOP JUMPDEST PUSH1 0x0 SLOAD DUP2 JUMP JUMPDEST JUMP JUMPDEST PUSH1 0x0 SLOAD CALLVALUE LT ISZERO PUSH2 0xF4 JUMPI PUSH1 0x40 MLOAD PUSH32 0x8C379A000000000000000000000000000000000000000000000000000000000 DUP2 MSTORE PUSH1 0x4 ADD PUSH2 0xEB SWAP1 PUSH2 0x12A JUMP JUMPDEST PUSH1 0x40 MLOAD DUP1 SWAP2 SUB SWAP1 REVERT JUMPDEST JUMP JUMPDEST JUMP JUMPDEST PUSH1 0x0 PUSH2 0x105 PUSH1 0x15 DUP4 PUSH2 0x165 JUMP JUMPDEST SWAP2 POP PUSH2 0x110 DUP3 PUSH2 0x180 JUMP JUMPDEST PUSH1 0x20 DUP3 ADD SWAP1 POP SWAP2 SWAP1 POP JUMP JUMPDEST PUSH2 0x124 DUP2 PUSH2 0x176 JUMP JUMPDEST DUP3 MSTORE POP POP JUMP JUMPDEST PUSH1 0x0 PUSH1 0x20 DUP3 ADD SWAP1 POP DUP2 DUP2 SUB PUSH1 0x0 DUP4 ADD MSTORE PUSH2 0x143 DUP2 PUSH2 0xF8 JUMP JUMPDEST SWAP1 POP SWAP2 SWAP1 POP JUMP JUMPDEST PUSH1 0x0 PUSH1 0x20 DUP3 ADD SWAP1 POP PUSH2 0x15F PUSH1 0x0 DUP4 ADD DUP5 PUSH2 0x11B JUMP JUMPDEST SWAP3 SWAP2 POP POP JUMP JUMPDEST PUSH1 0x0 DUP3 DUP3 MSTORE PUSH1 0x20 DUP3 ADD SWAP1 POP SWAP3 SWAP2 POP POP JUMP JUMPDEST PUSH1 0x0 DUP2 SWAP1 POP SWAP2 SWAP1 POP JUMP JUMPDEST PUSH32 0x4469646E27742073656E6420656E6F7567682021210000000000000000000000 PUSH1 0x0 DUP3 ADD MSTORE POP JUMP INVALID LOG2 PUSH5 0x6970667358 0x22 SLT KECCAK256 0xA7 0x2D 0xB6 SWAP15 SELFBALANCE 0xEF 0xC 0xEF 0xD8 PUSH27 0xA38A259063D80EC74DB3C8054D584B17A575ADF7DD1564736F6C63 NUMBER STOP ADDMOD SMOD STOP CALLER "
				},
				"gasEstimates": {
					"creation": {
						"codeDepositCost": "95800",
						"executionCost": "22247",
						"totalCost": "118047"
					},
					"external": {
						"fund()": "2556",
						"getConversionRate()": "188",
						"getPrice()": "144",
						"minimumUSD()": "2407"
					}
				},
				"methodIdentifiers": {
					"fund()": "b60d4288",
					"getConversionRate()": "f36089ec",
					"getPrice()": "98d5fdca",
					"minimumUSD()": "3430a88c"
				}
			},
			"storageLayout": {
				"storage": [
					{
						"astId": 51,
						"contract": "contracts/FundMe.sol:FundMe",
						"label": "minimumUSD",
						"offset": 0,
						"slot": "0",
						"type": "t_uint256"
					}
				],
				"types": {
					"t_uint256": {
						"encoding": "inplace",
						"label": "uint256",
						"numberOfBytes": "32"
					}
				}
			},
			"userdoc": {
				"kind": "user",
				"methods": {},
				"version": 1
			}
		}
	}
}