{
	"contracts/FundMe.sol": {
		"FundMe": {
			"abi": [
				{
					"inputs": [],
					"name": "fund",
					"outputs": [],
					"stateMutability": "payable",
					"type": "function"
				},
				{
					"inputs": [],
					"name": "getConversionRate",
					"outputs": [],
					"stateMutability": "nonpayable",
					"type": "function"
				},
				{
					"inputs": [],
					"name": "getPrice",
					"outputs": [],
					"stateMutability": "nonpayable",
					"type": "function"
				},
				{
					"inputs": [],
					"name": "getVersion",
					"outputs": [
						{
							"internalType": "uint256",
							"name": "",
							"type": "uint256"
						}
					],
					"stateMutability": "view",
					"type": "function"
				},
				{
					"inputs": [],
					"name": "minimumUSD",
					"outputs": [
						{
							"internalType": "uint256",
							"name": "",
							"type": "uint256"
						}
					],
					"stateMutability": "view",
					"type": "function"
				}
			],
			"devdoc": {
				"kind": "dev",
				"methods": {},
				"version": 1
			},
			"evm": {
				"assembly": "    /* \"contracts/FundMe.sol\":142:1066  contract FundMe{\r... */\n  mstore(0x40, 0x80)\n    /* \"contracts/FundMe.sol\":194:196  50 */\n  0x32\n    /* \"contracts/FundMe.sol\":166:196  uint256 public minimumUSD = 50 */\n  0x00\n  sstore\n    /* \"contracts/FundMe.sol\":142:1066  contract FundMe{\r... */\n  callvalue\n  dup1\n  iszero\n  tag_1\n  jumpi\n  0x00\n  dup1\n  revert\ntag_1:\n  pop\n  dataSize(sub_0)\n  dup1\n  dataOffset(sub_0)\n  0x00\n  codecopy\n  0x00\n  return\nstop\n\nsub_0: assembly {\n        /* \"contracts/FundMe.sol\":142:1066  contract FundMe{\r... */\n      mstore(0x40, 0x80)\n      jumpi(tag_1, lt(calldatasize, 0x04))\n      shr(0xe0, calldataload(0x00))\n      dup1\n      0x0d8e6e2c\n      eq\n      tag_2\n      jumpi\n      dup1\n      0x3430a88c\n      eq\n      tag_3\n      jumpi\n      dup1\n      0x98d5fdca\n      eq\n      tag_4\n      jumpi\n      dup1\n      0xb60d4288\n      eq\n      tag_5\n      jumpi\n      dup1\n      0xf36089ec\n      eq\n      tag_6\n      jumpi\n    tag_1:\n      0x00\n      dup1\n      revert\n        /* \"contracts/FundMe.sol\":796:1001  function getVersion() public view returns(uint256){\r... */\n    tag_2:\n      callvalue\n      dup1\n      iszero\n      tag_7\n      jumpi\n      0x00\n      dup1\n      revert\n    tag_7:\n      pop\n      tag_8\n      tag_9\n      jump\t// in\n    tag_8:\n      mload(0x40)\n      tag_10\n      swap2\n      swap1\n      tag_11\n      jump\t// in\n    tag_10:\n      mload(0x40)\n      dup1\n      swap2\n      sub\n      swap1\n      return\n        /* \"contracts/FundMe.sol\":166:196  uint256 public minimumUSD = 50 */\n    tag_3:\n      callvalue\n      dup1\n      iszero\n      tag_12\n      jumpi\n      0x00\n      dup1\n      revert\n    tag_12:\n      pop\n      tag_13\n      tag_14\n      jump\t// in\n    tag_13:\n      mload(0x40)\n      tag_15\n      swap2\n      swap1\n      tag_11\n      jump\t// in\n    tag_15:\n      mload(0x40)\n      dup1\n      swap2\n      sub\n      swap1\n      return\n        /* \"contracts/FundMe.sol\":615:788  function getPrice() public {\r... */\n    tag_4:\n      callvalue\n      dup1\n      iszero\n      tag_16\n      jumpi\n      0x00\n      dup1\n      revert\n    tag_16:\n      pop\n      tag_17\n      tag_18\n      jump\t// in\n    tag_17:\n      stop\n        /* \"contracts/FundMe.sol\":205:607  function fund() public payable{\r... */\n    tag_5:\n      tag_19\n      tag_20\n      jump\t// in\n    tag_19:\n      stop\n        /* \"contracts/FundMe.sol\":1009:1055  function getConversionRate() public {\r... */\n    tag_6:\n      callvalue\n      dup1\n      iszero\n      tag_21\n      jumpi\n      0x00\n      dup1\n      revert\n    tag_21:\n      pop\n      tag_22\n      tag_23\n      jump\t// in\n    tag_22:\n      stop\n        /* \"contracts/FundMe.sol\":796:1001  function getVersion() public view returns(uint256){\r... */\n    tag_9:\n        /* \"contracts/FundMe.sol\":838:845  uint256 */\n      0x00\n        /* \"contracts/FundMe.sol\":857:888  AggregatorV3Interface priceFeed */\n      dup1\n        /* \"contracts/FundMe.sol\":913:955  0xD4a33860578De61DBAbDc8BFdb98FD742fA7028e */\n      0xd4a33860578de61dbabdc8bfdb98fd742fa7028e\n        /* \"contracts/FundMe.sol\":857:956  AggregatorV3Interface priceFeed = AggregatorV3Interface(0xD4a33860578De61DBAbDc8BFdb98FD742fA7028e) */\n      swap1\n      pop\n        /* \"contracts/FundMe.sol\":974:983  priceFeed */\n      dup1\n        /* \"contracts/FundMe.sol\":974:991  priceFeed.version */\n      0xffffffffffffffffffffffffffffffffffffffff\n      and\n      0x54fd4d50\n        /* \"contracts/FundMe.sol\":974:993  priceFeed.version() */\n      mload(0x40)\n      dup2\n      0xffffffff\n      and\n      0xe0\n      shl\n      dup2\n      mstore\n      0x04\n      add\n      0x20\n      mload(0x40)\n      dup1\n      dup4\n      sub\n      dup2\n      dup7\n      dup1\n      extcodesize\n      iszero\n      dup1\n      iszero\n      tag_25\n      jumpi\n      0x00\n      dup1\n      revert\n    tag_25:\n      pop\n      gas\n      staticcall\n      iszero\n      dup1\n      iszero\n      tag_27\n      jumpi\n      returndatasize\n      0x00\n      dup1\n      returndatacopy\n      revert(0x00, returndatasize)\n    tag_27:\n      pop\n      pop\n      pop\n      pop\n      mload(0x40)\n      returndatasize\n      not(0x1f)\n      0x1f\n      dup3\n      add\n      and\n      dup3\n      add\n      dup1\n      0x40\n      mstore\n      pop\n      dup2\n      add\n      swap1\n      tag_28\n      swap2\n      swap1\n      tag_29\n      jump\t// in\n    tag_28:\n        /* \"contracts/FundMe.sol\":967:993  return priceFeed.version() */\n      swap2\n      pop\n      pop\n        /* \"contracts/FundMe.sol\":796:1001  function getVersion() public view returns(uint256){\r... */\n      swap1\n      jump\t// out\n        /* \"contracts/FundMe.sol\":166:196  uint256 public minimumUSD = 50 */\n    tag_14:\n      sload(0x00)\n      dup2\n      jump\t// out\n        /* \"contracts/FundMe.sol\":615:788  function getPrice() public {\r... */\n    tag_18:\n      jump\t// out\n        /* \"contracts/FundMe.sol\":205:607  function fund() public payable{\r... */\n    tag_20:\n        /* \"contracts/FundMe.sol\":517:527  minimumUSD */\n      sload(0x00)\n        /* \"contracts/FundMe.sol\":504:513  msg.value */\n      callvalue\n        /* \"contracts/FundMe.sol\":504:527  msg.value >= minimumUSD */\n      lt\n      iszero\n        /* \"contracts/FundMe.sol\":496:553  require(msg.value >= minimumUSD, \"Didn't send enough !!\") */\n      tag_32\n      jumpi\n      mload(0x40)\n      0x08c379a000000000000000000000000000000000000000000000000000000000\n      dup2\n      mstore\n      0x04\n      add\n      tag_33\n      swap1\n      tag_34\n      jump\t// in\n    tag_33:\n      mload(0x40)\n      dup1\n      swap2\n      sub\n      swap1\n      revert\n    tag_32:\n        /* \"contracts/FundMe.sol\":205:607  function fund() public payable{\r... */\n      jump\t// out\n        /* \"contracts/FundMe.sol\":1009:1055  function getConversionRate() public {\r... */\n    tag_23:\n      jump\t// out\n        /* \"#utility.yul\":7:150   */\n    tag_37:\n        /* \"#utility.yul\":64:69   */\n      0x00\n        /* \"#utility.yul\":95:101   */\n      dup2\n        /* \"#utility.yul\":89:102   */\n      mload\n        /* \"#utility.yul\":80:102   */\n      swap1\n      pop\n        /* \"#utility.yul\":111:144   */\n      tag_39\n        /* \"#utility.yul\":138:143   */\n      dup2\n        /* \"#utility.yul\":111:144   */\n      tag_40\n      jump\t// in\n    tag_39:\n        /* \"#utility.yul\":7:150   */\n      swap3\n      swap2\n      pop\n      pop\n      jump\t// out\n        /* \"#utility.yul\":156:507   */\n    tag_29:\n        /* \"#utility.yul\":226:232   */\n      0x00\n        /* \"#utility.yul\":275:277   */\n      0x20\n        /* \"#utility.yul\":263:272   */\n      dup3\n        /* \"#utility.yul\":254:261   */\n      dup5\n        /* \"#utility.yul\":250:273   */\n      sub\n        /* \"#utility.yul\":246:278   */\n      slt\n        /* \"#utility.yul\":243:362   */\n      iszero\n      tag_42\n      jumpi\n        /* \"#utility.yul\":281:360   */\n      tag_43\n      tag_44\n      jump\t// in\n    tag_43:\n        /* \"#utility.yul\":243:362   */\n    tag_42:\n        /* \"#utility.yul\":401:402   */\n      0x00\n        /* \"#utility.yul\":426:490   */\n      tag_45\n        /* \"#utility.yul\":482:489   */\n      dup5\n        /* \"#utility.yul\":473:479   */\n      dup3\n        /* \"#utility.yul\":462:471   */\n      dup6\n        /* \"#utility.yul\":458:480   */\n      add\n        /* \"#utility.yul\":426:490   */\n      tag_37\n      jump\t// in\n    tag_45:\n        /* \"#utility.yul\":416:490   */\n      swap2\n      pop\n        /* \"#utility.yul\":372:500   */\n      pop\n        /* \"#utility.yul\":156:507   */\n      swap3\n      swap2\n      pop\n      pop\n      jump\t// out\n        /* \"#utility.yul\":513:879   */\n    tag_46:\n        /* \"#utility.yul\":655:658   */\n      0x00\n        /* \"#utility.yul\":676:743   */\n      tag_48\n        /* \"#utility.yul\":740:742   */\n      0x15\n        /* \"#utility.yul\":735:738   */\n      dup4\n        /* \"#utility.yul\":676:743   */\n      tag_49\n      jump\t// in\n    tag_48:\n        /* \"#utility.yul\":669:743   */\n      swap2\n      pop\n        /* \"#utility.yul\":752:845   */\n      tag_50\n        /* \"#utility.yul\":841:844   */\n      dup3\n        /* \"#utility.yul\":752:845   */\n      tag_51\n      jump\t// in\n    tag_50:\n        /* \"#utility.yul\":870:872   */\n      0x20\n        /* \"#utility.yul\":865:868   */\n      dup3\n        /* \"#utility.yul\":861:873   */\n      add\n        /* \"#utility.yul\":854:873   */\n      swap1\n      pop\n        /* \"#utility.yul\":513:879   */\n      swap2\n      swap1\n      pop\n      jump\t// out\n        /* \"#utility.yul\":885:1003   */\n    tag_52:\n        /* \"#utility.yul\":972:996   */\n      tag_54\n        /* \"#utility.yul\":990:995   */\n      dup2\n        /* \"#utility.yul\":972:996   */\n      tag_55\n      jump\t// in\n    tag_54:\n        /* \"#utility.yul\":967:970   */\n      dup3\n        /* \"#utility.yul\":960:997   */\n      mstore\n        /* \"#utility.yul\":885:1003   */\n      pop\n      pop\n      jump\t// out\n        /* \"#utility.yul\":1009:1428   */\n    tag_34:\n        /* \"#utility.yul\":1175:1179   */\n      0x00\n        /* \"#utility.yul\":1213:1215   */\n      0x20\n        /* \"#utility.yul\":1202:1211   */\n      dup3\n        /* \"#utility.yul\":1198:1216   */\n      add\n        /* \"#utility.yul\":1190:1216   */\n      swap1\n      pop\n        /* \"#utility.yul\":1262:1271   */\n      dup2\n        /* \"#utility.yul\":1256:1260   */\n      dup2\n        /* \"#utility.yul\":1252:1272   */\n      sub\n        /* \"#utility.yul\":1248:1249   */\n      0x00\n        /* \"#utility.yul\":1237:1246   */\n      dup4\n        /* \"#utility.yul\":1233:1250   */\n      add\n        /* \"#utility.yul\":1226:1273   */\n      mstore\n        /* \"#utility.yul\":1290:1421   */\n      tag_57\n        /* \"#utility.yul\":1416:1420   */\n      dup2\n        /* \"#utility.yul\":1290:1421   */\n      tag_46\n      jump\t// in\n    tag_57:\n        /* \"#utility.yul\":1282:1421   */\n      swap1\n      pop\n        /* \"#utility.yul\":1009:1428   */\n      swap2\n      swap1\n      pop\n      jump\t// out\n        /* \"#utility.yul\":1434:1656   */\n    tag_11:\n        /* \"#utility.yul\":1527:1531   */\n      0x00\n        /* \"#utility.yul\":1565:1567   */\n      0x20\n        /* \"#utility.yul\":1554:1563   */\n      dup3\n        /* \"#utility.yul\":1550:1568   */\n      add\n        /* \"#utility.yul\":1542:1568   */\n      swap1\n      pop\n        /* \"#utility.yul\":1578:1649   */\n      tag_59\n        /* \"#utility.yul\":1646:1647   */\n      0x00\n        /* \"#utility.yul\":1635:1644   */\n      dup4\n        /* \"#utility.yul\":1631:1648   */\n      add\n        /* \"#utility.yul\":1622:1628   */\n      dup5\n        /* \"#utility.yul\":1578:1649   */\n      tag_52\n      jump\t// in\n    tag_59:\n        /* \"#utility.yul\":1434:1656   */\n      swap3\n      swap2\n      pop\n      pop\n      jump\t// out\n        /* \"#utility.yul\":1743:1912   */\n    tag_49:\n        /* \"#utility.yul\":1827:1838   */\n      0x00\n        /* \"#utility.yul\":1861:1867   */\n      dup3\n        /* \"#utility.yul\":1856:1859   */\n      dup3\n        /* \"#utility.yul\":1849:1868   */\n      mstore\n        /* \"#utility.yul\":1901:1905   */\n      0x20\n        /* \"#utility.yul\":1896:1899   */\n      dup3\n        /* \"#utility.yul\":1892:1906   */\n      add\n        /* \"#utility.yul\":1877:1906   */\n      swap1\n      pop\n        /* \"#utility.yul\":1743:1912   */\n      swap3\n      swap2\n      pop\n      pop\n      jump\t// out\n        /* \"#utility.yul\":1918:1995   */\n    tag_55:\n        /* \"#utility.yul\":1955:1962   */\n      0x00\n        /* \"#utility.yul\":1984:1989   */\n      dup2\n        /* \"#utility.yul\":1973:1989   */\n      swap1\n      pop\n        /* \"#utility.yul\":1918:1995   */\n      swap2\n      swap1\n      pop\n      jump\t// out\n        /* \"#utility.yul\":2124:2241   */\n    tag_44:\n        /* \"#utility.yul\":2233:2234   */\n      0x00\n        /* \"#utility.yul\":2230:2231   */\n      dup1\n        /* \"#utility.yul\":2223:2235   */\n      revert\n        /* \"#utility.yul\":2247:2418   */\n    tag_51:\n        /* \"#utility.yul\":2387:2410   */\n      0x4469646e27742073656e6420656e6f7567682021210000000000000000000000\n        /* \"#utility.yul\":2383:2384   */\n      0x00\n        /* \"#utility.yul\":2375:2381   */\n      dup3\n        /* \"#utility.yul\":2371:2385   */\n      add\n        /* \"#utility.yul\":2364:2411   */\n      mstore\n        /* \"#utility.yul\":2247:2418   */\n      pop\n      jump\t// out\n        /* \"#utility.yul\":2424:2546   */\n    tag_40:\n        /* \"#utility.yul\":2497:2521   */\n      tag_69\n        /* \"#utility.yul\":2515:2520   */\n      dup2\n        /* \"#utility.yul\":2497:2521   */\n      tag_55\n      jump\t// in\n    tag_69:\n        /* \"#utility.yul\":2490:2495   */\n      dup2\n        /* \"#utility.yul\":2487:2522   */\n      eq\n        /* \"#utility.yul\":2477:2540   */\n      tag_70\n      jumpi\n        /* \"#utility.yul\":2536:2537   */\n      0x00\n        /* \"#utility.yul\":2533:2534   */\n      dup1\n        /* \"#utility.yul\":2526:2538   */\n      revert\n        /* \"#utility.yul\":2477:2540   */\n    tag_70:\n        /* \"#utility.yul\":2424:2546   */\n      pop\n      jump\t// out\n\n    auxdata: 0xa2646970667358221220d3e260670dc64cfb1f94d1dc97b20712dcd10ffe15bcbb0e34a37a08134a34ce64736f6c63430008070033\n}\n",
				"bytecode": {
					"linkReferences": {},
					"object": "6080604052603260005534801561001557600080fd5b50610311806100256000396000f3fe60806040526004361061004a5760003560e01c80630d8e6e2c1461004f5780633430a88c1461007a57806398d5fdca146100a5578063b60d4288146100bc578063f36089ec146100c6575b600080fd5b34801561005b57600080fd5b506100646100dd565b6040516100719190610260565b60405180910390f35b34801561008657600080fd5b5061008f61017b565b60405161009c9190610260565b60405180910390f35b3480156100b157600080fd5b506100ba610181565b005b6100c4610183565b005b3480156100d257600080fd5b506100db6101ca565b005b60008073d4a33860578de61dbabdc8bfdb98fd742fa7028e90508073ffffffffffffffffffffffffffffffffffffffff166354fd4d506040518163ffffffff1660e01b815260040160206040518083038186803b15801561013d57600080fd5b505afa158015610151573d6000803e3d6000fd5b505050506040513d601f19601f8201168201806040525081019061017591906101e1565b91505090565b60005481565b565b6000543410156101c8576040517f08c379a00000000000000000000000000000000000000000000000000000000081526004016101bf90610240565b60405180910390fd5b565b565b6000815190506101db816102c4565b92915050565b6000602082840312156101f7576101f6610296565b5b6000610205848285016101cc565b91505092915050565b600061021b60158361027b565b91506102268261029b565b602082019050919050565b61023a8161028c565b82525050565b600060208201905081810360008301526102598161020e565b9050919050565b60006020820190506102756000830184610231565b92915050565b600082825260208201905092915050565b6000819050919050565b600080fd5b7f4469646e27742073656e6420656e6f7567682021210000000000000000000000600082015250565b6102cd8161028c565b81146102d857600080fd5b5056fea2646970667358221220d3e260670dc64cfb1f94d1dc97b20712dcd10ffe15bcbb0e34a37a08134a34ce64736f6c63430008070033",
					"opcodes": "PUSH1 0x80 PUSH1 0x40 MSTORE PUSH1 0x32 PUSH1 0x0 SSTORE CALLVALUE DUP1 ISZERO PUSH2 0x15 JUMPI PUSH1 0x0 DUP1 REVERT JUMPDEST POP PUSH2 0x311 DUP1 PUSH2 0x25 PUSH1 0x0 CODECOPY PUSH1 0x0 RETURN INVALID PUSH1 0x80 PUSH1 0x40 MSTORE PUSH1 0x4 CALLDATASIZE LT PUSH2 0x4A JUMPI PUSH1 0x0 CALLDATALOAD PUSH1 0xE0 SHR DUP1 PUSH4 0xD8E6E2C EQ PUSH2 0x4F JUMPI DUP1 PUSH4 0x3430A88C EQ PUSH2 0x7A JUMPI DUP1 PUSH4 0x98D5FDCA EQ PUSH2 0xA5 JUMPI DUP1 PUSH4 0xB60D4288 EQ PUSH2 0xBC JUMPI DUP1 PUSH4 0xF36089EC EQ PUSH2 0xC6 JUMPI JUMPDEST PUSH1 0x0 DUP1 REVERT JUMPDEST CALLVALUE DUP1 ISZERO PUSH2 0x5B JUMPI PUSH1 0x0 DUP1 REVERT JUMPDEST POP PUSH2 0x64 PUSH2 0xDD JUMP JUMPDEST PUSH1 0x40 MLOAD PUSH2 0x71 SWAP2 SWAP1 PUSH2 0x260 JUMP JUMPDEST PUSH1 0x40 MLOAD DUP1 SWAP2 SUB SWAP1 RETURN JUMPDEST CALLVALUE DUP1 ISZERO PUSH2 0x86 JUMPI PUSH1 0x0 DUP1 REVERT JUMPDEST POP PUSH2 0x8F PUSH2 0x17B JUMP JUMPDEST PUSH1 0x40 MLOAD PUSH2 0x9C SWAP2 SWAP1 PUSH2 0x260 JUMP JUMPDEST PUSH1 0x40 MLOAD DUP1 SWAP2 SUB SWAP1 RETURN JUMPDEST CALLVALUE DUP1 ISZERO PUSH2 0xB1 JUMPI PUSH1 0x0 DUP1 REVERT JUMPDEST POP PUSH2 0xBA PUSH2 0x181 JUMP JUMPDEST STOP JUMPDEST PUSH2 0xC4 PUSH2 0x183 JUMP JUMPDEST STOP JUMPDEST CALLVALUE DUP1 ISZERO PUSH2 0xD2 JUMPI PUSH1 0x0 DUP1 REVERT JUMPDEST POP PUSH2 0xDB PUSH2 0x1CA JUMP JUMPDEST STOP JUMPDEST PUSH1 0x0 DUP1 PUSH20 0xD4A33860578DE61DBABDC8BFDB98FD742FA7028E SWAP1 POP DUP1 PUSH20 0xFFFFFFFFFFFFFFFFFFFFFFFFFFFFFFFFFFFFFFFF AND PUSH4 0x54FD4D50 PUSH1 0x40 MLOAD DUP2 PUSH4 0xFFFFFFFF AND PUSH1 0xE0 SHL DUP2 MSTORE PUSH1 0x4 ADD PUSH1 0x20 PUSH1 0x40 MLOAD DUP1 DUP4 SUB DUP2 DUP7 DUP1 EXTCODESIZE ISZERO DUP1 ISZERO PUSH2 0x13D JUMPI PUSH1 0x0 DUP1 REVERT JUMPDEST POP GAS STATICCALL ISZERO DUP1 ISZERO PUSH2 0x151 JUMPI RETURNDATASIZE PUSH1 0x0 DUP1 RETURNDATACOPY RETURNDATASIZE PUSH1 0x0 REVERT JUMPDEST POP POP POP POP PUSH1 0x40 MLOAD RETURNDATASIZE PUSH1 0x1F NOT PUSH1 0x1F DUP3 ADD AND DUP3 ADD DUP1 PUSH1 0x40 MSTORE POP DUP2 ADD SWAP1 PUSH2 0x175 SWAP2 SWAP1 PUSH2 0x1E1 JUMP JUMPDEST SWAP2 POP POP SWAP1 JUMP JUMPDEST PUSH1 0x0 SLOAD DUP2 JUMP JUMPDEST JUMP JUMPDEST PUSH1 0x0 SLOAD CALLVALUE LT ISZERO PUSH2 0x1C8 JUMPI PUSH1 0x40 MLOAD PUSH32 0x8C379A000000000000000000000000000000000000000000000000000000000 DUP2 MSTORE PUSH1 0x4 ADD PUSH2 0x1BF SWAP1 PUSH2 0x240 JUMP JUMPDEST PUSH1 0x40 MLOAD DUP1 SWAP2 SUB SWAP1 REVERT JUMPDEST JUMP JUMPDEST JUMP JUMPDEST PUSH1 0x0 DUP2 MLOAD SWAP1 POP PUSH2 0x1DB DUP2 PUSH2 0x2C4 JUMP JUMPDEST SWAP3 SWAP2 POP POP JUMP JUMPDEST PUSH1 0x0 PUSH1 0x20 DUP3 DUP5 SUB SLT ISZERO PUSH2 0x1F7 JUMPI PUSH2 0x1F6 PUSH2 0x296 JUMP JUMPDEST JUMPDEST PUSH1 0x0 PUSH2 0x205 DUP5 DUP3 DUP6 ADD PUSH2 0x1CC JUMP JUMPDEST SWAP2 POP POP SWAP3 SWAP2 POP POP JUMP JUMPDEST PUSH1 0x0 PUSH2 0x21B PUSH1 0x15 DUP4 PUSH2 0x27B JUMP JUMPDEST SWAP2 POP PUSH2 0x226 DUP3 PUSH2 0x29B JUMP JUMPDEST PUSH1 0x20 DUP3 ADD SWAP1 POP SWAP2 SWAP1 POP JUMP JUMPDEST PUSH2 0x23A DUP2 PUSH2 0x28C JUMP JUMPDEST DUP3 MSTORE POP POP JUMP JUMPDEST PUSH1 0x0 PUSH1 0x20 DUP3 ADD SWAP1 POP DUP2 DUP2 SUB PUSH1 0x0 DUP4 ADD MSTORE PUSH2 0x259 DUP2 PUSH2 0x20E JUMP JUMPDEST SWAP1 POP SWAP2 SWAP1 POP JUMP JUMPDEST PUSH1 0x0 PUSH1 0x20 DUP3 ADD SWAP1 POP PUSH2 0x275 PUSH1 0x0 DUP4 ADD DUP5 PUSH2 0x231 JUMP JUMPDEST SWAP3 SWAP2 POP POP JUMP JUMPDEST PUSH1 0x0 DUP3 DUP3 MSTORE PUSH1 0x20 DUP3 ADD SWAP1 POP SWAP3 SWAP2 POP POP JUMP JUMPDEST PUSH1 0x0 DUP2 SWAP1 POP SWAP2 SWAP1 POP JUMP JUMPDEST PUSH1 0x0 DUP1 REVERT JUMPDEST PUSH32 0x4469646E27742073656E6420656E6F7567682021210000000000000000000000 PUSH1 0x0 DUP3 ADD MSTORE POP JUMP JUMPDEST PUSH2 0x2CD DUP2 PUSH2 0x28C JUMP JUMPDEST DUP2 EQ PUSH2 0x2D8 JUMPI PUSH1 0x0 DUP1 REVERT JUMPDEST POP JUMP INVALID LOG2 PUSH5 0x6970667358 0x22 SLT KECCAK256 0xD3 0xE2 PUSH1 0x67 0xD 0xC6 0x4C 0xFB 0x1F SWAP5 0xD1 0xDC SWAP8 0xB2 SMOD SLT 0xDC 0xD1 0xF INVALID ISZERO 0xBC 0xBB 0xE CALLVALUE LOG3 PUSH27 0x8134A34CE64736F6C634300080700330000000000000000000000 "
				},
				"gasEstimates": {
					"creation": {
						"codeDepositCost": "157000",
						"executionCost": "22308",
						"totalCost": "179308"
					},
					"external": {
						"fund()": "2578",
						"getConversionRate()": "210",
						"getPrice()": "166",
						"getVersion()": "infinite",
						"minimumUSD()": "2429"
					}
				},
				"methodIdentifiers": {
					"fund()": "b60d4288",
					"getConversionRate()": "f36089ec",
					"getPrice()": "98d5fdca",
					"getVersion()": "0d8e6e2c",
					"minimumUSD()": "3430a88c"
				}
			},
			"storageLayout": {
				"storage": [
					{
						"astId": 51,
						"contract": "contracts/FundMe.sol:FundMe",
						"label": "minimumUSD",
						"offset": 0,
						"slot": "0",
						"type": "t_uint256"
					}
				],
				"types": {
					"t_uint256": {
						"encoding": "inplace",
						"label": "uint256",
						"numberOfBytes": "32"
					}
				}
			},
			"userdoc": {
				"kind": "user",
				"methods": {},
				"version": 1
			}
		}
	}
}