{
	"contracts/NewFundMe.sol": {
		"NewFundMe": {
			"abi": [
				{
					"inputs": [],
					"name": "fund",
					"outputs": [],
					"stateMutability": "payable",
					"type": "function"
				},
				{
					"inputs": [
						{
							"internalType": "uint256",
							"name": "",
							"type": "uint256"
						}
					],
					"name": "funders",
					"outputs": [
						{
							"internalType": "address",
							"name": "",
							"type": "address"
						}
					],
					"stateMutability": "view",
					"type": "function"
				},
				{
					"inputs": [],
					"name": "minimumUSD",
					"outputs": [
						{
							"internalType": "uint256",
							"name": "",
							"type": "uint256"
						}
					],
					"stateMutability": "view",
					"type": "function"
				},
				{
					"inputs": [],
					"name": "withdraw",
					"outputs": [],
					"stateMutability": "payable",
					"type": "function"
				}
			],
			"devdoc": {
				"kind": "dev",
				"methods": {},
				"version": 1
			},
			"evm": {
				"assembly": "    /* \"contracts/NewFundMe.sol\":100:466  contract NewFundMe{\r... */\n  mstore(0x40, 0x80)\n    /* \"contracts/NewFundMe.sol\":199:208  10 * 1e18 */\n  0x8ac7230489e80000\n    /* \"contracts/NewFundMe.sol\":171:208  uint256 public minimumUSD = 10 * 1e18 */\n  0x00\n  sstore\n    /* \"contracts/NewFundMe.sol\":100:466  contract NewFundMe{\r... */\n  callvalue\n  dup1\n  iszero\n  tag_1\n  jumpi\n  0x00\n  dup1\n  revert\ntag_1:\n  pop\n  dataSize(sub_0)\n  dup1\n  dataOffset(sub_0)\n  0x00\n  codecopy\n  0x00\n  return\nstop\n\nsub_0: assembly {\n        /* \"contracts/NewFundMe.sol\":100:466  contract NewFundMe{\r... */\n      mstore(0x40, 0x80)\n      jumpi(tag_1, lt(calldatasize, 0x04))\n      shr(0xe0, calldataload(0x00))\n      dup1\n      0x3430a88c\n      eq\n      tag_2\n      jumpi\n      dup1\n      0x3ccfd60b\n      eq\n      tag_3\n      jumpi\n      dup1\n      0xb60d4288\n      eq\n      tag_4\n      jumpi\n      dup1\n      0xdc0d3dff\n      eq\n      tag_5\n      jumpi\n    tag_1:\n      0x00\n      dup1\n      revert\n        /* \"contracts/NewFundMe.sol\":171:208  uint256 public minimumUSD = 10 * 1e18 */\n    tag_2:\n      callvalue\n      dup1\n      iszero\n      tag_6\n      jumpi\n      0x00\n      dup1\n      revert\n    tag_6:\n      pop\n      tag_7\n      tag_8\n      jump\t// in\n    tag_7:\n      mload(0x40)\n      tag_9\n      swap2\n      swap1\n      tag_10\n      jump\t// in\n    tag_9:\n      mload(0x40)\n      dup1\n      swap2\n      sub\n      swap1\n      return\n        /* \"contracts/NewFundMe.sol\":418:463  function withdraw() public payable {\r... */\n    tag_3:\n      tag_11\n      tag_12\n      jump\t// in\n    tag_11:\n      stop\n        /* \"contracts/NewFundMe.sol\":248:410  function fund() public payable {\r... */\n    tag_4:\n      tag_13\n      tag_14\n      jump\t// in\n    tag_13:\n      stop\n        /* \"contracts/NewFundMe.sol\":215:239  address[] public funders */\n    tag_5:\n      callvalue\n      dup1\n      iszero\n      tag_15\n      jumpi\n      0x00\n      dup1\n      revert\n    tag_15:\n      pop\n      tag_16\n      0x04\n      dup1\n      calldatasize\n      sub\n      dup2\n      add\n      swap1\n      tag_17\n      swap2\n      swap1\n      tag_18\n      jump\t// in\n    tag_17:\n      tag_19\n      jump\t// in\n    tag_16:\n      mload(0x40)\n      tag_20\n      swap2\n      swap1\n      tag_21\n      jump\t// in\n    tag_20:\n      mload(0x40)\n      dup1\n      swap2\n      sub\n      swap1\n      return\n        /* \"contracts/NewFundMe.sol\":171:208  uint256 public minimumUSD = 10 * 1e18 */\n    tag_8:\n      sload(0x00)\n      dup2\n      jump\t// out\n        /* \"contracts/NewFundMe.sol\":418:463  function withdraw() public payable {\r... */\n    tag_12:\n      jump\t// out\n        /* \"contracts/NewFundMe.sol\":248:410  function fund() public payable {\r... */\n    tag_14:\n        /* \"contracts/NewFundMe.sol\":333:343  minimumUSD */\n      sload(0x00)\n        /* \"contracts/NewFundMe.sol\":300:329  msg.value.getConversionRate() */\n      tag_24\n        /* \"contracts/NewFundMe.sol\":300:309  msg.value */\n      callvalue\n        /* \"contracts/NewFundMe.sol\":300:327  msg.value.getConversionRate */\n      tag_25\n        /* \"contracts/NewFundMe.sol\":300:329  msg.value.getConversionRate() */\n      jump\t// in\n    tag_24:\n        /* \"contracts/NewFundMe.sol\":300:343  msg.value.getConversionRate() >= minimumUSD */\n      lt\n      iszero\n        /* \"contracts/NewFundMe.sol\":292:367  require(msg.value.getConversionRate() >= minimumUSD, \"Didn't send enough!\") */\n      tag_26\n      jumpi\n      mload(0x40)\n      0x08c379a000000000000000000000000000000000000000000000000000000000\n      dup2\n      mstore\n      0x04\n      add\n      tag_27\n      swap1\n      tag_28\n      jump\t// in\n    tag_27:\n      mload(0x40)\n      dup1\n      swap2\n      sub\n      swap1\n      revert\n    tag_26:\n        /* \"contracts/NewFundMe.sol\":378:385  funders */\n      0x01\n        /* \"contracts/NewFundMe.sol\":391:401  msg.sender */\n      caller\n        /* \"contracts/NewFundMe.sol\":378:402  funders.push(msg.sender) */\n      swap1\n      dup1\n      0x01\n      dup2\n      sload\n      add\n      dup1\n      dup3\n      sstore\n      dup1\n      swap2\n      pop\n      pop\n      0x01\n      swap1\n      sub\n      swap1\n      0x00\n      mstore\n      keccak256(0x00, 0x20)\n      add\n      0x00\n      swap1\n      swap2\n      swap1\n      swap2\n      swap1\n      swap2\n      0x0100\n      exp\n      dup2\n      sload\n      dup2\n      0xffffffffffffffffffffffffffffffffffffffff\n      mul\n      not\n      and\n      swap1\n      dup4\n      0xffffffffffffffffffffffffffffffffffffffff\n      and\n      mul\n      or\n      swap1\n      sstore\n      pop\n        /* \"contracts/NewFundMe.sol\":248:410  function fund() public payable {\r... */\n      jump\t// out\n        /* \"contracts/NewFundMe.sol\":215:239  address[] public funders */\n    tag_19:\n      0x01\n      dup2\n      dup2\n      sload\n      dup2\n      lt\n      tag_30\n      jumpi\n      0x00\n      dup1\n      revert\n    tag_30:\n      swap1\n      0x00\n      mstore\n      keccak256(0x00, 0x20)\n      add\n      0x00\n      swap2\n      pop\n      sload\n      swap1\n      0x0100\n      exp\n      swap1\n      div\n      0xffffffffffffffffffffffffffffffffffffffff\n      and\n      dup2\n      jump\t// out\n        /* \"contracts/NewPriceConverter.sol\":470:691  function getConversionRate(uint256 ethAmount) internal view returns(uint256){\r... */\n    tag_25:\n        /* \"contracts/NewPriceConverter.sol\":538:545  uint256 */\n      0x00\n        /* \"contracts/NewPriceConverter.sol\":557:573  uint256 ethPrice */\n      dup1\n        /* \"contracts/NewPriceConverter.sol\":576:586  getPrice() */\n      tag_33\n        /* \"contracts/NewPriceConverter.sol\":576:584  getPrice */\n      tag_34\n        /* \"contracts/NewPriceConverter.sol\":576:586  getPrice() */\n      jump\t// in\n    tag_33:\n        /* \"contracts/NewPriceConverter.sol\":557:586  uint256 ethPrice = getPrice() */\n      swap1\n      pop\n        /* \"contracts/NewPriceConverter.sol\":597:619  uint256 ethAmountInUSD */\n      0x00\n        /* \"contracts/NewPriceConverter.sol\":647:651  1e18 */\n      0x0de0b6b3a7640000\n        /* \"contracts/NewPriceConverter.sol\":635:643  ethPrice */\n      dup3\n        /* \"contracts/NewPriceConverter.sol\":623:632  ethAmount */\n      dup6\n        /* \"contracts/NewPriceConverter.sol\":623:643  ethAmount * ethPrice */\n      tag_35\n      swap2\n      swap1\n      tag_36\n      jump\t// in\n    tag_35:\n        /* \"contracts/NewPriceConverter.sol\":622:651  (ethAmount * ethPrice) / 1e18 */\n      tag_37\n      swap2\n      swap1\n      tag_38\n      jump\t// in\n    tag_37:\n        /* \"contracts/NewPriceConverter.sol\":597:651  uint256 ethAmountInUSD = (ethAmount * ethPrice) / 1e18 */\n      swap1\n      pop\n        /* \"contracts/NewPriceConverter.sol\":669:683  ethAmountInUSD */\n      dup1\n        /* \"contracts/NewPriceConverter.sol\":662:683  return ethAmountInUSD */\n      swap3\n      pop\n      pop\n      pop\n        /* \"contracts/NewPriceConverter.sol\":470:691  function getConversionRate(uint256 ethAmount) internal view returns(uint256){\r... */\n      swap2\n      swap1\n      pop\n      jump\t// out\n        /* \"contracts/NewPriceConverter.sol\":176:462  function getPrice() internal view returns(uint256){\r... */\n    tag_34:\n        /* \"contracts/NewPriceConverter.sol\":218:225  uint256 */\n      0x00\n        /* \"contracts/NewPriceConverter.sol\":237:268  AggregatorV3Interface priceFeed */\n      dup1\n        /* \"contracts/NewPriceConverter.sol\":293:335  0xD4a33860578De61DBAbDc8BFdb98FD742fA7028e */\n      0xd4a33860578de61dbabdc8bfdb98fd742fa7028e\n        /* \"contracts/NewPriceConverter.sol\":237:336  AggregatorV3Interface priceFeed = AggregatorV3Interface(0xD4a33860578De61DBAbDc8BFdb98FD742fA7028e) */\n      swap1\n      pop\n        /* \"contracts/NewPriceConverter.sol\":350:359  int price */\n      0x00\n        /* \"contracts/NewPriceConverter.sol\":368:377  priceFeed */\n      dup2\n        /* \"contracts/NewPriceConverter.sol\":368:393  priceFeed.latestRoundData */\n      0xffffffffffffffffffffffffffffffffffffffff\n      and\n      0xfeaf968c\n        /* \"contracts/NewPriceConverter.sol\":368:395  priceFeed.latestRoundData() */\n      mload(0x40)\n      dup2\n      0xffffffff\n      and\n      0xe0\n      shl\n      dup2\n      mstore\n      0x04\n      add\n      0xa0\n      mload(0x40)\n      dup1\n      dup4\n      sub\n      dup2\n      dup7\n      dup1\n      extcodesize\n      iszero\n      dup1\n      iszero\n      tag_40\n      jumpi\n      0x00\n      dup1\n      revert\n    tag_40:\n      pop\n      gas\n      staticcall\n      iszero\n      dup1\n      iszero\n      tag_42\n      jumpi\n      returndatasize\n      0x00\n      dup1\n      returndatacopy\n      revert(0x00, returndatasize)\n    tag_42:\n      pop\n      pop\n      pop\n      pop\n      mload(0x40)\n      returndatasize\n      not(0x1f)\n      0x1f\n      dup3\n      add\n      and\n      dup3\n      add\n      dup1\n      0x40\n      mstore\n      pop\n      dup2\n      add\n      swap1\n      tag_43\n      swap2\n      swap1\n      tag_44\n      jump\t// in\n    tag_43:\n        /* \"contracts/NewPriceConverter.sol\":347:395  (, int price, , ,) = priceFeed.latestRoundData() */\n      pop\n      pop\n      pop\n      swap2\n      pop\n      pop\n        /* \"contracts/NewPriceConverter.sol\":429:433  1e10 */\n      0x02540be400\n        /* \"contracts/NewPriceConverter.sol\":421:426  price */\n      dup2\n        /* \"contracts/NewPriceConverter.sol\":421:433  price * 1e10 */\n      tag_45\n      swap2\n      swap1\n      tag_46\n      jump\t// in\n    tag_45:\n        /* \"contracts/NewPriceConverter.sol\":406:434  return uint256(price * 1e10) */\n      swap3\n      pop\n      pop\n      pop\n        /* \"contracts/NewPriceConverter.sol\":176:462  function getPrice() internal view returns(uint256){\r... */\n      swap1\n      jump\t// out\n        /* \"#utility.yul\":7:148   */\n    tag_48:\n        /* \"#utility.yul\":63:68   */\n      0x00\n        /* \"#utility.yul\":94:100   */\n      dup2\n        /* \"#utility.yul\":88:101   */\n      mload\n        /* \"#utility.yul\":79:101   */\n      swap1\n      pop\n        /* \"#utility.yul\":110:142   */\n      tag_50\n        /* \"#utility.yul\":136:141   */\n      dup2\n        /* \"#utility.yul\":110:142   */\n      tag_51\n      jump\t// in\n    tag_50:\n        /* \"#utility.yul\":7:148   */\n      swap3\n      swap2\n      pop\n      pop\n      jump\t// out\n        /* \"#utility.yul\":154:293   */\n    tag_52:\n        /* \"#utility.yul\":200:205   */\n      0x00\n        /* \"#utility.yul\":238:244   */\n      dup2\n        /* \"#utility.yul\":225:245   */\n      calldataload\n        /* \"#utility.yul\":216:245   */\n      swap1\n      pop\n        /* \"#utility.yul\":254:287   */\n      tag_54\n        /* \"#utility.yul\":281:286   */\n      dup2\n        /* \"#utility.yul\":254:287   */\n      tag_55\n      jump\t// in\n    tag_54:\n        /* \"#utility.yul\":154:293   */\n      swap3\n      swap2\n      pop\n      pop\n      jump\t// out\n        /* \"#utility.yul\":299:442   */\n    tag_56:\n        /* \"#utility.yul\":356:361   */\n      0x00\n        /* \"#utility.yul\":387:393   */\n      dup2\n        /* \"#utility.yul\":381:394   */\n      mload\n        /* \"#utility.yul\":372:394   */\n      swap1\n      pop\n        /* \"#utility.yul\":403:436   */\n      tag_58\n        /* \"#utility.yul\":430:435   */\n      dup2\n        /* \"#utility.yul\":403:436   */\n      tag_55\n      jump\t// in\n    tag_58:\n        /* \"#utility.yul\":299:442   */\n      swap3\n      swap2\n      pop\n      pop\n      jump\t// out\n        /* \"#utility.yul\":448:589   */\n    tag_59:\n        /* \"#utility.yul\":504:509   */\n      0x00\n        /* \"#utility.yul\":535:541   */\n      dup2\n        /* \"#utility.yul\":529:542   */\n      mload\n        /* \"#utility.yul\":520:542   */\n      swap1\n      pop\n        /* \"#utility.yul\":551:583   */\n      tag_61\n        /* \"#utility.yul\":577:582   */\n      dup2\n        /* \"#utility.yul\":551:583   */\n      tag_62\n      jump\t// in\n    tag_61:\n        /* \"#utility.yul\":448:589   */\n      swap3\n      swap2\n      pop\n      pop\n      jump\t// out\n        /* \"#utility.yul\":595:924   */\n    tag_18:\n        /* \"#utility.yul\":654:660   */\n      0x00\n        /* \"#utility.yul\":703:705   */\n      0x20\n        /* \"#utility.yul\":691:700   */\n      dup3\n        /* \"#utility.yul\":682:689   */\n      dup5\n        /* \"#utility.yul\":678:701   */\n      sub\n        /* \"#utility.yul\":674:706   */\n      slt\n        /* \"#utility.yul\":671:790   */\n      iszero\n      tag_64\n      jumpi\n        /* \"#utility.yul\":709:788   */\n      tag_65\n      tag_66\n      jump\t// in\n    tag_65:\n        /* \"#utility.yul\":671:790   */\n    tag_64:\n        /* \"#utility.yul\":829:830   */\n      0x00\n        /* \"#utility.yul\":854:907   */\n      tag_67\n        /* \"#utility.yul\":899:906   */\n      dup5\n        /* \"#utility.yul\":890:896   */\n      dup3\n        /* \"#utility.yul\":879:888   */\n      dup6\n        /* \"#utility.yul\":875:897   */\n      add\n        /* \"#utility.yul\":854:907   */\n      tag_52\n      jump\t// in\n    tag_67:\n        /* \"#utility.yul\":844:907   */\n      swap2\n      pop\n        /* \"#utility.yul\":800:917   */\n      pop\n        /* \"#utility.yul\":595:924   */\n      swap3\n      swap2\n      pop\n      pop\n      jump\t// out\n        /* \"#utility.yul\":930:1901   */\n    tag_44:\n        /* \"#utility.yul\":1033:1039   */\n      0x00\n        /* \"#utility.yul\":1041:1047   */\n      dup1\n        /* \"#utility.yul\":1049:1055   */\n      0x00\n        /* \"#utility.yul\":1057:1063   */\n      dup1\n        /* \"#utility.yul\":1065:1071   */\n      0x00\n        /* \"#utility.yul\":1114:1117   */\n      0xa0\n        /* \"#utility.yul\":1102:1111   */\n      dup7\n        /* \"#utility.yul\":1093:1100   */\n      dup9\n        /* \"#utility.yul\":1089:1112   */\n      sub\n        /* \"#utility.yul\":1085:1118   */\n      slt\n        /* \"#utility.yul\":1082:1202   */\n      iszero\n      tag_69\n      jumpi\n        /* \"#utility.yul\":1121:1200   */\n      tag_70\n      tag_66\n      jump\t// in\n    tag_70:\n        /* \"#utility.yul\":1082:1202   */\n    tag_69:\n        /* \"#utility.yul\":1241:1242   */\n      0x00\n        /* \"#utility.yul\":1266:1329   */\n      tag_71\n        /* \"#utility.yul\":1321:1328   */\n      dup9\n        /* \"#utility.yul\":1312:1318   */\n      dup3\n        /* \"#utility.yul\":1301:1310   */\n      dup10\n        /* \"#utility.yul\":1297:1319   */\n      add\n        /* \"#utility.yul\":1266:1329   */\n      tag_59\n      jump\t// in\n    tag_71:\n        /* \"#utility.yul\":1256:1329   */\n      swap6\n      pop\n        /* \"#utility.yul\":1212:1339   */\n      pop\n        /* \"#utility.yul\":1378:1380   */\n      0x20\n        /* \"#utility.yul\":1404:1467   */\n      tag_72\n        /* \"#utility.yul\":1459:1466   */\n      dup9\n        /* \"#utility.yul\":1450:1456   */\n      dup3\n        /* \"#utility.yul\":1439:1448   */\n      dup10\n        /* \"#utility.yul\":1435:1457   */\n      add\n        /* \"#utility.yul\":1404:1467   */\n      tag_48\n      jump\t// in\n    tag_72:\n        /* \"#utility.yul\":1394:1467   */\n      swap5\n      pop\n        /* \"#utility.yul\":1349:1477   */\n      pop\n        /* \"#utility.yul\":1516:1518   */\n      0x40\n        /* \"#utility.yul\":1542:1606   */\n      tag_73\n        /* \"#utility.yul\":1598:1605   */\n      dup9\n        /* \"#utility.yul\":1589:1595   */\n      dup3\n        /* \"#utility.yul\":1578:1587   */\n      dup10\n        /* \"#utility.yul\":1574:1596   */\n      add\n        /* \"#utility.yul\":1542:1606   */\n      tag_56\n      jump\t// in\n    tag_73:\n        /* \"#utility.yul\":1532:1606   */\n      swap4\n      pop\n        /* \"#utility.yul\":1487:1616   */\n      pop\n        /* \"#utility.yul\":1655:1657   */\n      0x60\n        /* \"#utility.yul\":1681:1745   */\n      tag_74\n        /* \"#utility.yul\":1737:1744   */\n      dup9\n        /* \"#utility.yul\":1728:1734   */\n      dup3\n        /* \"#utility.yul\":1717:1726   */\n      dup10\n        /* \"#utility.yul\":1713:1735   */\n      add\n        /* \"#utility.yul\":1681:1745   */\n      tag_56\n      jump\t// in\n    tag_74:\n        /* \"#utility.yul\":1671:1745   */\n      swap3\n      pop\n        /* \"#utility.yul\":1626:1755   */\n      pop\n        /* \"#utility.yul\":1794:1797   */\n      0x80\n        /* \"#utility.yul\":1821:1884   */\n      tag_75\n        /* \"#utility.yul\":1876:1883   */\n      dup9\n        /* \"#utility.yul\":1867:1873   */\n      dup3\n        /* \"#utility.yul\":1856:1865   */\n      dup10\n        /* \"#utility.yul\":1852:1874   */\n      add\n        /* \"#utility.yul\":1821:1884   */\n      tag_59\n      jump\t// in\n    tag_75:\n        /* \"#utility.yul\":1811:1884   */\n      swap2\n      pop\n        /* \"#utility.yul\":1765:1894   */\n      pop\n        /* \"#utility.yul\":930:1901   */\n      swap3\n      swap6\n      pop\n      swap3\n      swap6\n      swap1\n      swap4\n      pop\n      jump\t// out\n        /* \"#utility.yul\":1907:2025   */\n    tag_76:\n        /* \"#utility.yul\":1994:2018   */\n      tag_78\n        /* \"#utility.yul\":2012:2017   */\n      dup2\n        /* \"#utility.yul\":1994:2018   */\n      tag_79\n      jump\t// in\n    tag_78:\n        /* \"#utility.yul\":1989:1992   */\n      dup3\n        /* \"#utility.yul\":1982:2019   */\n      mstore\n        /* \"#utility.yul\":1907:2025   */\n      pop\n      pop\n      jump\t// out\n        /* \"#utility.yul\":2031:2397   */\n    tag_80:\n        /* \"#utility.yul\":2173:2176   */\n      0x00\n        /* \"#utility.yul\":2194:2261   */\n      tag_82\n        /* \"#utility.yul\":2258:2260   */\n      0x13\n        /* \"#utility.yul\":2253:2256   */\n      dup4\n        /* \"#utility.yul\":2194:2261   */\n      tag_83\n      jump\t// in\n    tag_82:\n        /* \"#utility.yul\":2187:2261   */\n      swap2\n      pop\n        /* \"#utility.yul\":2270:2363   */\n      tag_84\n        /* \"#utility.yul\":2359:2362   */\n      dup3\n        /* \"#utility.yul\":2270:2363   */\n      tag_85\n      jump\t// in\n    tag_84:\n        /* \"#utility.yul\":2388:2390   */\n      0x20\n        /* \"#utility.yul\":2383:2386   */\n      dup3\n        /* \"#utility.yul\":2379:2391   */\n      add\n        /* \"#utility.yul\":2372:2391   */\n      swap1\n      pop\n        /* \"#utility.yul\":2031:2397   */\n      swap2\n      swap1\n      pop\n      jump\t// out\n        /* \"#utility.yul\":2403:2521   */\n    tag_86:\n        /* \"#utility.yul\":2490:2514   */\n      tag_88\n        /* \"#utility.yul\":2508:2513   */\n      dup2\n        /* \"#utility.yul\":2490:2514   */\n      tag_89\n      jump\t// in\n    tag_88:\n        /* \"#utility.yul\":2485:2488   */\n      dup3\n        /* \"#utility.yul\":2478:2515   */\n      mstore\n        /* \"#utility.yul\":2403:2521   */\n      pop\n      pop\n      jump\t// out\n        /* \"#utility.yul\":2527:2749   */\n    tag_21:\n        /* \"#utility.yul\":2620:2624   */\n      0x00\n        /* \"#utility.yul\":2658:2660   */\n      0x20\n        /* \"#utility.yul\":2647:2656   */\n      dup3\n        /* \"#utility.yul\":2643:2661   */\n      add\n        /* \"#utility.yul\":2635:2661   */\n      swap1\n      pop\n        /* \"#utility.yul\":2671:2742   */\n      tag_91\n        /* \"#utility.yul\":2739:2740   */\n      0x00\n        /* \"#utility.yul\":2728:2737   */\n      dup4\n        /* \"#utility.yul\":2724:2741   */\n      add\n        /* \"#utility.yul\":2715:2721   */\n      dup5\n        /* \"#utility.yul\":2671:2742   */\n      tag_76\n      jump\t// in\n    tag_91:\n        /* \"#utility.yul\":2527:2749   */\n      swap3\n      swap2\n      pop\n      pop\n      jump\t// out\n        /* \"#utility.yul\":2755:3174   */\n    tag_28:\n        /* \"#utility.yul\":2921:2925   */\n      0x00\n        /* \"#utility.yul\":2959:2961   */\n      0x20\n        /* \"#utility.yul\":2948:2957   */\n      dup3\n        /* \"#utility.yul\":2944:2962   */\n      add\n        /* \"#utility.yul\":2936:2962   */\n      swap1\n      pop\n        /* \"#utility.yul\":3008:3017   */\n      dup2\n        /* \"#utility.yul\":3002:3006   */\n      dup2\n        /* \"#utility.yul\":2998:3018   */\n      sub\n        /* \"#utility.yul\":2994:2995   */\n      0x00\n        /* \"#utility.yul\":2983:2992   */\n      dup4\n        /* \"#utility.yul\":2979:2996   */\n      add\n        /* \"#utility.yul\":2972:3019   */\n      mstore\n        /* \"#utility.yul\":3036:3167   */\n      tag_93\n        /* \"#utility.yul\":3162:3166   */\n      dup2\n        /* \"#utility.yul\":3036:3167   */\n      tag_80\n      jump\t// in\n    tag_93:\n        /* \"#utility.yul\":3028:3167   */\n      swap1\n      pop\n        /* \"#utility.yul\":2755:3174   */\n      swap2\n      swap1\n      pop\n      jump\t// out\n        /* \"#utility.yul\":3180:3402   */\n    tag_10:\n        /* \"#utility.yul\":3273:3277   */\n      0x00\n        /* \"#utility.yul\":3311:3313   */\n      0x20\n        /* \"#utility.yul\":3300:3309   */\n      dup3\n        /* \"#utility.yul\":3296:3314   */\n      add\n        /* \"#utility.yul\":3288:3314   */\n      swap1\n      pop\n        /* \"#utility.yul\":3324:3395   */\n      tag_95\n        /* \"#utility.yul\":3392:3393   */\n      0x00\n        /* \"#utility.yul\":3381:3390   */\n      dup4\n        /* \"#utility.yul\":3377:3394   */\n      add\n        /* \"#utility.yul\":3368:3374   */\n      dup5\n        /* \"#utility.yul\":3324:3395   */\n      tag_86\n      jump\t// in\n    tag_95:\n        /* \"#utility.yul\":3180:3402   */\n      swap3\n      swap2\n      pop\n      pop\n      jump\t// out\n        /* \"#utility.yul\":3489:3658   */\n    tag_83:\n        /* \"#utility.yul\":3573:3584   */\n      0x00\n        /* \"#utility.yul\":3607:3613   */\n      dup3\n        /* \"#utility.yul\":3602:3605   */\n      dup3\n        /* \"#utility.yul\":3595:3614   */\n      mstore\n        /* \"#utility.yul\":3647:3651   */\n      0x20\n        /* \"#utility.yul\":3642:3645   */\n      dup3\n        /* \"#utility.yul\":3638:3652   */\n      add\n        /* \"#utility.yul\":3623:3652   */\n      swap1\n      pop\n        /* \"#utility.yul\":3489:3658   */\n      swap3\n      swap2\n      pop\n      pop\n      jump\t// out\n        /* \"#utility.yul\":3664:3849   */\n    tag_38:\n        /* \"#utility.yul\":3704:3705   */\n      0x00\n        /* \"#utility.yul\":3721:3741   */\n      tag_100\n        /* \"#utility.yul\":3739:3740   */\n      dup3\n        /* \"#utility.yul\":3721:3741   */\n      tag_89\n      jump\t// in\n    tag_100:\n        /* \"#utility.yul\":3716:3741   */\n      swap2\n      pop\n        /* \"#utility.yul\":3755:3775   */\n      tag_101\n        /* \"#utility.yul\":3773:3774   */\n      dup4\n        /* \"#utility.yul\":3755:3775   */\n      tag_89\n      jump\t// in\n    tag_101:\n        /* \"#utility.yul\":3750:3775   */\n      swap3\n      pop\n        /* \"#utility.yul\":3794:3795   */\n      dup3\n        /* \"#utility.yul\":3784:3819   */\n      tag_102\n      jumpi\n        /* \"#utility.yul\":3799:3817   */\n      tag_103\n      tag_104\n      jump\t// in\n    tag_103:\n        /* \"#utility.yul\":3784:3819   */\n    tag_102:\n        /* \"#utility.yul\":3841:3842   */\n      dup3\n        /* \"#utility.yul\":3838:3839   */\n      dup3\n        /* \"#utility.yul\":3834:3843   */\n      div\n        /* \"#utility.yul\":3829:3843   */\n      swap1\n      pop\n        /* \"#utility.yul\":3664:3849   */\n      swap3\n      swap2\n      pop\n      pop\n      jump\t// out\n        /* \"#utility.yul\":3855:4846   */\n    tag_46:\n        /* \"#utility.yul\":3894:3901   */\n      0x00\n        /* \"#utility.yul\":3917:3936   */\n      tag_106\n        /* \"#utility.yul\":3934:3935   */\n      dup3\n        /* \"#utility.yul\":3917:3936   */\n      tag_107\n      jump\t// in\n    tag_106:\n        /* \"#utility.yul\":3912:3936   */\n      swap2\n      pop\n        /* \"#utility.yul\":3950:3969   */\n      tag_108\n        /* \"#utility.yul\":3967:3968   */\n      dup4\n        /* \"#utility.yul\":3950:3969   */\n      tag_107\n      jump\t// in\n    tag_108:\n        /* \"#utility.yul\":3945:3969   */\n      swap3\n      pop\n        /* \"#utility.yul\":4151:4152   */\n      dup3\n        /* \"#utility.yul\":4083:4149   */\n      0x7fffffffffffffffffffffffffffffffffffffffffffffffffffffffffffffff\n        /* \"#utility.yul\":4079:4153   */\n      div\n        /* \"#utility.yul\":4076:4077   */\n      dup3\n        /* \"#utility.yul\":4073:4154   */\n      gt\n        /* \"#utility.yul\":4068:4069   */\n      0x00\n        /* \"#utility.yul\":4065:4066   */\n      dup5\n        /* \"#utility.yul\":4061:4070   */\n      sgt\n        /* \"#utility.yul\":4057:4058   */\n      0x00\n        /* \"#utility.yul\":4054:4055   */\n      dup5\n        /* \"#utility.yul\":4050:4059   */\n      sgt\n        /* \"#utility.yul\":4046:4071   */\n      and\n        /* \"#utility.yul\":4042:4155   */\n      and\n        /* \"#utility.yul\":4039:4178   */\n      iszero\n      tag_109\n      jumpi\n        /* \"#utility.yul\":4158:4176   */\n      tag_110\n      tag_111\n      jump\t// in\n    tag_110:\n        /* \"#utility.yul\":4039:4178   */\n    tag_109:\n        /* \"#utility.yul\":4362:4363   */\n      dup2\n        /* \"#utility.yul\":4294:4360   */\n      0x8000000000000000000000000000000000000000000000000000000000000000\n        /* \"#utility.yul\":4289:4364   */\n      sdiv\n        /* \"#utility.yul\":4286:4287   */\n      dup4\n        /* \"#utility.yul\":4282:4365   */\n      slt\n        /* \"#utility.yul\":4277:4278   */\n      0x00\n        /* \"#utility.yul\":4274:4275   */\n      dup5\n        /* \"#utility.yul\":4270:4279   */\n      slt\n        /* \"#utility.yul\":4266:4267   */\n      0x00\n        /* \"#utility.yul\":4263:4264   */\n      dup5\n        /* \"#utility.yul\":4259:4268   */\n      sgt\n        /* \"#utility.yul\":4255:4280   */\n      and\n        /* \"#utility.yul\":4251:4366   */\n      and\n        /* \"#utility.yul\":4248:4389   */\n      iszero\n      tag_112\n      jumpi\n        /* \"#utility.yul\":4369:4387   */\n      tag_113\n      tag_111\n      jump\t// in\n    tag_113:\n        /* \"#utility.yul\":4248:4389   */\n    tag_112:\n        /* \"#utility.yul\":4573:4574   */\n      dup3\n        /* \"#utility.yul\":4505:4571   */\n      0x8000000000000000000000000000000000000000000000000000000000000000\n        /* \"#utility.yul\":4500:4575   */\n      sdiv\n        /* \"#utility.yul\":4497:4498   */\n      dup3\n        /* \"#utility.yul\":4493:4576   */\n      slt\n        /* \"#utility.yul\":4488:4489   */\n      0x00\n        /* \"#utility.yul\":4485:4486   */\n      dup5\n        /* \"#utility.yul\":4481:4490   */\n      sgt\n        /* \"#utility.yul\":4477:4478   */\n      0x00\n        /* \"#utility.yul\":4474:4475   */\n      dup5\n        /* \"#utility.yul\":4470:4479   */\n      slt\n        /* \"#utility.yul\":4466:4491   */\n      and\n        /* \"#utility.yul\":4462:4577   */\n      and\n        /* \"#utility.yul\":4459:4600   */\n      iszero\n      tag_114\n      jumpi\n        /* \"#utility.yul\":4580:4598   */\n      tag_115\n      tag_111\n      jump\t// in\n    tag_115:\n        /* \"#utility.yul\":4459:4600   */\n    tag_114:\n        /* \"#utility.yul\":4783:4784   */\n      dup3\n        /* \"#utility.yul\":4715:4781   */\n      0x7fffffffffffffffffffffffffffffffffffffffffffffffffffffffffffffff\n        /* \"#utility.yul\":4710:4785   */\n      sdiv\n        /* \"#utility.yul\":4707:4708   */\n      dup3\n        /* \"#utility.yul\":4703:4786   */\n      slt\n        /* \"#utility.yul\":4698:4699   */\n      0x00\n        /* \"#utility.yul\":4695:4696   */\n      dup5\n        /* \"#utility.yul\":4691:4700   */\n      slt\n        /* \"#utility.yul\":4687:4688   */\n      0x00\n        /* \"#utility.yul\":4684:4685   */\n      dup5\n        /* \"#utility.yul\":4680:4689   */\n      slt\n        /* \"#utility.yul\":4676:4701   */\n      and\n        /* \"#utility.yul\":4672:4787   */\n      and\n        /* \"#utility.yul\":4669:4810   */\n      iszero\n      tag_116\n      jumpi\n        /* \"#utility.yul\":4790:4808   */\n      tag_117\n      tag_111\n      jump\t// in\n    tag_117:\n        /* \"#utility.yul\":4669:4810   */\n    tag_116:\n        /* \"#utility.yul\":4838:4839   */\n      dup3\n        /* \"#utility.yul\":4835:4836   */\n      dup3\n        /* \"#utility.yul\":4831:4840   */\n      mul\n        /* \"#utility.yul\":4820:4840   */\n      swap1\n      pop\n        /* \"#utility.yul\":3855:4846   */\n      swap3\n      swap2\n      pop\n      pop\n      jump\t// out\n        /* \"#utility.yul\":4852:5200   */\n    tag_36:\n        /* \"#utility.yul\":4892:4899   */\n      0x00\n        /* \"#utility.yul\":4915:4935   */\n      tag_119\n        /* \"#utility.yul\":4933:4934   */\n      dup3\n        /* \"#utility.yul\":4915:4935   */\n      tag_89\n      jump\t// in\n    tag_119:\n        /* \"#utility.yul\":4910:4935   */\n      swap2\n      pop\n        /* \"#utility.yul\":4949:4969   */\n      tag_120\n        /* \"#utility.yul\":4967:4968   */\n      dup4\n        /* \"#utility.yul\":4949:4969   */\n      tag_89\n      jump\t// in\n    tag_120:\n        /* \"#utility.yul\":4944:4969   */\n      swap3\n      pop\n        /* \"#utility.yul\":5137:5138   */\n      dup2\n        /* \"#utility.yul\":5069:5135   */\n      0xffffffffffffffffffffffffffffffffffffffffffffffffffffffffffffffff\n        /* \"#utility.yul\":5065:5139   */\n      div\n        /* \"#utility.yul\":5062:5063   */\n      dup4\n        /* \"#utility.yul\":5059:5140   */\n      gt\n        /* \"#utility.yul\":5054:5055   */\n      dup3\n        /* \"#utility.yul\":5047:5056   */\n      iszero\n        /* \"#utility.yul\":5040:5057   */\n      iszero\n        /* \"#utility.yul\":5036:5141   */\n      and\n        /* \"#utility.yul\":5033:5164   */\n      iszero\n      tag_121\n      jumpi\n        /* \"#utility.yul\":5144:5162   */\n      tag_122\n      tag_111\n      jump\t// in\n    tag_122:\n        /* \"#utility.yul\":5033:5164   */\n    tag_121:\n        /* \"#utility.yul\":5192:5193   */\n      dup3\n        /* \"#utility.yul\":5189:5190   */\n      dup3\n        /* \"#utility.yul\":5185:5194   */\n      mul\n        /* \"#utility.yul\":5174:5194   */\n      swap1\n      pop\n        /* \"#utility.yul\":4852:5200   */\n      swap3\n      swap2\n      pop\n      pop\n      jump\t// out\n        /* \"#utility.yul\":5206:5302   */\n    tag_79:\n        /* \"#utility.yul\":5243:5250   */\n      0x00\n        /* \"#utility.yul\":5272:5296   */\n      tag_124\n        /* \"#utility.yul\":5290:5295   */\n      dup3\n        /* \"#utility.yul\":5272:5296   */\n      tag_125\n      jump\t// in\n    tag_124:\n        /* \"#utility.yul\":5261:5296   */\n      swap1\n      pop\n        /* \"#utility.yul\":5206:5302   */\n      swap2\n      swap1\n      pop\n      jump\t// out\n        /* \"#utility.yul\":5308:5384   */\n    tag_107:\n        /* \"#utility.yul\":5344:5351   */\n      0x00\n        /* \"#utility.yul\":5373:5378   */\n      dup2\n        /* \"#utility.yul\":5362:5378   */\n      swap1\n      pop\n        /* \"#utility.yul\":5308:5384   */\n      swap2\n      swap1\n      pop\n      jump\t// out\n        /* \"#utility.yul\":5390:5516   */\n    tag_125:\n        /* \"#utility.yul\":5427:5434   */\n      0x00\n        /* \"#utility.yul\":5467:5509   */\n      0xffffffffffffffffffffffffffffffffffffffff\n        /* \"#utility.yul\":5460:5465   */\n      dup3\n        /* \"#utility.yul\":5456:5510   */\n      and\n        /* \"#utility.yul\":5445:5510   */\n      swap1\n      pop\n        /* \"#utility.yul\":5390:5516   */\n      swap2\n      swap1\n      pop\n      jump\t// out\n        /* \"#utility.yul\":5522:5599   */\n    tag_89:\n        /* \"#utility.yul\":5559:5566   */\n      0x00\n        /* \"#utility.yul\":5588:5593   */\n      dup2\n        /* \"#utility.yul\":5577:5593   */\n      swap1\n      pop\n        /* \"#utility.yul\":5522:5599   */\n      swap2\n      swap1\n      pop\n      jump\t// out\n        /* \"#utility.yul\":5605:5710   */\n    tag_129:\n        /* \"#utility.yul\":5641:5648   */\n      0x00\n        /* \"#utility.yul\":5681:5703   */\n      0xffffffffffffffffffff\n        /* \"#utility.yul\":5674:5679   */\n      dup3\n        /* \"#utility.yul\":5670:5704   */\n      and\n        /* \"#utility.yul\":5659:5704   */\n      swap1\n      pop\n        /* \"#utility.yul\":5605:5710   */\n      swap2\n      swap1\n      pop\n      jump\t// out\n        /* \"#utility.yul\":5716:5896   */\n    tag_111:\n        /* \"#utility.yul\":5764:5841   */\n      0x4e487b7100000000000000000000000000000000000000000000000000000000\n        /* \"#utility.yul\":5761:5762   */\n      0x00\n        /* \"#utility.yul\":5754:5842   */\n      mstore\n        /* \"#utility.yul\":5861:5865   */\n      0x11\n        /* \"#utility.yul\":5858:5859   */\n      0x04\n        /* \"#utility.yul\":5851:5866   */\n      mstore\n        /* \"#utility.yul\":5885:5889   */\n      0x24\n        /* \"#utility.yul\":5882:5883   */\n      0x00\n        /* \"#utility.yul\":5875:5890   */\n      revert\n        /* \"#utility.yul\":5902:6082   */\n    tag_104:\n        /* \"#utility.yul\":5950:6027   */\n      0x4e487b7100000000000000000000000000000000000000000000000000000000\n        /* \"#utility.yul\":5947:5948   */\n      0x00\n        /* \"#utility.yul\":5940:6028   */\n      mstore\n        /* \"#utility.yul\":6047:6051   */\n      0x12\n        /* \"#utility.yul\":6044:6045   */\n      0x04\n        /* \"#utility.yul\":6037:6052   */\n      mstore\n        /* \"#utility.yul\":6071:6075   */\n      0x24\n        /* \"#utility.yul\":6068:6069   */\n      0x00\n        /* \"#utility.yul\":6061:6076   */\n      revert\n        /* \"#utility.yul\":6211:6328   */\n    tag_66:\n        /* \"#utility.yul\":6320:6321   */\n      0x00\n        /* \"#utility.yul\":6317:6318   */\n      dup1\n        /* \"#utility.yul\":6310:6322   */\n      revert\n        /* \"#utility.yul\":6334:6503   */\n    tag_85:\n        /* \"#utility.yul\":6474:6495   */\n      0x4469646e27742073656e6420656e6f7567682100000000000000000000000000\n        /* \"#utility.yul\":6470:6471   */\n      0x00\n        /* \"#utility.yul\":6462:6468   */\n      dup3\n        /* \"#utility.yul\":6458:6472   */\n      add\n        /* \"#utility.yul\":6451:6496   */\n      mstore\n        /* \"#utility.yul\":6334:6503   */\n      pop\n      jump\t// out\n        /* \"#utility.yul\":6509:6629   */\n    tag_51:\n        /* \"#utility.yul\":6581:6604   */\n      tag_138\n        /* \"#utility.yul\":6598:6603   */\n      dup2\n        /* \"#utility.yul\":6581:6604   */\n      tag_107\n      jump\t// in\n    tag_138:\n        /* \"#utility.yul\":6574:6579   */\n      dup2\n        /* \"#utility.yul\":6571:6605   */\n      eq\n        /* \"#utility.yul\":6561:6623   */\n      tag_139\n      jumpi\n        /* \"#utility.yul\":6619:6620   */\n      0x00\n        /* \"#utility.yul\":6616:6617   */\n      dup1\n        /* \"#utility.yul\":6609:6621   */\n      revert\n        /* \"#utility.yul\":6561:6623   */\n    tag_139:\n        /* \"#utility.yul\":6509:6629   */\n      pop\n      jump\t// out\n        /* \"#utility.yul\":6635:6757   */\n    tag_55:\n        /* \"#utility.yul\":6708:6732   */\n      tag_141\n        /* \"#utility.yul\":6726:6731   */\n      dup2\n        /* \"#utility.yul\":6708:6732   */\n      tag_89\n      jump\t// in\n    tag_141:\n        /* \"#utility.yul\":6701:6706   */\n      dup2\n        /* \"#utility.yul\":6698:6733   */\n      eq\n        /* \"#utility.yul\":6688:6751   */\n      tag_142\n      jumpi\n        /* \"#utility.yul\":6747:6748   */\n      0x00\n        /* \"#utility.yul\":6744:6745   */\n      dup1\n        /* \"#utility.yul\":6737:6749   */\n      revert\n        /* \"#utility.yul\":6688:6751   */\n    tag_142:\n        /* \"#utility.yul\":6635:6757   */\n      pop\n      jump\t// out\n        /* \"#utility.yul\":6763:6883   */\n    tag_62:\n        /* \"#utility.yul\":6835:6858   */\n      tag_144\n        /* \"#utility.yul\":6852:6857   */\n      dup2\n        /* \"#utility.yul\":6835:6858   */\n      tag_129\n      jump\t// in\n    tag_144:\n        /* \"#utility.yul\":6828:6833   */\n      dup2\n        /* \"#utility.yul\":6825:6859   */\n      eq\n        /* \"#utility.yul\":6815:6877   */\n      tag_145\n      jumpi\n        /* \"#utility.yul\":6873:6874   */\n      0x00\n        /* \"#utility.yul\":6870:6871   */\n      dup1\n        /* \"#utility.yul\":6863:6875   */\n      revert\n        /* \"#utility.yul\":6815:6877   */\n    tag_145:\n        /* \"#utility.yul\":6763:6883   */\n      pop\n      jump\t// out\n\n    auxdata: 0xa2646970667358221220ebba493379ff0d350e2c7c1ca4d6a73b9da8c05ce1b189bc1660cfd195ce0b2d64736f6c63430008070033\n}\n",
				"bytecode": {
					"linkReferences": {},
					"object": "6080604052678ac7230489e8000060005534801561001c57600080fd5b506107548061002c6000396000f3fe60806040526004361061003f5760003560e01c80633430a88c146100445780633ccfd60b1461006f578063b60d428814610079578063dc0d3dff14610083575b600080fd5b34801561005057600080fd5b506100596100c0565b6040516100669190610423565b60405180910390f35b6100776100c6565b005b6100816100c8565b005b34801561008f57600080fd5b506100aa60048036038101906100a591906102ff565b61017a565b6040516100b791906103e8565b60405180910390f35b60005481565b565b6000546100d4346101b9565b1015610115576040517f08c379a000000000000000000000000000000000000000000000000000000000815260040161010c90610403565b60405180910390fd5b6001339080600181540180825580915050600190039060005260206000200160009091909190916101000a81548173ffffffffffffffffffffffffffffffffffffffff021916908373ffffffffffffffffffffffffffffffffffffffff160217905550565b6001818154811061018a57600080fd5b906000526020600020016000915054906101000a900473ffffffffffffffffffffffffffffffffffffffff1681565b6000806101c46101f3565b90506000670de0b6b3a764000082856101dd9190610597565b6101e7919061044f565b90508092505050919050565b60008073d4a33860578de61dbabdc8bfdb98fd742fa7028e905060008173ffffffffffffffffffffffffffffffffffffffff1663feaf968c6040518163ffffffff1660e01b815260040160a06040518083038186803b15801561025557600080fd5b505afa158015610269573d6000803e3d6000fd5b505050506040513d601f19601f8201168201806040525081019061028d919061032c565b5050509150506402540be400816102a49190610480565b9250505090565b6000815190506102ba816106d9565b92915050565b6000813590506102cf816106f0565b92915050565b6000815190506102e4816106f0565b92915050565b6000815190506102f981610707565b92915050565b600060208284031215610315576103146106ab565b5b6000610323848285016102c0565b91505092915050565b600080600080600060a08688031215610348576103476106ab565b5b6000610356888289016102ea565b9550506020610367888289016102ab565b9450506040610378888289016102d5565b9350506060610389888289016102d5565b925050608061039a888289016102ea565b9150509295509295909350565b6103b0816105f1565b82525050565b60006103c360138361043e565b91506103ce826106b0565b602082019050919050565b6103e28161062d565b82525050565b60006020820190506103fd60008301846103a7565b92915050565b6000602082019050818103600083015261041c816103b6565b9050919050565b600060208201905061043860008301846103d9565b92915050565b600082825260208201905092915050565b600061045a8261062d565b91506104658361062d565b9250826104755761047461067c565b5b828204905092915050565b600061048b82610603565b915061049683610603565b9250827f7fffffffffffffffffffffffffffffffffffffffffffffffffffffffffffffff04821160008413600084131616156104d5576104d461064d565b5b817f800000000000000000000000000000000000000000000000000000000000000005831260008412600084131616156105125761051161064d565b5b827f8000000000000000000000000000000000000000000000000000000000000000058212600084136000841216161561054f5761054e61064d565b5b827f7fffffffffffffffffffffffffffffffffffffffffffffffffffffffffffffff058212600084126000841216161561058c5761058b61064d565b5b828202905092915050565b60006105a28261062d565b91506105ad8361062d565b9250817fffffffffffffffffffffffffffffffffffffffffffffffffffffffffffffffff04831182151516156105e6576105e561064d565b5b828202905092915050565b60006105fc8261060d565b9050919050565b6000819050919050565b600073ffffffffffffffffffffffffffffffffffffffff82169050919050565b6000819050919050565b600069ffffffffffffffffffff82169050919050565b7f4e487b7100000000000000000000000000000000000000000000000000000000600052601160045260246000fd5b7f4e487b7100000000000000000000000000000000000000000000000000000000600052601260045260246000fd5b600080fd5b7f4469646e27742073656e6420656e6f7567682100000000000000000000000000600082015250565b6106e281610603565b81146106ed57600080fd5b50565b6106f98161062d565b811461070457600080fd5b50565b61071081610637565b811461071b57600080fd5b5056fea2646970667358221220ebba493379ff0d350e2c7c1ca4d6a73b9da8c05ce1b189bc1660cfd195ce0b2d64736f6c63430008070033",
					"opcodes": "PUSH1 0x80 PUSH1 0x40 MSTORE PUSH8 0x8AC7230489E80000 PUSH1 0x0 SSTORE CALLVALUE DUP1 ISZERO PUSH2 0x1C JUMPI PUSH1 0x0 DUP1 REVERT JUMPDEST POP PUSH2 0x754 DUP1 PUSH2 0x2C PUSH1 0x0 CODECOPY PUSH1 0x0 RETURN INVALID PUSH1 0x80 PUSH1 0x40 MSTORE PUSH1 0x4 CALLDATASIZE LT PUSH2 0x3F JUMPI PUSH1 0x0 CALLDATALOAD PUSH1 0xE0 SHR DUP1 PUSH4 0x3430A88C EQ PUSH2 0x44 JUMPI DUP1 PUSH4 0x3CCFD60B EQ PUSH2 0x6F JUMPI DUP1 PUSH4 0xB60D4288 EQ PUSH2 0x79 JUMPI DUP1 PUSH4 0xDC0D3DFF EQ PUSH2 0x83 JUMPI JUMPDEST PUSH1 0x0 DUP1 REVERT JUMPDEST CALLVALUE DUP1 ISZERO PUSH2 0x50 JUMPI PUSH1 0x0 DUP1 REVERT JUMPDEST POP PUSH2 0x59 PUSH2 0xC0 JUMP JUMPDEST PUSH1 0x40 MLOAD PUSH2 0x66 SWAP2 SWAP1 PUSH2 0x423 JUMP JUMPDEST PUSH1 0x40 MLOAD DUP1 SWAP2 SUB SWAP1 RETURN JUMPDEST PUSH2 0x77 PUSH2 0xC6 JUMP JUMPDEST STOP JUMPDEST PUSH2 0x81 PUSH2 0xC8 JUMP JUMPDEST STOP JUMPDEST CALLVALUE DUP1 ISZERO PUSH2 0x8F JUMPI PUSH1 0x0 DUP1 REVERT JUMPDEST POP PUSH2 0xAA PUSH1 0x4 DUP1 CALLDATASIZE SUB DUP2 ADD SWAP1 PUSH2 0xA5 SWAP2 SWAP1 PUSH2 0x2FF JUMP JUMPDEST PUSH2 0x17A JUMP JUMPDEST PUSH1 0x40 MLOAD PUSH2 0xB7 SWAP2 SWAP1 PUSH2 0x3E8 JUMP JUMPDEST PUSH1 0x40 MLOAD DUP1 SWAP2 SUB SWAP1 RETURN JUMPDEST PUSH1 0x0 SLOAD DUP2 JUMP JUMPDEST JUMP JUMPDEST PUSH1 0x0 SLOAD PUSH2 0xD4 CALLVALUE PUSH2 0x1B9 JUMP JUMPDEST LT ISZERO PUSH2 0x115 JUMPI PUSH1 0x40 MLOAD PUSH32 0x8C379A000000000000000000000000000000000000000000000000000000000 DUP2 MSTORE PUSH1 0x4 ADD PUSH2 0x10C SWAP1 PUSH2 0x403 JUMP JUMPDEST PUSH1 0x40 MLOAD DUP1 SWAP2 SUB SWAP1 REVERT JUMPDEST PUSH1 0x1 CALLER SWAP1 DUP1 PUSH1 0x1 DUP2 SLOAD ADD DUP1 DUP3 SSTORE DUP1 SWAP2 POP POP PUSH1 0x1 SWAP1 SUB SWAP1 PUSH1 0x0 MSTORE PUSH1 0x20 PUSH1 0x0 KECCAK256 ADD PUSH1 0x0 SWAP1 SWAP2 SWAP1 SWAP2 SWAP1 SWAP2 PUSH2 0x100 EXP DUP2 SLOAD DUP2 PUSH20 0xFFFFFFFFFFFFFFFFFFFFFFFFFFFFFFFFFFFFFFFF MUL NOT AND SWAP1 DUP4 PUSH20 0xFFFFFFFFFFFFFFFFFFFFFFFFFFFFFFFFFFFFFFFF AND MUL OR SWAP1 SSTORE POP JUMP JUMPDEST PUSH1 0x1 DUP2 DUP2 SLOAD DUP2 LT PUSH2 0x18A JUMPI PUSH1 0x0 DUP1 REVERT JUMPDEST SWAP1 PUSH1 0x0 MSTORE PUSH1 0x20 PUSH1 0x0 KECCAK256 ADD PUSH1 0x0 SWAP2 POP SLOAD SWAP1 PUSH2 0x100 EXP SWAP1 DIV PUSH20 0xFFFFFFFFFFFFFFFFFFFFFFFFFFFFFFFFFFFFFFFF AND DUP2 JUMP JUMPDEST PUSH1 0x0 DUP1 PUSH2 0x1C4 PUSH2 0x1F3 JUMP JUMPDEST SWAP1 POP PUSH1 0x0 PUSH8 0xDE0B6B3A7640000 DUP3 DUP6 PUSH2 0x1DD SWAP2 SWAP1 PUSH2 0x597 JUMP JUMPDEST PUSH2 0x1E7 SWAP2 SWAP1 PUSH2 0x44F JUMP JUMPDEST SWAP1 POP DUP1 SWAP3 POP POP POP SWAP2 SWAP1 POP JUMP JUMPDEST PUSH1 0x0 DUP1 PUSH20 0xD4A33860578DE61DBABDC8BFDB98FD742FA7028E SWAP1 POP PUSH1 0x0 DUP2 PUSH20 0xFFFFFFFFFFFFFFFFFFFFFFFFFFFFFFFFFFFFFFFF AND PUSH4 0xFEAF968C PUSH1 0x40 MLOAD DUP2 PUSH4 0xFFFFFFFF AND PUSH1 0xE0 SHL DUP2 MSTORE PUSH1 0x4 ADD PUSH1 0xA0 PUSH1 0x40 MLOAD DUP1 DUP4 SUB DUP2 DUP7 DUP1 EXTCODESIZE ISZERO DUP1 ISZERO PUSH2 0x255 JUMPI PUSH1 0x0 DUP1 REVERT JUMPDEST POP GAS STATICCALL ISZERO DUP1 ISZERO PUSH2 0x269 JUMPI RETURNDATASIZE PUSH1 0x0 DUP1 RETURNDATACOPY RETURNDATASIZE PUSH1 0x0 REVERT JUMPDEST POP POP POP POP PUSH1 0x40 MLOAD RETURNDATASIZE PUSH1 0x1F NOT PUSH1 0x1F DUP3 ADD AND DUP3 ADD DUP1 PUSH1 0x40 MSTORE POP DUP2 ADD SWAP1 PUSH2 0x28D SWAP2 SWAP1 PUSH2 0x32C JUMP JUMPDEST POP POP POP SWAP2 POP POP PUSH5 0x2540BE400 DUP2 PUSH2 0x2A4 SWAP2 SWAP1 PUSH2 0x480 JUMP JUMPDEST SWAP3 POP POP POP SWAP1 JUMP JUMPDEST PUSH1 0x0 DUP2 MLOAD SWAP1 POP PUSH2 0x2BA DUP2 PUSH2 0x6D9 JUMP JUMPDEST SWAP3 SWAP2 POP POP JUMP JUMPDEST PUSH1 0x0 DUP2 CALLDATALOAD SWAP1 POP PUSH2 0x2CF DUP2 PUSH2 0x6F0 JUMP JUMPDEST SWAP3 SWAP2 POP POP JUMP JUMPDEST PUSH1 0x0 DUP2 MLOAD SWAP1 POP PUSH2 0x2E4 DUP2 PUSH2 0x6F0 JUMP JUMPDEST SWAP3 SWAP2 POP POP JUMP JUMPDEST PUSH1 0x0 DUP2 MLOAD SWAP1 POP PUSH2 0x2F9 DUP2 PUSH2 0x707 JUMP JUMPDEST SWAP3 SWAP2 POP POP JUMP JUMPDEST PUSH1 0x0 PUSH1 0x20 DUP3 DUP5 SUB SLT ISZERO PUSH2 0x315 JUMPI PUSH2 0x314 PUSH2 0x6AB JUMP JUMPDEST JUMPDEST PUSH1 0x0 PUSH2 0x323 DUP5 DUP3 DUP6 ADD PUSH2 0x2C0 JUMP JUMPDEST SWAP2 POP POP SWAP3 SWAP2 POP POP JUMP JUMPDEST PUSH1 0x0 DUP1 PUSH1 0x0 DUP1 PUSH1 0x0 PUSH1 0xA0 DUP7 DUP9 SUB SLT ISZERO PUSH2 0x348 JUMPI PUSH2 0x347 PUSH2 0x6AB JUMP JUMPDEST JUMPDEST PUSH1 0x0 PUSH2 0x356 DUP9 DUP3 DUP10 ADD PUSH2 0x2EA JUMP JUMPDEST SWAP6 POP POP PUSH1 0x20 PUSH2 0x367 DUP9 DUP3 DUP10 ADD PUSH2 0x2AB JUMP JUMPDEST SWAP5 POP POP PUSH1 0x40 PUSH2 0x378 DUP9 DUP3 DUP10 ADD PUSH2 0x2D5 JUMP JUMPDEST SWAP4 POP POP PUSH1 0x60 PUSH2 0x389 DUP9 DUP3 DUP10 ADD PUSH2 0x2D5 JUMP JUMPDEST SWAP3 POP POP PUSH1 0x80 PUSH2 0x39A DUP9 DUP3 DUP10 ADD PUSH2 0x2EA JUMP JUMPDEST SWAP2 POP POP SWAP3 SWAP6 POP SWAP3 SWAP6 SWAP1 SWAP4 POP JUMP JUMPDEST PUSH2 0x3B0 DUP2 PUSH2 0x5F1 JUMP JUMPDEST DUP3 MSTORE POP POP JUMP JUMPDEST PUSH1 0x0 PUSH2 0x3C3 PUSH1 0x13 DUP4 PUSH2 0x43E JUMP JUMPDEST SWAP2 POP PUSH2 0x3CE DUP3 PUSH2 0x6B0 JUMP JUMPDEST PUSH1 0x20 DUP3 ADD SWAP1 POP SWAP2 SWAP1 POP JUMP JUMPDEST PUSH2 0x3E2 DUP2 PUSH2 0x62D JUMP JUMPDEST DUP3 MSTORE POP POP JUMP JUMPDEST PUSH1 0x0 PUSH1 0x20 DUP3 ADD SWAP1 POP PUSH2 0x3FD PUSH1 0x0 DUP4 ADD DUP5 PUSH2 0x3A7 JUMP JUMPDEST SWAP3 SWAP2 POP POP JUMP JUMPDEST PUSH1 0x0 PUSH1 0x20 DUP3 ADD SWAP1 POP DUP2 DUP2 SUB PUSH1 0x0 DUP4 ADD MSTORE PUSH2 0x41C DUP2 PUSH2 0x3B6 JUMP JUMPDEST SWAP1 POP SWAP2 SWAP1 POP JUMP JUMPDEST PUSH1 0x0 PUSH1 0x20 DUP3 ADD SWAP1 POP PUSH2 0x438 PUSH1 0x0 DUP4 ADD DUP5 PUSH2 0x3D9 JUMP JUMPDEST SWAP3 SWAP2 POP POP JUMP JUMPDEST PUSH1 0x0 DUP3 DUP3 MSTORE PUSH1 0x20 DUP3 ADD SWAP1 POP SWAP3 SWAP2 POP POP JUMP JUMPDEST PUSH1 0x0 PUSH2 0x45A DUP3 PUSH2 0x62D JUMP JUMPDEST SWAP2 POP PUSH2 0x465 DUP4 PUSH2 0x62D JUMP JUMPDEST SWAP3 POP DUP3 PUSH2 0x475 JUMPI PUSH2 0x474 PUSH2 0x67C JUMP JUMPDEST JUMPDEST DUP3 DUP3 DIV SWAP1 POP SWAP3 SWAP2 POP POP JUMP JUMPDEST PUSH1 0x0 PUSH2 0x48B DUP3 PUSH2 0x603 JUMP JUMPDEST SWAP2 POP PUSH2 0x496 DUP4 PUSH2 0x603 JUMP JUMPDEST SWAP3 POP DUP3 PUSH32 0x7FFFFFFFFFFFFFFFFFFFFFFFFFFFFFFFFFFFFFFFFFFFFFFFFFFFFFFFFFFFFFFF DIV DUP3 GT PUSH1 0x0 DUP5 SGT PUSH1 0x0 DUP5 SGT AND AND ISZERO PUSH2 0x4D5 JUMPI PUSH2 0x4D4 PUSH2 0x64D JUMP JUMPDEST JUMPDEST DUP2 PUSH32 0x8000000000000000000000000000000000000000000000000000000000000000 SDIV DUP4 SLT PUSH1 0x0 DUP5 SLT PUSH1 0x0 DUP5 SGT AND AND ISZERO PUSH2 0x512 JUMPI PUSH2 0x511 PUSH2 0x64D JUMP JUMPDEST JUMPDEST DUP3 PUSH32 0x8000000000000000000000000000000000000000000000000000000000000000 SDIV DUP3 SLT PUSH1 0x0 DUP5 SGT PUSH1 0x0 DUP5 SLT AND AND ISZERO PUSH2 0x54F JUMPI PUSH2 0x54E PUSH2 0x64D JUMP JUMPDEST JUMPDEST DUP3 PUSH32 0x7FFFFFFFFFFFFFFFFFFFFFFFFFFFFFFFFFFFFFFFFFFFFFFFFFFFFFFFFFFFFFFF SDIV DUP3 SLT PUSH1 0x0 DUP5 SLT PUSH1 0x0 DUP5 SLT AND AND ISZERO PUSH2 0x58C JUMPI PUSH2 0x58B PUSH2 0x64D JUMP JUMPDEST JUMPDEST DUP3 DUP3 MUL SWAP1 POP SWAP3 SWAP2 POP POP JUMP JUMPDEST PUSH1 0x0 PUSH2 0x5A2 DUP3 PUSH2 0x62D JUMP JUMPDEST SWAP2 POP PUSH2 0x5AD DUP4 PUSH2 0x62D JUMP JUMPDEST SWAP3 POP DUP2 PUSH32 0xFFFFFFFFFFFFFFFFFFFFFFFFFFFFFFFFFFFFFFFFFFFFFFFFFFFFFFFFFFFFFFFF DIV DUP4 GT DUP3 ISZERO ISZERO AND ISZERO PUSH2 0x5E6 JUMPI PUSH2 0x5E5 PUSH2 0x64D JUMP JUMPDEST JUMPDEST DUP3 DUP3 MUL SWAP1 POP SWAP3 SWAP2 POP POP JUMP JUMPDEST PUSH1 0x0 PUSH2 0x5FC DUP3 PUSH2 0x60D JUMP JUMPDEST SWAP1 POP SWAP2 SWAP1 POP JUMP JUMPDEST PUSH1 0x0 DUP2 SWAP1 POP SWAP2 SWAP1 POP JUMP JUMPDEST PUSH1 0x0 PUSH20 0xFFFFFFFFFFFFFFFFFFFFFFFFFFFFFFFFFFFFFFFF DUP3 AND SWAP1 POP SWAP2 SWAP1 POP JUMP JUMPDEST PUSH1 0x0 DUP2 SWAP1 POP SWAP2 SWAP1 POP JUMP JUMPDEST PUSH1 0x0 PUSH10 0xFFFFFFFFFFFFFFFFFFFF DUP3 AND SWAP1 POP SWAP2 SWAP1 POP JUMP JUMPDEST PUSH32 0x4E487B7100000000000000000000000000000000000000000000000000000000 PUSH1 0x0 MSTORE PUSH1 0x11 PUSH1 0x4 MSTORE PUSH1 0x24 PUSH1 0x0 REVERT JUMPDEST PUSH32 0x4E487B7100000000000000000000000000000000000000000000000000000000 PUSH1 0x0 MSTORE PUSH1 0x12 PUSH1 0x4 MSTORE PUSH1 0x24 PUSH1 0x0 REVERT JUMPDEST PUSH1 0x0 DUP1 REVERT JUMPDEST PUSH32 0x4469646E27742073656E6420656E6F7567682100000000000000000000000000 PUSH1 0x0 DUP3 ADD MSTORE POP JUMP JUMPDEST PUSH2 0x6E2 DUP2 PUSH2 0x603 JUMP JUMPDEST DUP2 EQ PUSH2 0x6ED JUMPI PUSH1 0x0 DUP1 REVERT JUMPDEST POP JUMP JUMPDEST PUSH2 0x6F9 DUP2 PUSH2 0x62D JUMP JUMPDEST DUP2 EQ PUSH2 0x704 JUMPI PUSH1 0x0 DUP1 REVERT JUMPDEST POP JUMP JUMPDEST PUSH2 0x710 DUP2 PUSH2 0x637 JUMP JUMPDEST DUP2 EQ PUSH2 0x71B JUMPI PUSH1 0x0 DUP1 REVERT JUMPDEST POP JUMP INVALID LOG2 PUSH5 0x6970667358 0x22 SLT KECCAK256 0xEB 0xBA 0x49 CALLER PUSH26 0xFF0D350E2C7C1CA4D6A73B9DA8C05CE1B189BC1660CFD195CE0B 0x2D PUSH5 0x736F6C6343 STOP ADDMOD SMOD STOP CALLER "
				},
				"gasEstimates": {
					"creation": {
						"codeDepositCost": "375200",
						"executionCost": "22517",
						"totalCost": "397717"
					},
					"external": {
						"fund()": "infinite",
						"funders(uint256)": "5000",
						"minimumUSD()": "2407",
						"withdraw()": "120"
					}
				},
				"methodIdentifiers": {
					"fund()": "b60d4288",
					"funders(uint256)": "dc0d3dff",
					"minimumUSD()": "3430a88c",
					"withdraw()": "3ccfd60b"
				}
			},
			"storageLayout": {
				"storage": [
					{
						"astId": 56,
						"contract": "contracts/NewFundMe.sol:NewFundMe",
						"label": "minimumUSD",
						"offset": 0,
						"slot": "0",
						"type": "t_uint256"
					},
					{
						"astId": 59,
						"contract": "contracts/NewFundMe.sol:NewFundMe",
						"label": "funders",
						"offset": 0,
						"slot": "1",
						"type": "t_array(t_address)dyn_storage"
					}
				],
				"types": {
					"t_address": {
						"encoding": "inplace",
						"label": "address",
						"numberOfBytes": "20"
					},
					"t_array(t_address)dyn_storage": {
						"base": "t_address",
						"encoding": "dynamic_array",
						"label": "address[]",
						"numberOfBytes": "32"
					},
					"t_uint256": {
						"encoding": "inplace",
						"label": "uint256",
						"numberOfBytes": "32"
					}
				}
			},
			"userdoc": {
				"kind": "user",
				"methods": {},
				"version": 1
			}
		}
	}
}