{
	"contracts/FundMe.sol": {
		"FundMe": {
			"abi": [
				{
					"inputs": [],
					"name": "fund",
					"outputs": [],
					"stateMutability": "payable",
					"type": "function"
				},
				{
					"inputs": [],
					"name": "getConversionRate",
					"outputs": [],
					"stateMutability": "nonpayable",
					"type": "function"
				},
				{
					"inputs": [],
					"name": "getPrice",
					"outputs": [
						{
							"internalType": "uint256",
							"name": "",
							"type": "uint256"
						}
					],
					"stateMutability": "view",
					"type": "function"
				},
				{
					"inputs": [],
					"name": "getVersion",
					"outputs": [
						{
							"internalType": "uint256",
							"name": "",
							"type": "uint256"
						}
					],
					"stateMutability": "view",
					"type": "function"
				},
				{
					"inputs": [],
					"name": "minimumUSD",
					"outputs": [
						{
							"internalType": "uint256",
							"name": "",
							"type": "uint256"
						}
					],
					"stateMutability": "view",
					"type": "function"
				}
			],
			"devdoc": {
				"kind": "dev",
				"methods": {},
				"version": 1
			},
			"evm": {
				"assembly": "    /* \"contracts/FundMe.sol\":142:1342  contract FundMe{\r... */\n  mstore(0x40, 0x80)\n    /* \"contracts/FundMe.sol\":194:196  50 */\n  0x32\n    /* \"contracts/FundMe.sol\":166:196  uint256 public minimumUSD = 50 */\n  0x00\n  sstore\n    /* \"contracts/FundMe.sol\":142:1342  contract FundMe{\r... */\n  callvalue\n  dup1\n  iszero\n  tag_1\n  jumpi\n  0x00\n  dup1\n  revert\ntag_1:\n  pop\n  dataSize(sub_0)\n  dup1\n  dataOffset(sub_0)\n  0x00\n  codecopy\n  0x00\n  return\nstop\n\nsub_0: assembly {\n        /* \"contracts/FundMe.sol\":142:1342  contract FundMe{\r... */\n      mstore(0x40, 0x80)\n      jumpi(tag_1, lt(calldatasize, 0x04))\n      shr(0xe0, calldataload(0x00))\n      dup1\n      0x0d8e6e2c\n      eq\n      tag_2\n      jumpi\n      dup1\n      0x3430a88c\n      eq\n      tag_3\n      jumpi\n      dup1\n      0x98d5fdca\n      eq\n      tag_4\n      jumpi\n      dup1\n      0xb60d4288\n      eq\n      tag_5\n      jumpi\n      dup1\n      0xf36089ec\n      eq\n      tag_6\n      jumpi\n    tag_1:\n      0x00\n      dup1\n      revert\n        /* \"contracts/FundMe.sol\":1072:1277  function getVersion() public view returns(uint256){\r... */\n    tag_2:\n      callvalue\n      dup1\n      iszero\n      tag_7\n      jumpi\n      0x00\n      dup1\n      revert\n    tag_7:\n      pop\n      tag_8\n      tag_9\n      jump\t// in\n    tag_8:\n      mload(0x40)\n      tag_10\n      swap2\n      swap1\n      tag_11\n      jump\t// in\n    tag_10:\n      mload(0x40)\n      dup1\n      swap2\n      sub\n      swap1\n      return\n        /* \"contracts/FundMe.sol\":166:196  uint256 public minimumUSD = 50 */\n    tag_3:\n      callvalue\n      dup1\n      iszero\n      tag_12\n      jumpi\n      0x00\n      dup1\n      revert\n    tag_12:\n      pop\n      tag_13\n      tag_14\n      jump\t// in\n    tag_13:\n      mload(0x40)\n      tag_15\n      swap2\n      swap1\n      tag_11\n      jump\t// in\n    tag_15:\n      mload(0x40)\n      dup1\n      swap2\n      sub\n      swap1\n      return\n        /* \"contracts/FundMe.sol\":615:1064  function getPrice() public view returns(uint256) {\r... */\n    tag_4:\n      callvalue\n      dup1\n      iszero\n      tag_16\n      jumpi\n      0x00\n      dup1\n      revert\n    tag_16:\n      pop\n      tag_17\n      tag_18\n      jump\t// in\n    tag_17:\n      mload(0x40)\n      tag_19\n      swap2\n      swap1\n      tag_11\n      jump\t// in\n    tag_19:\n      mload(0x40)\n      dup1\n      swap2\n      sub\n      swap1\n      return\n        /* \"contracts/FundMe.sol\":205:607  function fund() public payable{\r... */\n    tag_5:\n      tag_20\n      tag_21\n      jump\t// in\n    tag_20:\n      stop\n        /* \"contracts/FundMe.sol\":1285:1331  function getConversionRate() public {\r... */\n    tag_6:\n      callvalue\n      dup1\n      iszero\n      tag_22\n      jumpi\n      0x00\n      dup1\n      revert\n    tag_22:\n      pop\n      tag_23\n      tag_24\n      jump\t// in\n    tag_23:\n      stop\n        /* \"contracts/FundMe.sol\":1072:1277  function getVersion() public view returns(uint256){\r... */\n    tag_9:\n        /* \"contracts/FundMe.sol\":1114:1121  uint256 */\n      0x00\n        /* \"contracts/FundMe.sol\":1133:1164  AggregatorV3Interface priceFeed */\n      dup1\n        /* \"contracts/FundMe.sol\":1189:1231  0xD4a33860578De61DBAbDc8BFdb98FD742fA7028e */\n      0xd4a33860578de61dbabdc8bfdb98fd742fa7028e\n        /* \"contracts/FundMe.sol\":1133:1232  AggregatorV3Interface priceFeed = AggregatorV3Interface(0xD4a33860578De61DBAbDc8BFdb98FD742fA7028e) */\n      swap1\n      pop\n        /* \"contracts/FundMe.sol\":1250:1259  priceFeed */\n      dup1\n        /* \"contracts/FundMe.sol\":1250:1267  priceFeed.version */\n      0xffffffffffffffffffffffffffffffffffffffff\n      and\n      0x54fd4d50\n        /* \"contracts/FundMe.sol\":1250:1269  priceFeed.version() */\n      mload(0x40)\n      dup2\n      0xffffffff\n      and\n      0xe0\n      shl\n      dup2\n      mstore\n      0x04\n      add\n      0x20\n      mload(0x40)\n      dup1\n      dup4\n      sub\n      dup2\n      dup7\n      dup1\n      extcodesize\n      iszero\n      dup1\n      iszero\n      tag_26\n      jumpi\n      0x00\n      dup1\n      revert\n    tag_26:\n      pop\n      gas\n      staticcall\n      iszero\n      dup1\n      iszero\n      tag_28\n      jumpi\n      returndatasize\n      0x00\n      dup1\n      returndatacopy\n      revert(0x00, returndatasize)\n    tag_28:\n      pop\n      pop\n      pop\n      pop\n      mload(0x40)\n      returndatasize\n      not(0x1f)\n      0x1f\n      dup3\n      add\n      and\n      dup3\n      add\n      dup1\n      0x40\n      mstore\n      pop\n      dup2\n      add\n      swap1\n      tag_29\n      swap2\n      swap1\n      tag_30\n      jump\t// in\n    tag_29:\n        /* \"contracts/FundMe.sol\":1243:1269  return priceFeed.version() */\n      swap2\n      pop\n      pop\n        /* \"contracts/FundMe.sol\":1072:1277  function getVersion() public view returns(uint256){\r... */\n      swap1\n      jump\t// out\n        /* \"contracts/FundMe.sol\":166:196  uint256 public minimumUSD = 50 */\n    tag_14:\n      sload(0x00)\n      dup2\n      jump\t// out\n        /* \"contracts/FundMe.sol\":615:1064  function getPrice() public view returns(uint256) {\r... */\n    tag_18:\n        /* \"contracts/FundMe.sol\":655:662  uint256 */\n      0x00\n        /* \"contracts/FundMe.sol\":811:842  AggregatorV3Interface priceFeed */\n      dup1\n        /* \"contracts/FundMe.sol\":867:909  0xD4a33860578De61DBAbDc8BFdb98FD742fA7028e */\n      0xd4a33860578de61dbabdc8bfdb98fd742fa7028e\n        /* \"contracts/FundMe.sol\":811:910  AggregatorV3Interface priceFeed = AggregatorV3Interface(0xD4a33860578De61DBAbDc8BFdb98FD742fA7028e) */\n      swap1\n      pop\n        /* \"contracts/FundMe.sol\":924:933  int price */\n      0x00\n        /* \"contracts/FundMe.sol\":943:952  priceFeed */\n      dup2\n        /* \"contracts/FundMe.sol\":943:968  priceFeed.latestRoundData */\n      0xffffffffffffffffffffffffffffffffffffffff\n      and\n      0xfeaf968c\n        /* \"contracts/FundMe.sol\":943:970  priceFeed.latestRoundData() */\n      mload(0x40)\n      dup2\n      0xffffffff\n      and\n      0xe0\n      shl\n      dup2\n      mstore\n      0x04\n      add\n      0xa0\n      mload(0x40)\n      dup1\n      dup4\n      sub\n      dup2\n      dup7\n      dup1\n      extcodesize\n      iszero\n      dup1\n      iszero\n      tag_32\n      jumpi\n      0x00\n      dup1\n      revert\n    tag_32:\n      pop\n      gas\n      staticcall\n      iszero\n      dup1\n      iszero\n      tag_34\n      jumpi\n      returndatasize\n      0x00\n      dup1\n      returndatacopy\n      revert(0x00, returndatasize)\n    tag_34:\n      pop\n      pop\n      pop\n      pop\n      mload(0x40)\n      returndatasize\n      not(0x1f)\n      0x1f\n      dup3\n      add\n      and\n      dup3\n      add\n      dup1\n      0x40\n      mstore\n      pop\n      dup2\n      add\n      swap1\n      tag_35\n      swap2\n      swap1\n      tag_36\n      jump\t// in\n    tag_35:\n        /* \"contracts/FundMe.sol\":921:970  (, int price, , , ) = priceFeed.latestRoundData() */\n      pop\n      pop\n      pop\n      swap2\n      pop\n      pop\n        /* \"contracts/FundMe.sol\":1024:1028  1e10 */\n      0x02540be400\n        /* \"contracts/FundMe.sol\":1016:1021  price */\n      dup2\n        /* \"contracts/FundMe.sol\":1016:1028  price * 1e10 */\n      tag_37\n      swap2\n      swap1\n      tag_38\n      jump\t// in\n    tag_37:\n        /* \"contracts/FundMe.sol\":1001:1029  return uint256(price * 1e10) */\n      swap3\n      pop\n      pop\n      pop\n        /* \"contracts/FundMe.sol\":615:1064  function getPrice() public view returns(uint256) {\r... */\n      swap1\n      jump\t// out\n        /* \"contracts/FundMe.sol\":205:607  function fund() public payable{\r... */\n    tag_21:\n        /* \"contracts/FundMe.sol\":517:527  minimumUSD */\n      sload(0x00)\n        /* \"contracts/FundMe.sol\":504:513  msg.value */\n      callvalue\n        /* \"contracts/FundMe.sol\":504:527  msg.value >= minimumUSD */\n      lt\n      iszero\n        /* \"contracts/FundMe.sol\":496:553  require(msg.value >= minimumUSD, \"Didn't send enough !!\") */\n      tag_40\n      jumpi\n      mload(0x40)\n      0x08c379a000000000000000000000000000000000000000000000000000000000\n      dup2\n      mstore\n      0x04\n      add\n      tag_41\n      swap1\n      tag_42\n      jump\t// in\n    tag_41:\n      mload(0x40)\n      dup1\n      swap2\n      sub\n      swap1\n      revert\n    tag_40:\n        /* \"contracts/FundMe.sol\":205:607  function fund() public payable{\r... */\n      jump\t// out\n        /* \"contracts/FundMe.sol\":1285:1331  function getConversionRate() public {\r... */\n    tag_24:\n      jump\t// out\n        /* \"#utility.yul\":7:148   */\n    tag_45:\n        /* \"#utility.yul\":63:68   */\n      0x00\n        /* \"#utility.yul\":94:100   */\n      dup2\n        /* \"#utility.yul\":88:101   */\n      mload\n        /* \"#utility.yul\":79:101   */\n      swap1\n      pop\n        /* \"#utility.yul\":110:142   */\n      tag_47\n        /* \"#utility.yul\":136:141   */\n      dup2\n        /* \"#utility.yul\":110:142   */\n      tag_48\n      jump\t// in\n    tag_47:\n        /* \"#utility.yul\":7:148   */\n      swap3\n      swap2\n      pop\n      pop\n      jump\t// out\n        /* \"#utility.yul\":154:297   */\n    tag_49:\n        /* \"#utility.yul\":211:216   */\n      0x00\n        /* \"#utility.yul\":242:248   */\n      dup2\n        /* \"#utility.yul\":236:249   */\n      mload\n        /* \"#utility.yul\":227:249   */\n      swap1\n      pop\n        /* \"#utility.yul\":258:291   */\n      tag_51\n        /* \"#utility.yul\":285:290   */\n      dup2\n        /* \"#utility.yul\":258:291   */\n      tag_52\n      jump\t// in\n    tag_51:\n        /* \"#utility.yul\":154:297   */\n      swap3\n      swap2\n      pop\n      pop\n      jump\t// out\n        /* \"#utility.yul\":303:444   */\n    tag_53:\n        /* \"#utility.yul\":359:364   */\n      0x00\n        /* \"#utility.yul\":390:396   */\n      dup2\n        /* \"#utility.yul\":384:397   */\n      mload\n        /* \"#utility.yul\":375:397   */\n      swap1\n      pop\n        /* \"#utility.yul\":406:438   */\n      tag_55\n        /* \"#utility.yul\":432:437   */\n      dup2\n        /* \"#utility.yul\":406:438   */\n      tag_56\n      jump\t// in\n    tag_55:\n        /* \"#utility.yul\":303:444   */\n      swap3\n      swap2\n      pop\n      pop\n      jump\t// out\n        /* \"#utility.yul\":450:801   */\n    tag_30:\n        /* \"#utility.yul\":520:526   */\n      0x00\n        /* \"#utility.yul\":569:571   */\n      0x20\n        /* \"#utility.yul\":557:566   */\n      dup3\n        /* \"#utility.yul\":548:555   */\n      dup5\n        /* \"#utility.yul\":544:567   */\n      sub\n        /* \"#utility.yul\":540:572   */\n      slt\n        /* \"#utility.yul\":537:656   */\n      iszero\n      tag_58\n      jumpi\n        /* \"#utility.yul\":575:654   */\n      tag_59\n      tag_60\n      jump\t// in\n    tag_59:\n        /* \"#utility.yul\":537:656   */\n    tag_58:\n        /* \"#utility.yul\":695:696   */\n      0x00\n        /* \"#utility.yul\":720:784   */\n      tag_61\n        /* \"#utility.yul\":776:783   */\n      dup5\n        /* \"#utility.yul\":767:773   */\n      dup3\n        /* \"#utility.yul\":756:765   */\n      dup6\n        /* \"#utility.yul\":752:774   */\n      add\n        /* \"#utility.yul\":720:784   */\n      tag_49\n      jump\t// in\n    tag_61:\n        /* \"#utility.yul\":710:784   */\n      swap2\n      pop\n        /* \"#utility.yul\":666:794   */\n      pop\n        /* \"#utility.yul\":450:801   */\n      swap3\n      swap2\n      pop\n      pop\n      jump\t// out\n        /* \"#utility.yul\":807:1778   */\n    tag_36:\n        /* \"#utility.yul\":910:916   */\n      0x00\n        /* \"#utility.yul\":918:924   */\n      dup1\n        /* \"#utility.yul\":926:932   */\n      0x00\n        /* \"#utility.yul\":934:940   */\n      dup1\n        /* \"#utility.yul\":942:948   */\n      0x00\n        /* \"#utility.yul\":991:994   */\n      0xa0\n        /* \"#utility.yul\":979:988   */\n      dup7\n        /* \"#utility.yul\":970:977   */\n      dup9\n        /* \"#utility.yul\":966:989   */\n      sub\n        /* \"#utility.yul\":962:995   */\n      slt\n        /* \"#utility.yul\":959:1079   */\n      iszero\n      tag_63\n      jumpi\n        /* \"#utility.yul\":998:1077   */\n      tag_64\n      tag_60\n      jump\t// in\n    tag_64:\n        /* \"#utility.yul\":959:1079   */\n    tag_63:\n        /* \"#utility.yul\":1118:1119   */\n      0x00\n        /* \"#utility.yul\":1143:1206   */\n      tag_65\n        /* \"#utility.yul\":1198:1205   */\n      dup9\n        /* \"#utility.yul\":1189:1195   */\n      dup3\n        /* \"#utility.yul\":1178:1187   */\n      dup10\n        /* \"#utility.yul\":1174:1196   */\n      add\n        /* \"#utility.yul\":1143:1206   */\n      tag_53\n      jump\t// in\n    tag_65:\n        /* \"#utility.yul\":1133:1206   */\n      swap6\n      pop\n        /* \"#utility.yul\":1089:1216   */\n      pop\n        /* \"#utility.yul\":1255:1257   */\n      0x20\n        /* \"#utility.yul\":1281:1344   */\n      tag_66\n        /* \"#utility.yul\":1336:1343   */\n      dup9\n        /* \"#utility.yul\":1327:1333   */\n      dup3\n        /* \"#utility.yul\":1316:1325   */\n      dup10\n        /* \"#utility.yul\":1312:1334   */\n      add\n        /* \"#utility.yul\":1281:1344   */\n      tag_45\n      jump\t// in\n    tag_66:\n        /* \"#utility.yul\":1271:1344   */\n      swap5\n      pop\n        /* \"#utility.yul\":1226:1354   */\n      pop\n        /* \"#utility.yul\":1393:1395   */\n      0x40\n        /* \"#utility.yul\":1419:1483   */\n      tag_67\n        /* \"#utility.yul\":1475:1482   */\n      dup9\n        /* \"#utility.yul\":1466:1472   */\n      dup3\n        /* \"#utility.yul\":1455:1464   */\n      dup10\n        /* \"#utility.yul\":1451:1473   */\n      add\n        /* \"#utility.yul\":1419:1483   */\n      tag_49\n      jump\t// in\n    tag_67:\n        /* \"#utility.yul\":1409:1483   */\n      swap4\n      pop\n        /* \"#utility.yul\":1364:1493   */\n      pop\n        /* \"#utility.yul\":1532:1534   */\n      0x60\n        /* \"#utility.yul\":1558:1622   */\n      tag_68\n        /* \"#utility.yul\":1614:1621   */\n      dup9\n        /* \"#utility.yul\":1605:1611   */\n      dup3\n        /* \"#utility.yul\":1594:1603   */\n      dup10\n        /* \"#utility.yul\":1590:1612   */\n      add\n        /* \"#utility.yul\":1558:1622   */\n      tag_49\n      jump\t// in\n    tag_68:\n        /* \"#utility.yul\":1548:1622   */\n      swap3\n      pop\n        /* \"#utility.yul\":1503:1632   */\n      pop\n        /* \"#utility.yul\":1671:1674   */\n      0x80\n        /* \"#utility.yul\":1698:1761   */\n      tag_69\n        /* \"#utility.yul\":1753:1760   */\n      dup9\n        /* \"#utility.yul\":1744:1750   */\n      dup3\n        /* \"#utility.yul\":1733:1742   */\n      dup10\n        /* \"#utility.yul\":1729:1751   */\n      add\n        /* \"#utility.yul\":1698:1761   */\n      tag_53\n      jump\t// in\n    tag_69:\n        /* \"#utility.yul\":1688:1761   */\n      swap2\n      pop\n        /* \"#utility.yul\":1642:1771   */\n      pop\n        /* \"#utility.yul\":807:1778   */\n      swap3\n      swap6\n      pop\n      swap3\n      swap6\n      swap1\n      swap4\n      pop\n      jump\t// out\n        /* \"#utility.yul\":1784:2150   */\n    tag_70:\n        /* \"#utility.yul\":1926:1929   */\n      0x00\n        /* \"#utility.yul\":1947:2014   */\n      tag_72\n        /* \"#utility.yul\":2011:2013   */\n      0x15\n        /* \"#utility.yul\":2006:2009   */\n      dup4\n        /* \"#utility.yul\":1947:2014   */\n      tag_73\n      jump\t// in\n    tag_72:\n        /* \"#utility.yul\":1940:2014   */\n      swap2\n      pop\n        /* \"#utility.yul\":2023:2116   */\n      tag_74\n        /* \"#utility.yul\":2112:2115   */\n      dup3\n        /* \"#utility.yul\":2023:2116   */\n      tag_75\n      jump\t// in\n    tag_74:\n        /* \"#utility.yul\":2141:2143   */\n      0x20\n        /* \"#utility.yul\":2136:2139   */\n      dup3\n        /* \"#utility.yul\":2132:2144   */\n      add\n        /* \"#utility.yul\":2125:2144   */\n      swap1\n      pop\n        /* \"#utility.yul\":1784:2150   */\n      swap2\n      swap1\n      pop\n      jump\t// out\n        /* \"#utility.yul\":2156:2274   */\n    tag_76:\n        /* \"#utility.yul\":2243:2267   */\n      tag_78\n        /* \"#utility.yul\":2261:2266   */\n      dup2\n        /* \"#utility.yul\":2243:2267   */\n      tag_79\n      jump\t// in\n    tag_78:\n        /* \"#utility.yul\":2238:2241   */\n      dup3\n        /* \"#utility.yul\":2231:2268   */\n      mstore\n        /* \"#utility.yul\":2156:2274   */\n      pop\n      pop\n      jump\t// out\n        /* \"#utility.yul\":2280:2699   */\n    tag_42:\n        /* \"#utility.yul\":2446:2450   */\n      0x00\n        /* \"#utility.yul\":2484:2486   */\n      0x20\n        /* \"#utility.yul\":2473:2482   */\n      dup3\n        /* \"#utility.yul\":2469:2487   */\n      add\n        /* \"#utility.yul\":2461:2487   */\n      swap1\n      pop\n        /* \"#utility.yul\":2533:2542   */\n      dup2\n        /* \"#utility.yul\":2527:2531   */\n      dup2\n        /* \"#utility.yul\":2523:2543   */\n      sub\n        /* \"#utility.yul\":2519:2520   */\n      0x00\n        /* \"#utility.yul\":2508:2517   */\n      dup4\n        /* \"#utility.yul\":2504:2521   */\n      add\n        /* \"#utility.yul\":2497:2544   */\n      mstore\n        /* \"#utility.yul\":2561:2692   */\n      tag_81\n        /* \"#utility.yul\":2687:2691   */\n      dup2\n        /* \"#utility.yul\":2561:2692   */\n      tag_70\n      jump\t// in\n    tag_81:\n        /* \"#utility.yul\":2553:2692   */\n      swap1\n      pop\n        /* \"#utility.yul\":2280:2699   */\n      swap2\n      swap1\n      pop\n      jump\t// out\n        /* \"#utility.yul\":2705:2927   */\n    tag_11:\n        /* \"#utility.yul\":2798:2802   */\n      0x00\n        /* \"#utility.yul\":2836:2838   */\n      0x20\n        /* \"#utility.yul\":2825:2834   */\n      dup3\n        /* \"#utility.yul\":2821:2839   */\n      add\n        /* \"#utility.yul\":2813:2839   */\n      swap1\n      pop\n        /* \"#utility.yul\":2849:2920   */\n      tag_83\n        /* \"#utility.yul\":2917:2918   */\n      0x00\n        /* \"#utility.yul\":2906:2915   */\n      dup4\n        /* \"#utility.yul\":2902:2919   */\n      add\n        /* \"#utility.yul\":2893:2899   */\n      dup5\n        /* \"#utility.yul\":2849:2920   */\n      tag_76\n      jump\t// in\n    tag_83:\n        /* \"#utility.yul\":2705:2927   */\n      swap3\n      swap2\n      pop\n      pop\n      jump\t// out\n        /* \"#utility.yul\":3014:3183   */\n    tag_73:\n        /* \"#utility.yul\":3098:3109   */\n      0x00\n        /* \"#utility.yul\":3132:3138   */\n      dup3\n        /* \"#utility.yul\":3127:3130   */\n      dup3\n        /* \"#utility.yul\":3120:3139   */\n      mstore\n        /* \"#utility.yul\":3172:3176   */\n      0x20\n        /* \"#utility.yul\":3167:3170   */\n      dup3\n        /* \"#utility.yul\":3163:3177   */\n      add\n        /* \"#utility.yul\":3148:3177   */\n      swap1\n      pop\n        /* \"#utility.yul\":3014:3183   */\n      swap3\n      swap2\n      pop\n      pop\n      jump\t// out\n        /* \"#utility.yul\":3189:4180   */\n    tag_38:\n        /* \"#utility.yul\":3228:3235   */\n      0x00\n        /* \"#utility.yul\":3251:3270   */\n      tag_88\n        /* \"#utility.yul\":3268:3269   */\n      dup3\n        /* \"#utility.yul\":3251:3270   */\n      tag_89\n      jump\t// in\n    tag_88:\n        /* \"#utility.yul\":3246:3270   */\n      swap2\n      pop\n        /* \"#utility.yul\":3284:3303   */\n      tag_90\n        /* \"#utility.yul\":3301:3302   */\n      dup4\n        /* \"#utility.yul\":3284:3303   */\n      tag_89\n      jump\t// in\n    tag_90:\n        /* \"#utility.yul\":3279:3303   */\n      swap3\n      pop\n        /* \"#utility.yul\":3485:3486   */\n      dup3\n        /* \"#utility.yul\":3417:3483   */\n      0x7fffffffffffffffffffffffffffffffffffffffffffffffffffffffffffffff\n        /* \"#utility.yul\":3413:3487   */\n      div\n        /* \"#utility.yul\":3410:3411   */\n      dup3\n        /* \"#utility.yul\":3407:3488   */\n      gt\n        /* \"#utility.yul\":3402:3403   */\n      0x00\n        /* \"#utility.yul\":3399:3400   */\n      dup5\n        /* \"#utility.yul\":3395:3404   */\n      sgt\n        /* \"#utility.yul\":3391:3392   */\n      0x00\n        /* \"#utility.yul\":3388:3389   */\n      dup5\n        /* \"#utility.yul\":3384:3393   */\n      sgt\n        /* \"#utility.yul\":3380:3405   */\n      and\n        /* \"#utility.yul\":3376:3489   */\n      and\n        /* \"#utility.yul\":3373:3512   */\n      iszero\n      tag_91\n      jumpi\n        /* \"#utility.yul\":3492:3510   */\n      tag_92\n      tag_93\n      jump\t// in\n    tag_92:\n        /* \"#utility.yul\":3373:3512   */\n    tag_91:\n        /* \"#utility.yul\":3696:3697   */\n      dup2\n        /* \"#utility.yul\":3628:3694   */\n      0x8000000000000000000000000000000000000000000000000000000000000000\n        /* \"#utility.yul\":3623:3698   */\n      sdiv\n        /* \"#utility.yul\":3620:3621   */\n      dup4\n        /* \"#utility.yul\":3616:3699   */\n      slt\n        /* \"#utility.yul\":3611:3612   */\n      0x00\n        /* \"#utility.yul\":3608:3609   */\n      dup5\n        /* \"#utility.yul\":3604:3613   */\n      slt\n        /* \"#utility.yul\":3600:3601   */\n      0x00\n        /* \"#utility.yul\":3597:3598   */\n      dup5\n        /* \"#utility.yul\":3593:3602   */\n      sgt\n        /* \"#utility.yul\":3589:3614   */\n      and\n        /* \"#utility.yul\":3585:3700   */\n      and\n        /* \"#utility.yul\":3582:3723   */\n      iszero\n      tag_94\n      jumpi\n        /* \"#utility.yul\":3703:3721   */\n      tag_95\n      tag_93\n      jump\t// in\n    tag_95:\n        /* \"#utility.yul\":3582:3723   */\n    tag_94:\n        /* \"#utility.yul\":3907:3908   */\n      dup3\n        /* \"#utility.yul\":3839:3905   */\n      0x8000000000000000000000000000000000000000000000000000000000000000\n        /* \"#utility.yul\":3834:3909   */\n      sdiv\n        /* \"#utility.yul\":3831:3832   */\n      dup3\n        /* \"#utility.yul\":3827:3910   */\n      slt\n        /* \"#utility.yul\":3822:3823   */\n      0x00\n        /* \"#utility.yul\":3819:3820   */\n      dup5\n        /* \"#utility.yul\":3815:3824   */\n      sgt\n        /* \"#utility.yul\":3811:3812   */\n      0x00\n        /* \"#utility.yul\":3808:3809   */\n      dup5\n        /* \"#utility.yul\":3804:3813   */\n      slt\n        /* \"#utility.yul\":3800:3825   */\n      and\n        /* \"#utility.yul\":3796:3911   */\n      and\n        /* \"#utility.yul\":3793:3934   */\n      iszero\n      tag_96\n      jumpi\n        /* \"#utility.yul\":3914:3932   */\n      tag_97\n      tag_93\n      jump\t// in\n    tag_97:\n        /* \"#utility.yul\":3793:3934   */\n    tag_96:\n        /* \"#utility.yul\":4117:4118   */\n      dup3\n        /* \"#utility.yul\":4049:4115   */\n      0x7fffffffffffffffffffffffffffffffffffffffffffffffffffffffffffffff\n        /* \"#utility.yul\":4044:4119   */\n      sdiv\n        /* \"#utility.yul\":4041:4042   */\n      dup3\n        /* \"#utility.yul\":4037:4120   */\n      slt\n        /* \"#utility.yul\":4032:4033   */\n      0x00\n        /* \"#utility.yul\":4029:4030   */\n      dup5\n        /* \"#utility.yul\":4025:4034   */\n      slt\n        /* \"#utility.yul\":4021:4022   */\n      0x00\n        /* \"#utility.yul\":4018:4019   */\n      dup5\n        /* \"#utility.yul\":4014:4023   */\n      slt\n        /* \"#utility.yul\":4010:4035   */\n      and\n        /* \"#utility.yul\":4006:4121   */\n      and\n        /* \"#utility.yul\":4003:4144   */\n      iszero\n      tag_98\n      jumpi\n        /* \"#utility.yul\":4124:4142   */\n      tag_99\n      tag_93\n      jump\t// in\n    tag_99:\n        /* \"#utility.yul\":4003:4144   */\n    tag_98:\n        /* \"#utility.yul\":4172:4173   */\n      dup3\n        /* \"#utility.yul\":4169:4170   */\n      dup3\n        /* \"#utility.yul\":4165:4174   */\n      mul\n        /* \"#utility.yul\":4154:4174   */\n      swap1\n      pop\n        /* \"#utility.yul\":3189:4180   */\n      swap3\n      swap2\n      pop\n      pop\n      jump\t// out\n        /* \"#utility.yul\":4186:4262   */\n    tag_89:\n        /* \"#utility.yul\":4222:4229   */\n      0x00\n        /* \"#utility.yul\":4251:4256   */\n      dup2\n        /* \"#utility.yul\":4240:4256   */\n      swap1\n      pop\n        /* \"#utility.yul\":4186:4262   */\n      swap2\n      swap1\n      pop\n      jump\t// out\n        /* \"#utility.yul\":4268:4345   */\n    tag_79:\n        /* \"#utility.yul\":4305:4312   */\n      0x00\n        /* \"#utility.yul\":4334:4339   */\n      dup2\n        /* \"#utility.yul\":4323:4339   */\n      swap1\n      pop\n        /* \"#utility.yul\":4268:4345   */\n      swap2\n      swap1\n      pop\n      jump\t// out\n        /* \"#utility.yul\":4351:4456   */\n    tag_102:\n        /* \"#utility.yul\":4387:4394   */\n      0x00\n        /* \"#utility.yul\":4427:4449   */\n      0xffffffffffffffffffff\n        /* \"#utility.yul\":4420:4425   */\n      dup3\n        /* \"#utility.yul\":4416:4450   */\n      and\n        /* \"#utility.yul\":4405:4450   */\n      swap1\n      pop\n        /* \"#utility.yul\":4351:4456   */\n      swap2\n      swap1\n      pop\n      jump\t// out\n        /* \"#utility.yul\":4462:4642   */\n    tag_93:\n        /* \"#utility.yul\":4510:4587   */\n      0x4e487b7100000000000000000000000000000000000000000000000000000000\n        /* \"#utility.yul\":4507:4508   */\n      0x00\n        /* \"#utility.yul\":4500:4588   */\n      mstore\n        /* \"#utility.yul\":4607:4611   */\n      0x11\n        /* \"#utility.yul\":4604:4605   */\n      0x04\n        /* \"#utility.yul\":4597:4612   */\n      mstore\n        /* \"#utility.yul\":4631:4635   */\n      0x24\n        /* \"#utility.yul\":4628:4629   */\n      0x00\n        /* \"#utility.yul\":4621:4636   */\n      revert\n        /* \"#utility.yul\":4771:4888   */\n    tag_60:\n        /* \"#utility.yul\":4880:4881   */\n      0x00\n        /* \"#utility.yul\":4877:4878   */\n      dup1\n        /* \"#utility.yul\":4870:4882   */\n      revert\n        /* \"#utility.yul\":4894:5065   */\n    tag_75:\n        /* \"#utility.yul\":5034:5057   */\n      0x4469646e27742073656e6420656e6f7567682021210000000000000000000000\n        /* \"#utility.yul\":5030:5031   */\n      0x00\n        /* \"#utility.yul\":5022:5028   */\n      dup3\n        /* \"#utility.yul\":5018:5032   */\n      add\n        /* \"#utility.yul\":5011:5058   */\n      mstore\n        /* \"#utility.yul\":4894:5065   */\n      pop\n      jump\t// out\n        /* \"#utility.yul\":5071:5191   */\n    tag_48:\n        /* \"#utility.yul\":5143:5166   */\n      tag_110\n        /* \"#utility.yul\":5160:5165   */\n      dup2\n        /* \"#utility.yul\":5143:5166   */\n      tag_89\n      jump\t// in\n    tag_110:\n        /* \"#utility.yul\":5136:5141   */\n      dup2\n        /* \"#utility.yul\":5133:5167   */\n      eq\n        /* \"#utility.yul\":5123:5185   */\n      tag_111\n      jumpi\n        /* \"#utility.yul\":5181:5182   */\n      0x00\n        /* \"#utility.yul\":5178:5179   */\n      dup1\n        /* \"#utility.yul\":5171:5183   */\n      revert\n        /* \"#utility.yul\":5123:5185   */\n    tag_111:\n        /* \"#utility.yul\":5071:5191   */\n      pop\n      jump\t// out\n        /* \"#utility.yul\":5197:5319   */\n    tag_52:\n        /* \"#utility.yul\":5270:5294   */\n      tag_113\n        /* \"#utility.yul\":5288:5293   */\n      dup2\n        /* \"#utility.yul\":5270:5294   */\n      tag_79\n      jump\t// in\n    tag_113:\n        /* \"#utility.yul\":5263:5268   */\n      dup2\n        /* \"#utility.yul\":5260:5295   */\n      eq\n        /* \"#utility.yul\":5250:5313   */\n      tag_114\n      jumpi\n        /* \"#utility.yul\":5309:5310   */\n      0x00\n        /* \"#utility.yul\":5306:5307   */\n      dup1\n        /* \"#utility.yul\":5299:5311   */\n      revert\n        /* \"#utility.yul\":5250:5313   */\n    tag_114:\n        /* \"#utility.yul\":5197:5319   */\n      pop\n      jump\t// out\n        /* \"#utility.yul\":5325:5445   */\n    tag_56:\n        /* \"#utility.yul\":5397:5420   */\n      tag_116\n        /* \"#utility.yul\":5414:5419   */\n      dup2\n        /* \"#utility.yul\":5397:5420   */\n      tag_102\n      jump\t// in\n    tag_116:\n        /* \"#utility.yul\":5390:5395   */\n      dup2\n        /* \"#utility.yul\":5387:5421   */\n      eq\n        /* \"#utility.yul\":5377:5439   */\n      tag_117\n      jumpi\n        /* \"#utility.yul\":5435:5436   */\n      0x00\n        /* \"#utility.yul\":5432:5433   */\n      dup1\n        /* \"#utility.yul\":5425:5437   */\n      revert\n        /* \"#utility.yul\":5377:5439   */\n    tag_117:\n        /* \"#utility.yul\":5325:5445   */\n      pop\n      jump\t// out\n\n    auxdata: 0xa26469706673582212206a6885936b2c22b9f27c447f6e6aa16e3f560c77c50e3809d5714de0b5e239c364736f6c63430008070033\n}\n",
				"bytecode": {
					"linkReferences": {},
					"object": "6080604052603260005534801561001557600080fd5b50610614806100256000396000f3fe60806040526004361061004a5760003560e01c80630d8e6e2c1461004f5780633430a88c1461007a57806398d5fdca146100a5578063b60d4288146100d0578063f36089ec146100da575b600080fd5b34801561005b57600080fd5b506100646100f1565b60405161007191906103cf565b60405180910390f35b34801561008657600080fd5b5061008f61018f565b60405161009c91906103cf565b60405180910390f35b3480156100b157600080fd5b506100ba610195565b6040516100c791906103cf565b60405180910390f35b6100d861024d565b005b3480156100e657600080fd5b506100ef610294565b005b60008073d4a33860578de61dbabdc8bfdb98fd742fa7028e90508073ffffffffffffffffffffffffffffffffffffffff166354fd4d506040518163ffffffff1660e01b815260040160206040518083038186803b15801561015157600080fd5b505afa158015610165573d6000803e3d6000fd5b505050506040513d601f19601f8201168201806040525081019061018991906102d5565b91505090565b60005481565b60008073d4a33860578de61dbabdc8bfdb98fd742fa7028e905060008173ffffffffffffffffffffffffffffffffffffffff1663feaf968c6040518163ffffffff1660e01b815260040160a06040518083038186803b1580156101f757600080fd5b505afa15801561020b573d6000803e3d6000fd5b505050506040513d601f19601f8201168201806040525081019061022f9190610302565b5050509150506402540be4008161024691906103fb565b9250505090565b600054341015610292576040517f08c379a0000000000000000000000000000000000000000000000000000000008152600401610289906103af565b60405180910390fd5b565b565b6000815190506102a581610599565b92915050565b6000815190506102ba816105b0565b92915050565b6000815190506102cf816105c7565b92915050565b6000602082840312156102eb576102ea61056b565b5b60006102f9848285016102ab565b91505092915050565b600080600080600060a0868803121561031e5761031d61056b565b5b600061032c888289016102c0565b955050602061033d88828901610296565b945050604061034e888289016102ab565b935050606061035f888289016102ab565b9250506080610370888289016102c0565b9150509295509295909350565b600061038a6015836103ea565b915061039582610570565b602082019050919050565b6103a98161051c565b82525050565b600060208201905081810360008301526103c88161037d565b9050919050565b60006020820190506103e460008301846103a0565b92915050565b600082825260208201905092915050565b600061040682610512565b915061041183610512565b9250827f7fffffffffffffffffffffffffffffffffffffffffffffffffffffffffffffff04821160008413600084131616156104505761044f61053c565b5b817f8000000000000000000000000000000000000000000000000000000000000000058312600084126000841316161561048d5761048c61053c565b5b827f800000000000000000000000000000000000000000000000000000000000000005821260008413600084121616156104ca576104c961053c565b5b827f7fffffffffffffffffffffffffffffffffffffffffffffffffffffffffffffff05821260008412600084121616156105075761050661053c565b5b828202905092915050565b6000819050919050565b6000819050919050565b600069ffffffffffffffffffff82169050919050565b7f4e487b7100000000000000000000000000000000000000000000000000000000600052601160045260246000fd5b600080fd5b7f4469646e27742073656e6420656e6f7567682021210000000000000000000000600082015250565b6105a281610512565b81146105ad57600080fd5b50565b6105b98161051c565b81146105c457600080fd5b50565b6105d081610526565b81146105db57600080fd5b5056fea26469706673582212206a6885936b2c22b9f27c447f6e6aa16e3f560c77c50e3809d5714de0b5e239c364736f6c63430008070033",
					"opcodes": "PUSH1 0x80 PUSH1 0x40 MSTORE PUSH1 0x32 PUSH1 0x0 SSTORE CALLVALUE DUP1 ISZERO PUSH2 0x15 JUMPI PUSH1 0x0 DUP1 REVERT JUMPDEST POP PUSH2 0x614 DUP1 PUSH2 0x25 PUSH1 0x0 CODECOPY PUSH1 0x0 RETURN INVALID PUSH1 0x80 PUSH1 0x40 MSTORE PUSH1 0x4 CALLDATASIZE LT PUSH2 0x4A JUMPI PUSH1 0x0 CALLDATALOAD PUSH1 0xE0 SHR DUP1 PUSH4 0xD8E6E2C EQ PUSH2 0x4F JUMPI DUP1 PUSH4 0x3430A88C EQ PUSH2 0x7A JUMPI DUP1 PUSH4 0x98D5FDCA EQ PUSH2 0xA5 JUMPI DUP1 PUSH4 0xB60D4288 EQ PUSH2 0xD0 JUMPI DUP1 PUSH4 0xF36089EC EQ PUSH2 0xDA JUMPI JUMPDEST PUSH1 0x0 DUP1 REVERT JUMPDEST CALLVALUE DUP1 ISZERO PUSH2 0x5B JUMPI PUSH1 0x0 DUP1 REVERT JUMPDEST POP PUSH2 0x64 PUSH2 0xF1 JUMP JUMPDEST PUSH1 0x40 MLOAD PUSH2 0x71 SWAP2 SWAP1 PUSH2 0x3CF JUMP JUMPDEST PUSH1 0x40 MLOAD DUP1 SWAP2 SUB SWAP1 RETURN JUMPDEST CALLVALUE DUP1 ISZERO PUSH2 0x86 JUMPI PUSH1 0x0 DUP1 REVERT JUMPDEST POP PUSH2 0x8F PUSH2 0x18F JUMP JUMPDEST PUSH1 0x40 MLOAD PUSH2 0x9C SWAP2 SWAP1 PUSH2 0x3CF JUMP JUMPDEST PUSH1 0x40 MLOAD DUP1 SWAP2 SUB SWAP1 RETURN JUMPDEST CALLVALUE DUP1 ISZERO PUSH2 0xB1 JUMPI PUSH1 0x0 DUP1 REVERT JUMPDEST POP PUSH2 0xBA PUSH2 0x195 JUMP JUMPDEST PUSH1 0x40 MLOAD PUSH2 0xC7 SWAP2 SWAP1 PUSH2 0x3CF JUMP JUMPDEST PUSH1 0x40 MLOAD DUP1 SWAP2 SUB SWAP1 RETURN JUMPDEST PUSH2 0xD8 PUSH2 0x24D JUMP JUMPDEST STOP JUMPDEST CALLVALUE DUP1 ISZERO PUSH2 0xE6 JUMPI PUSH1 0x0 DUP1 REVERT JUMPDEST POP PUSH2 0xEF PUSH2 0x294 JUMP JUMPDEST STOP JUMPDEST PUSH1 0x0 DUP1 PUSH20 0xD4A33860578DE61DBABDC8BFDB98FD742FA7028E SWAP1 POP DUP1 PUSH20 0xFFFFFFFFFFFFFFFFFFFFFFFFFFFFFFFFFFFFFFFF AND PUSH4 0x54FD4D50 PUSH1 0x40 MLOAD DUP2 PUSH4 0xFFFFFFFF AND PUSH1 0xE0 SHL DUP2 MSTORE PUSH1 0x4 ADD PUSH1 0x20 PUSH1 0x40 MLOAD DUP1 DUP4 SUB DUP2 DUP7 DUP1 EXTCODESIZE ISZERO DUP1 ISZERO PUSH2 0x151 JUMPI PUSH1 0x0 DUP1 REVERT JUMPDEST POP GAS STATICCALL ISZERO DUP1 ISZERO PUSH2 0x165 JUMPI RETURNDATASIZE PUSH1 0x0 DUP1 RETURNDATACOPY RETURNDATASIZE PUSH1 0x0 REVERT JUMPDEST POP POP POP POP PUSH1 0x40 MLOAD RETURNDATASIZE PUSH1 0x1F NOT PUSH1 0x1F DUP3 ADD AND DUP3 ADD DUP1 PUSH1 0x40 MSTORE POP DUP2 ADD SWAP1 PUSH2 0x189 SWAP2 SWAP1 PUSH2 0x2D5 JUMP JUMPDEST SWAP2 POP POP SWAP1 JUMP JUMPDEST PUSH1 0x0 SLOAD DUP2 JUMP JUMPDEST PUSH1 0x0 DUP1 PUSH20 0xD4A33860578DE61DBABDC8BFDB98FD742FA7028E SWAP1 POP PUSH1 0x0 DUP2 PUSH20 0xFFFFFFFFFFFFFFFFFFFFFFFFFFFFFFFFFFFFFFFF AND PUSH4 0xFEAF968C PUSH1 0x40 MLOAD DUP2 PUSH4 0xFFFFFFFF AND PUSH1 0xE0 SHL DUP2 MSTORE PUSH1 0x4 ADD PUSH1 0xA0 PUSH1 0x40 MLOAD DUP1 DUP4 SUB DUP2 DUP7 DUP1 EXTCODESIZE ISZERO DUP1 ISZERO PUSH2 0x1F7 JUMPI PUSH1 0x0 DUP1 REVERT JUMPDEST POP GAS STATICCALL ISZERO DUP1 ISZERO PUSH2 0x20B JUMPI RETURNDATASIZE PUSH1 0x0 DUP1 RETURNDATACOPY RETURNDATASIZE PUSH1 0x0 REVERT JUMPDEST POP POP POP POP PUSH1 0x40 MLOAD RETURNDATASIZE PUSH1 0x1F NOT PUSH1 0x1F DUP3 ADD AND DUP3 ADD DUP1 PUSH1 0x40 MSTORE POP DUP2 ADD SWAP1 PUSH2 0x22F SWAP2 SWAP1 PUSH2 0x302 JUMP JUMPDEST POP POP POP SWAP2 POP POP PUSH5 0x2540BE400 DUP2 PUSH2 0x246 SWAP2 SWAP1 PUSH2 0x3FB JUMP JUMPDEST SWAP3 POP POP POP SWAP1 JUMP JUMPDEST PUSH1 0x0 SLOAD CALLVALUE LT ISZERO PUSH2 0x292 JUMPI PUSH1 0x40 MLOAD PUSH32 0x8C379A000000000000000000000000000000000000000000000000000000000 DUP2 MSTORE PUSH1 0x4 ADD PUSH2 0x289 SWAP1 PUSH2 0x3AF JUMP JUMPDEST PUSH1 0x40 MLOAD DUP1 SWAP2 SUB SWAP1 REVERT JUMPDEST JUMP JUMPDEST JUMP JUMPDEST PUSH1 0x0 DUP2 MLOAD SWAP1 POP PUSH2 0x2A5 DUP2 PUSH2 0x599 JUMP JUMPDEST SWAP3 SWAP2 POP POP JUMP JUMPDEST PUSH1 0x0 DUP2 MLOAD SWAP1 POP PUSH2 0x2BA DUP2 PUSH2 0x5B0 JUMP JUMPDEST SWAP3 SWAP2 POP POP JUMP JUMPDEST PUSH1 0x0 DUP2 MLOAD SWAP1 POP PUSH2 0x2CF DUP2 PUSH2 0x5C7 JUMP JUMPDEST SWAP3 SWAP2 POP POP JUMP JUMPDEST PUSH1 0x0 PUSH1 0x20 DUP3 DUP5 SUB SLT ISZERO PUSH2 0x2EB JUMPI PUSH2 0x2EA PUSH2 0x56B JUMP JUMPDEST JUMPDEST PUSH1 0x0 PUSH2 0x2F9 DUP5 DUP3 DUP6 ADD PUSH2 0x2AB JUMP JUMPDEST SWAP2 POP POP SWAP3 SWAP2 POP POP JUMP JUMPDEST PUSH1 0x0 DUP1 PUSH1 0x0 DUP1 PUSH1 0x0 PUSH1 0xA0 DUP7 DUP9 SUB SLT ISZERO PUSH2 0x31E JUMPI PUSH2 0x31D PUSH2 0x56B JUMP JUMPDEST JUMPDEST PUSH1 0x0 PUSH2 0x32C DUP9 DUP3 DUP10 ADD PUSH2 0x2C0 JUMP JUMPDEST SWAP6 POP POP PUSH1 0x20 PUSH2 0x33D DUP9 DUP3 DUP10 ADD PUSH2 0x296 JUMP JUMPDEST SWAP5 POP POP PUSH1 0x40 PUSH2 0x34E DUP9 DUP3 DUP10 ADD PUSH2 0x2AB JUMP JUMPDEST SWAP4 POP POP PUSH1 0x60 PUSH2 0x35F DUP9 DUP3 DUP10 ADD PUSH2 0x2AB JUMP JUMPDEST SWAP3 POP POP PUSH1 0x80 PUSH2 0x370 DUP9 DUP3 DUP10 ADD PUSH2 0x2C0 JUMP JUMPDEST SWAP2 POP POP SWAP3 SWAP6 POP SWAP3 SWAP6 SWAP1 SWAP4 POP JUMP JUMPDEST PUSH1 0x0 PUSH2 0x38A PUSH1 0x15 DUP4 PUSH2 0x3EA JUMP JUMPDEST SWAP2 POP PUSH2 0x395 DUP3 PUSH2 0x570 JUMP JUMPDEST PUSH1 0x20 DUP3 ADD SWAP1 POP SWAP2 SWAP1 POP JUMP JUMPDEST PUSH2 0x3A9 DUP2 PUSH2 0x51C JUMP JUMPDEST DUP3 MSTORE POP POP JUMP JUMPDEST PUSH1 0x0 PUSH1 0x20 DUP3 ADD SWAP1 POP DUP2 DUP2 SUB PUSH1 0x0 DUP4 ADD MSTORE PUSH2 0x3C8 DUP2 PUSH2 0x37D JUMP JUMPDEST SWAP1 POP SWAP2 SWAP1 POP JUMP JUMPDEST PUSH1 0x0 PUSH1 0x20 DUP3 ADD SWAP1 POP PUSH2 0x3E4 PUSH1 0x0 DUP4 ADD DUP5 PUSH2 0x3A0 JUMP JUMPDEST SWAP3 SWAP2 POP POP JUMP JUMPDEST PUSH1 0x0 DUP3 DUP3 MSTORE PUSH1 0x20 DUP3 ADD SWAP1 POP SWAP3 SWAP2 POP POP JUMP JUMPDEST PUSH1 0x0 PUSH2 0x406 DUP3 PUSH2 0x512 JUMP JUMPDEST SWAP2 POP PUSH2 0x411 DUP4 PUSH2 0x512 JUMP JUMPDEST SWAP3 POP DUP3 PUSH32 0x7FFFFFFFFFFFFFFFFFFFFFFFFFFFFFFFFFFFFFFFFFFFFFFFFFFFFFFFFFFFFFFF DIV DUP3 GT PUSH1 0x0 DUP5 SGT PUSH1 0x0 DUP5 SGT AND AND ISZERO PUSH2 0x450 JUMPI PUSH2 0x44F PUSH2 0x53C JUMP JUMPDEST JUMPDEST DUP2 PUSH32 0x8000000000000000000000000000000000000000000000000000000000000000 SDIV DUP4 SLT PUSH1 0x0 DUP5 SLT PUSH1 0x0 DUP5 SGT AND AND ISZERO PUSH2 0x48D JUMPI PUSH2 0x48C PUSH2 0x53C JUMP JUMPDEST JUMPDEST DUP3 PUSH32 0x8000000000000000000000000000000000000000000000000000000000000000 SDIV DUP3 SLT PUSH1 0x0 DUP5 SGT PUSH1 0x0 DUP5 SLT AND AND ISZERO PUSH2 0x4CA JUMPI PUSH2 0x4C9 PUSH2 0x53C JUMP JUMPDEST JUMPDEST DUP3 PUSH32 0x7FFFFFFFFFFFFFFFFFFFFFFFFFFFFFFFFFFFFFFFFFFFFFFFFFFFFFFFFFFFFFFF SDIV DUP3 SLT PUSH1 0x0 DUP5 SLT PUSH1 0x0 DUP5 SLT AND AND ISZERO PUSH2 0x507 JUMPI PUSH2 0x506 PUSH2 0x53C JUMP JUMPDEST JUMPDEST DUP3 DUP3 MUL SWAP1 POP SWAP3 SWAP2 POP POP JUMP JUMPDEST PUSH1 0x0 DUP2 SWAP1 POP SWAP2 SWAP1 POP JUMP JUMPDEST PUSH1 0x0 DUP2 SWAP1 POP SWAP2 SWAP1 POP JUMP JUMPDEST PUSH1 0x0 PUSH10 0xFFFFFFFFFFFFFFFFFFFF DUP3 AND SWAP1 POP SWAP2 SWAP1 POP JUMP JUMPDEST PUSH32 0x4E487B7100000000000000000000000000000000000000000000000000000000 PUSH1 0x0 MSTORE PUSH1 0x11 PUSH1 0x4 MSTORE PUSH1 0x24 PUSH1 0x0 REVERT JUMPDEST PUSH1 0x0 DUP1 REVERT JUMPDEST PUSH32 0x4469646E27742073656E6420656E6F7567682021210000000000000000000000 PUSH1 0x0 DUP3 ADD MSTORE POP JUMP JUMPDEST PUSH2 0x5A2 DUP2 PUSH2 0x512 JUMP JUMPDEST DUP2 EQ PUSH2 0x5AD JUMPI PUSH1 0x0 DUP1 REVERT JUMPDEST POP JUMP JUMPDEST PUSH2 0x5B9 DUP2 PUSH2 0x51C JUMP JUMPDEST DUP2 EQ PUSH2 0x5C4 JUMPI PUSH1 0x0 DUP1 REVERT JUMPDEST POP JUMP JUMPDEST PUSH2 0x5D0 DUP2 PUSH2 0x526 JUMP JUMPDEST DUP2 EQ PUSH2 0x5DB JUMPI PUSH1 0x0 DUP1 REVERT JUMPDEST POP JUMP INVALID LOG2 PUSH5 0x6970667358 0x22 SLT KECCAK256 PUSH11 0x6885936B2C22B9F27C447F PUSH15 0x6AA16E3F560C77C50E3809D5714DE0 0xB5 0xE2 CODECOPY 0xC3 PUSH5 0x736F6C6343 STOP ADDMOD SMOD STOP CALLER "
				},
				"gasEstimates": {
					"creation": {
						"codeDepositCost": "311200",
						"executionCost": "22455",
						"totalCost": "333655"
					},
					"external": {
						"fund()": "2578",
						"getConversionRate()": "210",
						"getPrice()": "infinite",
						"getVersion()": "infinite",
						"minimumUSD()": "2429"
					}
				},
				"methodIdentifiers": {
					"fund()": "b60d4288",
					"getConversionRate()": "f36089ec",
					"getPrice()": "98d5fdca",
					"getVersion()": "0d8e6e2c",
					"minimumUSD()": "3430a88c"
				}
			},
			"storageLayout": {
				"storage": [
					{
						"astId": 51,
						"contract": "contracts/FundMe.sol:FundMe",
						"label": "minimumUSD",
						"offset": 0,
						"slot": "0",
						"type": "t_uint256"
					}
				],
				"types": {
					"t_uint256": {
						"encoding": "inplace",
						"label": "uint256",
						"numberOfBytes": "32"
					}
				}
			},
			"userdoc": {
				"kind": "user",
				"methods": {},
				"version": 1
			}
		}
	}
}