{
	"contracts/NewFundMe.sol": {
		"NewFundMe": {
			"abi": [
				{
					"inputs": [
						{
							"internalType": "address",
							"name": "",
							"type": "address"
						}
					],
					"name": "addressToAmountFunded",
					"outputs": [
						{
							"internalType": "uint256",
							"name": "",
							"type": "uint256"
						}
					],
					"stateMutability": "view",
					"type": "function"
				},
				{
					"inputs": [],
					"name": "fund",
					"outputs": [],
					"stateMutability": "payable",
					"type": "function"
				},
				{
					"inputs": [
						{
							"internalType": "uint256",
							"name": "",
							"type": "uint256"
						}
					],
					"name": "funders",
					"outputs": [
						{
							"internalType": "address",
							"name": "",
							"type": "address"
						}
					],
					"stateMutability": "view",
					"type": "function"
				},
				{
					"inputs": [],
					"name": "minimumUSD",
					"outputs": [
						{
							"internalType": "uint256",
							"name": "",
							"type": "uint256"
						}
					],
					"stateMutability": "view",
					"type": "function"
				},
				{
					"inputs": [],
					"name": "withdraw",
					"outputs": [],
					"stateMutability": "payable",
					"type": "function"
				}
			],
			"devdoc": {
				"kind": "dev",
				"methods": {},
				"version": 1
			},
			"evm": {
				"assembly": "    /* \"contracts/NewFundMe.sol\":100:1040  contract NewFundMe{\r... */\n  mstore(0x40, 0x80)\n    /* \"contracts/NewFundMe.sol\":199:208  10 * 1e18 */\n  0x8ac7230489e80000\n    /* \"contracts/NewFundMe.sol\":171:208  uint256 public minimumUSD = 10 * 1e18 */\n  0x00\n  sstore\n    /* \"contracts/NewFundMe.sol\":100:1040  contract NewFundMe{\r... */\n  callvalue\n  dup1\n  iszero\n  tag_1\n  jumpi\n  0x00\n  dup1\n  revert\ntag_1:\n  pop\n  dataSize(sub_0)\n  dup1\n  dataOffset(sub_0)\n  0x00\n  codecopy\n  0x00\n  return\nstop\n\nsub_0: assembly {\n        /* \"contracts/NewFundMe.sol\":100:1040  contract NewFundMe{\r... */\n      mstore(0x40, 0x80)\n      jumpi(tag_1, lt(calldatasize, 0x04))\n      shr(0xe0, calldataload(0x00))\n      dup1\n      0x3430a88c\n      eq\n      tag_2\n      jumpi\n      dup1\n      0x3ccfd60b\n      eq\n      tag_3\n      jumpi\n      dup1\n      0x3e47d6f3\n      eq\n      tag_4\n      jumpi\n      dup1\n      0xb60d4288\n      eq\n      tag_5\n      jumpi\n      dup1\n      0xdc0d3dff\n      eq\n      tag_6\n      jumpi\n    tag_1:\n      0x00\n      dup1\n      revert\n        /* \"contracts/NewFundMe.sol\":171:208  uint256 public minimumUSD = 10 * 1e18 */\n    tag_2:\n      callvalue\n      dup1\n      iszero\n      tag_7\n      jumpi\n      0x00\n      dup1\n      revert\n    tag_7:\n      pop\n      tag_8\n      tag_9\n      jump\t// in\n    tag_8:\n      mload(0x40)\n      tag_10\n      swap2\n      swap1\n      tag_11\n      jump\t// in\n    tag_10:\n      mload(0x40)\n      dup1\n      swap2\n      sub\n      swap1\n      return\n        /* \"contracts/NewFundMe.sol\":535:1037  function withdraw() public payable {\r... */\n    tag_3:\n      tag_12\n      tag_13\n      jump\t// in\n    tag_12:\n      stop\n        /* \"contracts/NewFundMe.sol\":246:302  mapping(address => uint256) public addressToAmountFunded */\n    tag_4:\n      callvalue\n      dup1\n      iszero\n      tag_14\n      jumpi\n      0x00\n      dup1\n      revert\n    tag_14:\n      pop\n      tag_15\n      0x04\n      dup1\n      calldatasize\n      sub\n      dup2\n      add\n      swap1\n      tag_16\n      swap2\n      swap1\n      tag_17\n      jump\t// in\n    tag_16:\n      tag_18\n      jump\t// in\n    tag_15:\n      mload(0x40)\n      tag_19\n      swap2\n      swap1\n      tag_11\n      jump\t// in\n    tag_19:\n      mload(0x40)\n      dup1\n      swap2\n      sub\n      swap1\n      return\n        /* \"contracts/NewFundMe.sol\":311:527  function fund() public payable {\r... */\n    tag_5:\n      tag_20\n      tag_21\n      jump\t// in\n    tag_20:\n      stop\n        /* \"contracts/NewFundMe.sol\":215:239  address[] public funders */\n    tag_6:\n      callvalue\n      dup1\n      iszero\n      tag_22\n      jumpi\n      0x00\n      dup1\n      revert\n    tag_22:\n      pop\n      tag_23\n      0x04\n      dup1\n      calldatasize\n      sub\n      dup2\n      add\n      swap1\n      tag_24\n      swap2\n      swap1\n      tag_25\n      jump\t// in\n    tag_24:\n      tag_26\n      jump\t// in\n    tag_23:\n      mload(0x40)\n      tag_27\n      swap2\n      swap1\n      tag_28\n      jump\t// in\n    tag_27:\n      mload(0x40)\n      dup1\n      swap2\n      sub\n      swap1\n      return\n        /* \"contracts/NewFundMe.sol\":171:208  uint256 public minimumUSD = 10 * 1e18 */\n    tag_9:\n      sload(0x00)\n      dup2\n      jump\t// out\n        /* \"contracts/NewFundMe.sol\":535:1037  function withdraw() public payable {\r... */\n    tag_13:\n        /* \"contracts/NewFundMe.sol\":613:632  uint256 funderIndex */\n      0x00\n        /* \"contracts/NewFundMe.sol\":608:793  for (uint256 funderIndex = 0; funderIndex < funders.length; funderIndex++ ){\r... */\n    tag_30:\n        /* \"contracts/NewFundMe.sol\":652:659  funders */\n      0x01\n        /* \"contracts/NewFundMe.sol\":652:666  funders.length */\n      dup1\n      sload\n      swap1\n      pop\n        /* \"contracts/NewFundMe.sol\":638:649  funderIndex */\n      dup2\n        /* \"contracts/NewFundMe.sol\":638:666  funderIndex < funders.length */\n      lt\n        /* \"contracts/NewFundMe.sol\":608:793  for (uint256 funderIndex = 0; funderIndex < funders.length; funderIndex++ ){\r... */\n      iszero\n      tag_31\n      jumpi\n        /* \"contracts/NewFundMe.sol\":698:712  address funder */\n      0x00\n        /* \"contracts/NewFundMe.sol\":715:722  funders */\n      0x01\n        /* \"contracts/NewFundMe.sol\":723:734  funderIndex */\n      dup3\n        /* \"contracts/NewFundMe.sol\":715:735  funders[funderIndex] */\n      dup2\n      sload\n      dup2\n      lt\n      tag_33\n      jumpi\n      tag_34\n      tag_35\n      jump\t// in\n    tag_34:\n    tag_33:\n      swap1\n      0x00\n      mstore\n      keccak256(0x00, 0x20)\n      add\n      0x00\n      swap1\n      sload\n      swap1\n      0x0100\n      exp\n      swap1\n      div\n      0xffffffffffffffffffffffffffffffffffffffff\n      and\n        /* \"contracts/NewFundMe.sol\":698:735  address funder = funders[funderIndex] */\n      swap1\n      pop\n        /* \"contracts/NewFundMe.sol\":780:781  0 */\n      0x00\n        /* \"contracts/NewFundMe.sol\":750:771  addressToAmountFunded */\n      0x02\n        /* \"contracts/NewFundMe.sol\":750:779  addressToAmountFunded[funder] */\n      0x00\n        /* \"contracts/NewFundMe.sol\":772:778  funder */\n      dup4\n        /* \"contracts/NewFundMe.sol\":750:779  addressToAmountFunded[funder] */\n      0xffffffffffffffffffffffffffffffffffffffff\n      and\n      0xffffffffffffffffffffffffffffffffffffffff\n      and\n      dup2\n      mstore\n      0x20\n      add\n      swap1\n      dup2\n      mstore\n      0x20\n      add\n      0x00\n      keccak256\n        /* \"contracts/NewFundMe.sol\":750:781  addressToAmountFunded[funder]=0 */\n      dup2\n      swap1\n      sstore\n      pop\n        /* \"contracts/NewFundMe.sol\":683:793  {\r... */\n      pop\n        /* \"contracts/NewFundMe.sol\":668:681  funderIndex++ */\n      dup1\n      dup1\n      tag_37\n      swap1\n      tag_38\n      jump\t// in\n    tag_37:\n      swap2\n      pop\n      pop\n        /* \"contracts/NewFundMe.sol\":608:793  for (uint256 funderIndex = 0; funderIndex < funders.length; funderIndex++ ){\r... */\n      jump(tag_30)\n    tag_31:\n      pop\n        /* \"contracts/NewFundMe.sol\":854:855  0 */\n      0x00\n        /* \"contracts/NewFundMe.sol\":840:856  new address[](0) */\n      0xffffffffffffffff\n      dup2\n      gt\n      iszero\n      tag_39\n      jumpi\n      tag_40\n      tag_41\n      jump\t// in\n    tag_40:\n    tag_39:\n      mload(0x40)\n      swap1\n      dup1\n      dup3\n      mstore\n      dup1\n      0x20\n      mul\n      0x20\n      add\n      dup3\n      add\n      0x40\n      mstore\n      dup1\n      iszero\n      tag_42\n      jumpi\n      dup2\n      0x20\n      add\n      0x20\n      dup3\n      mul\n      dup1\n      calldatasize\n      dup4\n      calldatacopy\n      dup1\n      dup3\n      add\n      swap2\n      pop\n      pop\n      swap1\n      pop\n    tag_42:\n      pop\n        /* \"contracts/NewFundMe.sol\":830:837  funders */\n      0x01\n        /* \"contracts/NewFundMe.sol\":830:856  funders = new address[](0) */\n      swap1\n      dup1\n      mload\n      swap1\n      0x20\n      add\n      swap1\n      tag_43\n      swap3\n      swap2\n      swap1\n      tag_44\n      jump\t// in\n    tag_43:\n      pop\n        /* \"contracts/NewFundMe.sol\":894:909  bool callSucess */\n      0x00\n        /* \"contracts/NewFundMe.sol\":923:933  msg.sender */\n      caller\n        /* \"contracts/NewFundMe.sol\":915:939  payable(msg.sender).call */\n      0xffffffffffffffffffffffffffffffffffffffff\n      and\n        /* \"contracts/NewFundMe.sol\":947:968  address(this).balance */\n      selfbalance\n        /* \"contracts/NewFundMe.sol\":915:973  payable(msg.sender).call{value: address(this).balance}(\"\") */\n      mload(0x40)\n      tag_45\n      swap1\n      tag_46\n      jump\t// in\n    tag_45:\n      0x00\n      mload(0x40)\n      dup1\n      dup4\n      sub\n      dup2\n      dup6\n      dup8\n      gas\n      call\n      swap3\n      pop\n      pop\n      pop\n      returndatasize\n      dup1\n      0x00\n      dup2\n      eq\n      tag_49\n      jumpi\n      mload(0x40)\n      swap2\n      pop\n      and(add(returndatasize, 0x3f), not(0x1f))\n      dup3\n      add\n      0x40\n      mstore\n      returndatasize\n      dup3\n      mstore\n      returndatasize\n      0x00\n      0x20\n      dup5\n      add\n      returndatacopy\n      jump(tag_48)\n    tag_49:\n      0x60\n      swap2\n      pop\n    tag_48:\n      pop\n        /* \"contracts/NewFundMe.sol\":893:973  (bool callSucess, ) = payable(msg.sender).call{value: address(this).balance}(\"\") */\n      pop\n      swap1\n      pop\n        /* \"contracts/NewFundMe.sol\":992:1002  callSucess */\n      dup1\n        /* \"contracts/NewFundMe.sol\":984:1029  require(callSucess, \"Withdraw unsuccessfull\") */\n      tag_50\n      jumpi\n      mload(0x40)\n      0x08c379a000000000000000000000000000000000000000000000000000000000\n      dup2\n      mstore\n      0x04\n      add\n      tag_51\n      swap1\n      tag_52\n      jump\t// in\n    tag_51:\n      mload(0x40)\n      dup1\n      swap2\n      sub\n      swap1\n      revert\n    tag_50:\n        /* \"contracts/NewFundMe.sol\":570:1037  {\r... */\n      pop\n        /* \"contracts/NewFundMe.sol\":535:1037  function withdraw() public payable {\r... */\n      jump\t// out\n        /* \"contracts/NewFundMe.sol\":246:302  mapping(address => uint256) public addressToAmountFunded */\n    tag_18:\n      mstore(0x20, 0x02)\n      dup1\n      0x00\n      mstore\n      keccak256(0x00, 0x40)\n      0x00\n      swap2\n      pop\n      swap1\n      pop\n      sload\n      dup2\n      jump\t// out\n        /* \"contracts/NewFundMe.sol\":311:527  function fund() public payable {\r... */\n    tag_21:\n        /* \"contracts/NewFundMe.sol\":394:404  minimumUSD */\n      sload(0x00)\n        /* \"contracts/NewFundMe.sol\":361:390  msg.value.getConversionRate() */\n      tag_54\n        /* \"contracts/NewFundMe.sol\":361:370  msg.value */\n      callvalue\n        /* \"contracts/NewFundMe.sol\":361:388  msg.value.getConversionRate */\n      tag_55\n        /* \"contracts/NewFundMe.sol\":361:390  msg.value.getConversionRate() */\n      jump\t// in\n    tag_54:\n        /* \"contracts/NewFundMe.sol\":361:404  msg.value.getConversionRate() >= minimumUSD */\n      lt\n      iszero\n        /* \"contracts/NewFundMe.sol\":353:428  require(msg.value.getConversionRate() >= minimumUSD, \"Didn't send enough!\") */\n      tag_56\n      jumpi\n      mload(0x40)\n      0x08c379a000000000000000000000000000000000000000000000000000000000\n      dup2\n      mstore\n      0x04\n      add\n      tag_57\n      swap1\n      tag_58\n      jump\t// in\n    tag_57:\n      mload(0x40)\n      dup1\n      swap2\n      sub\n      swap1\n      revert\n    tag_56:\n        /* \"contracts/NewFundMe.sol\":439:446  funders */\n      0x01\n        /* \"contracts/NewFundMe.sol\":452:462  msg.sender */\n      caller\n        /* \"contracts/NewFundMe.sol\":439:463  funders.push(msg.sender) */\n      swap1\n      dup1\n      0x01\n      dup2\n      sload\n      add\n      dup1\n      dup3\n      sstore\n      dup1\n      swap2\n      pop\n      pop\n      0x01\n      swap1\n      sub\n      swap1\n      0x00\n      mstore\n      keccak256(0x00, 0x20)\n      add\n      0x00\n      swap1\n      swap2\n      swap1\n      swap2\n      swap1\n      swap2\n      0x0100\n      exp\n      dup2\n      sload\n      dup2\n      0xffffffffffffffffffffffffffffffffffffffff\n      mul\n      not\n      and\n      swap1\n      dup4\n      0xffffffffffffffffffffffffffffffffffffffff\n      and\n      mul\n      or\n      swap1\n      sstore\n      pop\n        /* \"contracts/NewFundMe.sol\":510:519  msg.value */\n      callvalue\n        /* \"contracts/NewFundMe.sol\":474:495  addressToAmountFunded */\n      0x02\n        /* \"contracts/NewFundMe.sol\":474:507  addressToAmountFunded[msg.sender] */\n      0x00\n        /* \"contracts/NewFundMe.sol\":496:506  msg.sender */\n      caller\n        /* \"contracts/NewFundMe.sol\":474:507  addressToAmountFunded[msg.sender] */\n      0xffffffffffffffffffffffffffffffffffffffff\n      and\n      0xffffffffffffffffffffffffffffffffffffffff\n      and\n      dup2\n      mstore\n      0x20\n      add\n      swap1\n      dup2\n      mstore\n      0x20\n      add\n      0x00\n      keccak256\n        /* \"contracts/NewFundMe.sol\":474:519  addressToAmountFunded[msg.sender] = msg.value */\n      dup2\n      swap1\n      sstore\n      pop\n        /* \"contracts/NewFundMe.sol\":311:527  function fund() public payable {\r... */\n      jump\t// out\n        /* \"contracts/NewFundMe.sol\":215:239  address[] public funders */\n    tag_26:\n      0x01\n      dup2\n      dup2\n      sload\n      dup2\n      lt\n      tag_60\n      jumpi\n      0x00\n      dup1\n      revert\n    tag_60:\n      swap1\n      0x00\n      mstore\n      keccak256(0x00, 0x20)\n      add\n      0x00\n      swap2\n      pop\n      sload\n      swap1\n      0x0100\n      exp\n      swap1\n      div\n      0xffffffffffffffffffffffffffffffffffffffff\n      and\n      dup2\n      jump\t// out\n        /* \"contracts/NewPriceConverter.sol\":470:691  function getConversionRate(uint256 ethAmount) internal view returns(uint256){\r... */\n    tag_55:\n        /* \"contracts/NewPriceConverter.sol\":538:545  uint256 */\n      0x00\n        /* \"contracts/NewPriceConverter.sol\":557:573  uint256 ethPrice */\n      dup1\n        /* \"contracts/NewPriceConverter.sol\":576:586  getPrice() */\n      tag_63\n        /* \"contracts/NewPriceConverter.sol\":576:584  getPrice */\n      tag_64\n        /* \"contracts/NewPriceConverter.sol\":576:586  getPrice() */\n      jump\t// in\n    tag_63:\n        /* \"contracts/NewPriceConverter.sol\":557:586  uint256 ethPrice = getPrice() */\n      swap1\n      pop\n        /* \"contracts/NewPriceConverter.sol\":597:619  uint256 ethAmountInUSD */\n      0x00\n        /* \"contracts/NewPriceConverter.sol\":647:651  1e18 */\n      0x0de0b6b3a7640000\n        /* \"contracts/NewPriceConverter.sol\":635:643  ethPrice */\n      dup3\n        /* \"contracts/NewPriceConverter.sol\":623:632  ethAmount */\n      dup6\n        /* \"contracts/NewPriceConverter.sol\":623:643  ethAmount * ethPrice */\n      tag_65\n      swap2\n      swap1\n      tag_66\n      jump\t// in\n    tag_65:\n        /* \"contracts/NewPriceConverter.sol\":622:651  (ethAmount * ethPrice) / 1e18 */\n      tag_67\n      swap2\n      swap1\n      tag_68\n      jump\t// in\n    tag_67:\n        /* \"contracts/NewPriceConverter.sol\":597:651  uint256 ethAmountInUSD = (ethAmount * ethPrice) / 1e18 */\n      swap1\n      pop\n        /* \"contracts/NewPriceConverter.sol\":669:683  ethAmountInUSD */\n      dup1\n        /* \"contracts/NewPriceConverter.sol\":662:683  return ethAmountInUSD */\n      swap3\n      pop\n      pop\n      pop\n        /* \"contracts/NewPriceConverter.sol\":470:691  function getConversionRate(uint256 ethAmount) internal view returns(uint256){\r... */\n      swap2\n      swap1\n      pop\n      jump\t// out\n        /* \"contracts/NewPriceConverter.sol\":176:462  function getPrice() internal view returns(uint256){\r... */\n    tag_64:\n        /* \"contracts/NewPriceConverter.sol\":218:225  uint256 */\n      0x00\n        /* \"contracts/NewPriceConverter.sol\":237:268  AggregatorV3Interface priceFeed */\n      dup1\n        /* \"contracts/NewPriceConverter.sol\":293:335  0xD4a33860578De61DBAbDc8BFdb98FD742fA7028e */\n      0xd4a33860578de61dbabdc8bfdb98fd742fa7028e\n        /* \"contracts/NewPriceConverter.sol\":237:336  AggregatorV3Interface priceFeed = AggregatorV3Interface(0xD4a33860578De61DBAbDc8BFdb98FD742fA7028e) */\n      swap1\n      pop\n        /* \"contracts/NewPriceConverter.sol\":350:359  int price */\n      0x00\n        /* \"contracts/NewPriceConverter.sol\":368:377  priceFeed */\n      dup2\n        /* \"contracts/NewPriceConverter.sol\":368:393  priceFeed.latestRoundData */\n      0xffffffffffffffffffffffffffffffffffffffff\n      and\n      0xfeaf968c\n        /* \"contracts/NewPriceConverter.sol\":368:395  priceFeed.latestRoundData() */\n      mload(0x40)\n      dup2\n      0xffffffff\n      and\n      0xe0\n      shl\n      dup2\n      mstore\n      0x04\n      add\n      0xa0\n      mload(0x40)\n      dup1\n      dup4\n      sub\n      dup2\n      dup7\n      dup1\n      extcodesize\n      iszero\n      dup1\n      iszero\n      tag_70\n      jumpi\n      0x00\n      dup1\n      revert\n    tag_70:\n      pop\n      gas\n      staticcall\n      iszero\n      dup1\n      iszero\n      tag_72\n      jumpi\n      returndatasize\n      0x00\n      dup1\n      returndatacopy\n      revert(0x00, returndatasize)\n    tag_72:\n      pop\n      pop\n      pop\n      pop\n      mload(0x40)\n      returndatasize\n      not(0x1f)\n      0x1f\n      dup3\n      add\n      and\n      dup3\n      add\n      dup1\n      0x40\n      mstore\n      pop\n      dup2\n      add\n      swap1\n      tag_73\n      swap2\n      swap1\n      tag_74\n      jump\t// in\n    tag_73:\n        /* \"contracts/NewPriceConverter.sol\":347:395  (, int price, , ,) = priceFeed.latestRoundData() */\n      pop\n      pop\n      pop\n      swap2\n      pop\n      pop\n        /* \"contracts/NewPriceConverter.sol\":429:433  1e10 */\n      0x02540be400\n        /* \"contracts/NewPriceConverter.sol\":421:426  price */\n      dup2\n        /* \"contracts/NewPriceConverter.sol\":421:433  price * 1e10 */\n      tag_75\n      swap2\n      swap1\n      tag_76\n      jump\t// in\n    tag_75:\n        /* \"contracts/NewPriceConverter.sol\":406:434  return uint256(price * 1e10) */\n      swap3\n      pop\n      pop\n      pop\n        /* \"contracts/NewPriceConverter.sol\":176:462  function getPrice() internal view returns(uint256){\r... */\n      swap1\n      jump\t// out\n    tag_44:\n      dup3\n      dup1\n      sload\n      dup3\n      dup3\n      sstore\n      swap1\n      0x00\n      mstore\n      keccak256(0x00, 0x20)\n      swap1\n      dup2\n      add\n      swap3\n      dup3\n      iszero\n      tag_77\n      jumpi\n      swap2\n      0x20\n      mul\n      dup3\n      add\n    tag_78:\n      dup3\n      dup2\n      gt\n      iszero\n      tag_79\n      jumpi\n      dup3\n      mload\n      dup3\n      exp(0x0100, 0x00)\n      dup2\n      sload\n      dup2\n      0xffffffffffffffffffffffffffffffffffffffff\n      mul\n      not\n      and\n      swap1\n      dup4\n      0xffffffffffffffffffffffffffffffffffffffff\n      and\n      mul\n      or\n      swap1\n      sstore\n      pop\n      swap2\n      0x20\n      add\n      swap2\n      swap1\n      0x01\n      add\n      swap1\n      jump(tag_78)\n    tag_79:\n    tag_77:\n      pop\n      swap1\n      pop\n      tag_80\n      swap2\n      swap1\n      tag_81\n      jump\t// in\n    tag_80:\n      pop\n      swap1\n      jump\t// out\n    tag_81:\n    tag_82:\n      dup1\n      dup3\n      gt\n      iszero\n      tag_83\n      jumpi\n      0x00\n      dup2\n      0x00\n      swap1\n      sstore\n      pop\n      0x01\n      add\n      jump(tag_82)\n    tag_83:\n      pop\n      swap1\n      jump\t// out\n        /* \"#utility.yul\":7:146   */\n    tag_85:\n        /* \"#utility.yul\":53:58   */\n      0x00\n        /* \"#utility.yul\":91:97   */\n      dup2\n        /* \"#utility.yul\":78:98   */\n      calldataload\n        /* \"#utility.yul\":69:98   */\n      swap1\n      pop\n        /* \"#utility.yul\":107:140   */\n      tag_87\n        /* \"#utility.yul\":134:139   */\n      dup2\n        /* \"#utility.yul\":107:140   */\n      tag_88\n      jump\t// in\n    tag_87:\n        /* \"#utility.yul\":7:146   */\n      swap3\n      swap2\n      pop\n      pop\n      jump\t// out\n        /* \"#utility.yul\":152:293   */\n    tag_89:\n        /* \"#utility.yul\":208:213   */\n      0x00\n        /* \"#utility.yul\":239:245   */\n      dup2\n        /* \"#utility.yul\":233:246   */\n      mload\n        /* \"#utility.yul\":224:246   */\n      swap1\n      pop\n        /* \"#utility.yul\":255:287   */\n      tag_91\n        /* \"#utility.yul\":281:286   */\n      dup2\n        /* \"#utility.yul\":255:287   */\n      tag_92\n      jump\t// in\n    tag_91:\n        /* \"#utility.yul\":152:293   */\n      swap3\n      swap2\n      pop\n      pop\n      jump\t// out\n        /* \"#utility.yul\":299:438   */\n    tag_93:\n        /* \"#utility.yul\":345:350   */\n      0x00\n        /* \"#utility.yul\":383:389   */\n      dup2\n        /* \"#utility.yul\":370:390   */\n      calldataload\n        /* \"#utility.yul\":361:390   */\n      swap1\n      pop\n        /* \"#utility.yul\":399:432   */\n      tag_95\n        /* \"#utility.yul\":426:431   */\n      dup2\n        /* \"#utility.yul\":399:432   */\n      tag_96\n      jump\t// in\n    tag_95:\n        /* \"#utility.yul\":299:438   */\n      swap3\n      swap2\n      pop\n      pop\n      jump\t// out\n        /* \"#utility.yul\":444:587   */\n    tag_97:\n        /* \"#utility.yul\":501:506   */\n      0x00\n        /* \"#utility.yul\":532:538   */\n      dup2\n        /* \"#utility.yul\":526:539   */\n      mload\n        /* \"#utility.yul\":517:539   */\n      swap1\n      pop\n        /* \"#utility.yul\":548:581   */\n      tag_99\n        /* \"#utility.yul\":575:580   */\n      dup2\n        /* \"#utility.yul\":548:581   */\n      tag_96\n      jump\t// in\n    tag_99:\n        /* \"#utility.yul\":444:587   */\n      swap3\n      swap2\n      pop\n      pop\n      jump\t// out\n        /* \"#utility.yul\":593:734   */\n    tag_100:\n        /* \"#utility.yul\":649:654   */\n      0x00\n        /* \"#utility.yul\":680:686   */\n      dup2\n        /* \"#utility.yul\":674:687   */\n      mload\n        /* \"#utility.yul\":665:687   */\n      swap1\n      pop\n        /* \"#utility.yul\":696:728   */\n      tag_102\n        /* \"#utility.yul\":722:727   */\n      dup2\n        /* \"#utility.yul\":696:728   */\n      tag_103\n      jump\t// in\n    tag_102:\n        /* \"#utility.yul\":593:734   */\n      swap3\n      swap2\n      pop\n      pop\n      jump\t// out\n        /* \"#utility.yul\":740:1069   */\n    tag_17:\n        /* \"#utility.yul\":799:805   */\n      0x00\n        /* \"#utility.yul\":848:850   */\n      0x20\n        /* \"#utility.yul\":836:845   */\n      dup3\n        /* \"#utility.yul\":827:834   */\n      dup5\n        /* \"#utility.yul\":823:846   */\n      sub\n        /* \"#utility.yul\":819:851   */\n      slt\n        /* \"#utility.yul\":816:935   */\n      iszero\n      tag_105\n      jumpi\n        /* \"#utility.yul\":854:933   */\n      tag_106\n      tag_107\n      jump\t// in\n    tag_106:\n        /* \"#utility.yul\":816:935   */\n    tag_105:\n        /* \"#utility.yul\":974:975   */\n      0x00\n        /* \"#utility.yul\":999:1052   */\n      tag_108\n        /* \"#utility.yul\":1044:1051   */\n      dup5\n        /* \"#utility.yul\":1035:1041   */\n      dup3\n        /* \"#utility.yul\":1024:1033   */\n      dup6\n        /* \"#utility.yul\":1020:1042   */\n      add\n        /* \"#utility.yul\":999:1052   */\n      tag_85\n      jump\t// in\n    tag_108:\n        /* \"#utility.yul\":989:1052   */\n      swap2\n      pop\n        /* \"#utility.yul\":945:1062   */\n      pop\n        /* \"#utility.yul\":740:1069   */\n      swap3\n      swap2\n      pop\n      pop\n      jump\t// out\n        /* \"#utility.yul\":1075:1404   */\n    tag_25:\n        /* \"#utility.yul\":1134:1140   */\n      0x00\n        /* \"#utility.yul\":1183:1185   */\n      0x20\n        /* \"#utility.yul\":1171:1180   */\n      dup3\n        /* \"#utility.yul\":1162:1169   */\n      dup5\n        /* \"#utility.yul\":1158:1181   */\n      sub\n        /* \"#utility.yul\":1154:1186   */\n      slt\n        /* \"#utility.yul\":1151:1270   */\n      iszero\n      tag_110\n      jumpi\n        /* \"#utility.yul\":1189:1268   */\n      tag_111\n      tag_107\n      jump\t// in\n    tag_111:\n        /* \"#utility.yul\":1151:1270   */\n    tag_110:\n        /* \"#utility.yul\":1309:1310   */\n      0x00\n        /* \"#utility.yul\":1334:1387   */\n      tag_112\n        /* \"#utility.yul\":1379:1386   */\n      dup5\n        /* \"#utility.yul\":1370:1376   */\n      dup3\n        /* \"#utility.yul\":1359:1368   */\n      dup6\n        /* \"#utility.yul\":1355:1377   */\n      add\n        /* \"#utility.yul\":1334:1387   */\n      tag_93\n      jump\t// in\n    tag_112:\n        /* \"#utility.yul\":1324:1387   */\n      swap2\n      pop\n        /* \"#utility.yul\":1280:1397   */\n      pop\n        /* \"#utility.yul\":1075:1404   */\n      swap3\n      swap2\n      pop\n      pop\n      jump\t// out\n        /* \"#utility.yul\":1410:2381   */\n    tag_74:\n        /* \"#utility.yul\":1513:1519   */\n      0x00\n        /* \"#utility.yul\":1521:1527   */\n      dup1\n        /* \"#utility.yul\":1529:1535   */\n      0x00\n        /* \"#utility.yul\":1537:1543   */\n      dup1\n        /* \"#utility.yul\":1545:1551   */\n      0x00\n        /* \"#utility.yul\":1594:1597   */\n      0xa0\n        /* \"#utility.yul\":1582:1591   */\n      dup7\n        /* \"#utility.yul\":1573:1580   */\n      dup9\n        /* \"#utility.yul\":1569:1592   */\n      sub\n        /* \"#utility.yul\":1565:1598   */\n      slt\n        /* \"#utility.yul\":1562:1682   */\n      iszero\n      tag_114\n      jumpi\n        /* \"#utility.yul\":1601:1680   */\n      tag_115\n      tag_107\n      jump\t// in\n    tag_115:\n        /* \"#utility.yul\":1562:1682   */\n    tag_114:\n        /* \"#utility.yul\":1721:1722   */\n      0x00\n        /* \"#utility.yul\":1746:1809   */\n      tag_116\n        /* \"#utility.yul\":1801:1808   */\n      dup9\n        /* \"#utility.yul\":1792:1798   */\n      dup3\n        /* \"#utility.yul\":1781:1790   */\n      dup10\n        /* \"#utility.yul\":1777:1799   */\n      add\n        /* \"#utility.yul\":1746:1809   */\n      tag_100\n      jump\t// in\n    tag_116:\n        /* \"#utility.yul\":1736:1809   */\n      swap6\n      pop\n        /* \"#utility.yul\":1692:1819   */\n      pop\n        /* \"#utility.yul\":1858:1860   */\n      0x20\n        /* \"#utility.yul\":1884:1947   */\n      tag_117\n        /* \"#utility.yul\":1939:1946   */\n      dup9\n        /* \"#utility.yul\":1930:1936   */\n      dup3\n        /* \"#utility.yul\":1919:1928   */\n      dup10\n        /* \"#utility.yul\":1915:1937   */\n      add\n        /* \"#utility.yul\":1884:1947   */\n      tag_89\n      jump\t// in\n    tag_117:\n        /* \"#utility.yul\":1874:1947   */\n      swap5\n      pop\n        /* \"#utility.yul\":1829:1957   */\n      pop\n        /* \"#utility.yul\":1996:1998   */\n      0x40\n        /* \"#utility.yul\":2022:2086   */\n      tag_118\n        /* \"#utility.yul\":2078:2085   */\n      dup9\n        /* \"#utility.yul\":2069:2075   */\n      dup3\n        /* \"#utility.yul\":2058:2067   */\n      dup10\n        /* \"#utility.yul\":2054:2076   */\n      add\n        /* \"#utility.yul\":2022:2086   */\n      tag_97\n      jump\t// in\n    tag_118:\n        /* \"#utility.yul\":2012:2086   */\n      swap4\n      pop\n        /* \"#utility.yul\":1967:2096   */\n      pop\n        /* \"#utility.yul\":2135:2137   */\n      0x60\n        /* \"#utility.yul\":2161:2225   */\n      tag_119\n        /* \"#utility.yul\":2217:2224   */\n      dup9\n        /* \"#utility.yul\":2208:2214   */\n      dup3\n        /* \"#utility.yul\":2197:2206   */\n      dup10\n        /* \"#utility.yul\":2193:2215   */\n      add\n        /* \"#utility.yul\":2161:2225   */\n      tag_97\n      jump\t// in\n    tag_119:\n        /* \"#utility.yul\":2151:2225   */\n      swap3\n      pop\n        /* \"#utility.yul\":2106:2235   */\n      pop\n        /* \"#utility.yul\":2274:2277   */\n      0x80\n        /* \"#utility.yul\":2301:2364   */\n      tag_120\n        /* \"#utility.yul\":2356:2363   */\n      dup9\n        /* \"#utility.yul\":2347:2353   */\n      dup3\n        /* \"#utility.yul\":2336:2345   */\n      dup10\n        /* \"#utility.yul\":2332:2354   */\n      add\n        /* \"#utility.yul\":2301:2364   */\n      tag_100\n      jump\t// in\n    tag_120:\n        /* \"#utility.yul\":2291:2364   */\n      swap2\n      pop\n        /* \"#utility.yul\":2245:2374   */\n      pop\n        /* \"#utility.yul\":1410:2381   */\n      swap3\n      swap6\n      pop\n      swap3\n      swap6\n      swap1\n      swap4\n      pop\n      jump\t// out\n        /* \"#utility.yul\":2387:2505   */\n    tag_121:\n        /* \"#utility.yul\":2474:2498   */\n      tag_123\n        /* \"#utility.yul\":2492:2497   */\n      dup2\n        /* \"#utility.yul\":2474:2498   */\n      tag_124\n      jump\t// in\n    tag_123:\n        /* \"#utility.yul\":2469:2472   */\n      dup3\n        /* \"#utility.yul\":2462:2499   */\n      mstore\n        /* \"#utility.yul\":2387:2505   */\n      pop\n      pop\n      jump\t// out\n        /* \"#utility.yul\":2511:2877   */\n    tag_125:\n        /* \"#utility.yul\":2653:2656   */\n      0x00\n        /* \"#utility.yul\":2674:2741   */\n      tag_127\n        /* \"#utility.yul\":2738:2740   */\n      0x16\n        /* \"#utility.yul\":2733:2736   */\n      dup4\n        /* \"#utility.yul\":2674:2741   */\n      tag_128\n      jump\t// in\n    tag_127:\n        /* \"#utility.yul\":2667:2741   */\n      swap2\n      pop\n        /* \"#utility.yul\":2750:2843   */\n      tag_129\n        /* \"#utility.yul\":2839:2842   */\n      dup3\n        /* \"#utility.yul\":2750:2843   */\n      tag_130\n      jump\t// in\n    tag_129:\n        /* \"#utility.yul\":2868:2870   */\n      0x20\n        /* \"#utility.yul\":2863:2866   */\n      dup3\n        /* \"#utility.yul\":2859:2871   */\n      add\n        /* \"#utility.yul\":2852:2871   */\n      swap1\n      pop\n        /* \"#utility.yul\":2511:2877   */\n      swap2\n      swap1\n      pop\n      jump\t// out\n        /* \"#utility.yul\":2883:3281   */\n    tag_131:\n        /* \"#utility.yul\":3042:3045   */\n      0x00\n        /* \"#utility.yul\":3063:3146   */\n      tag_133\n        /* \"#utility.yul\":3144:3145   */\n      0x00\n        /* \"#utility.yul\":3139:3142   */\n      dup4\n        /* \"#utility.yul\":3063:3146   */\n      tag_134\n      jump\t// in\n    tag_133:\n        /* \"#utility.yul\":3056:3146   */\n      swap2\n      pop\n        /* \"#utility.yul\":3155:3248   */\n      tag_135\n        /* \"#utility.yul\":3244:3247   */\n      dup3\n        /* \"#utility.yul\":3155:3248   */\n      tag_136\n      jump\t// in\n    tag_135:\n        /* \"#utility.yul\":3273:3274   */\n      0x00\n        /* \"#utility.yul\":3268:3271   */\n      dup3\n        /* \"#utility.yul\":3264:3275   */\n      add\n        /* \"#utility.yul\":3257:3275   */\n      swap1\n      pop\n        /* \"#utility.yul\":2883:3281   */\n      swap2\n      swap1\n      pop\n      jump\t// out\n        /* \"#utility.yul\":3287:3653   */\n    tag_137:\n        /* \"#utility.yul\":3429:3432   */\n      0x00\n        /* \"#utility.yul\":3450:3517   */\n      tag_139\n        /* \"#utility.yul\":3514:3516   */\n      0x13\n        /* \"#utility.yul\":3509:3512   */\n      dup4\n        /* \"#utility.yul\":3450:3517   */\n      tag_128\n      jump\t// in\n    tag_139:\n        /* \"#utility.yul\":3443:3517   */\n      swap2\n      pop\n        /* \"#utility.yul\":3526:3619   */\n      tag_140\n        /* \"#utility.yul\":3615:3618   */\n      dup3\n        /* \"#utility.yul\":3526:3619   */\n      tag_141\n      jump\t// in\n    tag_140:\n        /* \"#utility.yul\":3644:3646   */\n      0x20\n        /* \"#utility.yul\":3639:3642   */\n      dup3\n        /* \"#utility.yul\":3635:3647   */\n      add\n        /* \"#utility.yul\":3628:3647   */\n      swap1\n      pop\n        /* \"#utility.yul\":3287:3653   */\n      swap2\n      swap1\n      pop\n      jump\t// out\n        /* \"#utility.yul\":3659:3777   */\n    tag_142:\n        /* \"#utility.yul\":3746:3770   */\n      tag_144\n        /* \"#utility.yul\":3764:3769   */\n      dup2\n        /* \"#utility.yul\":3746:3770   */\n      tag_145\n      jump\t// in\n    tag_144:\n        /* \"#utility.yul\":3741:3744   */\n      dup3\n        /* \"#utility.yul\":3734:3771   */\n      mstore\n        /* \"#utility.yul\":3659:3777   */\n      pop\n      pop\n      jump\t// out\n        /* \"#utility.yul\":3783:4162   */\n    tag_46:\n        /* \"#utility.yul\":3967:3970   */\n      0x00\n        /* \"#utility.yul\":3989:4136   */\n      tag_147\n        /* \"#utility.yul\":4132:4135   */\n      dup3\n        /* \"#utility.yul\":3989:4136   */\n      tag_131\n      jump\t// in\n    tag_147:\n        /* \"#utility.yul\":3982:4136   */\n      swap2\n      pop\n        /* \"#utility.yul\":4153:4156   */\n      dup2\n        /* \"#utility.yul\":4146:4156   */\n      swap1\n      pop\n        /* \"#utility.yul\":3783:4162   */\n      swap2\n      swap1\n      pop\n      jump\t// out\n        /* \"#utility.yul\":4168:4390   */\n    tag_28:\n        /* \"#utility.yul\":4261:4265   */\n      0x00\n        /* \"#utility.yul\":4299:4301   */\n      0x20\n        /* \"#utility.yul\":4288:4297   */\n      dup3\n        /* \"#utility.yul\":4284:4302   */\n      add\n        /* \"#utility.yul\":4276:4302   */\n      swap1\n      pop\n        /* \"#utility.yul\":4312:4383   */\n      tag_149\n        /* \"#utility.yul\":4380:4381   */\n      0x00\n        /* \"#utility.yul\":4369:4378   */\n      dup4\n        /* \"#utility.yul\":4365:4382   */\n      add\n        /* \"#utility.yul\":4356:4362   */\n      dup5\n        /* \"#utility.yul\":4312:4383   */\n      tag_121\n      jump\t// in\n    tag_149:\n        /* \"#utility.yul\":4168:4390   */\n      swap3\n      swap2\n      pop\n      pop\n      jump\t// out\n        /* \"#utility.yul\":4396:4815   */\n    tag_52:\n        /* \"#utility.yul\":4562:4566   */\n      0x00\n        /* \"#utility.yul\":4600:4602   */\n      0x20\n        /* \"#utility.yul\":4589:4598   */\n      dup3\n        /* \"#utility.yul\":4585:4603   */\n      add\n        /* \"#utility.yul\":4577:4603   */\n      swap1\n      pop\n        /* \"#utility.yul\":4649:4658   */\n      dup2\n        /* \"#utility.yul\":4643:4647   */\n      dup2\n        /* \"#utility.yul\":4639:4659   */\n      sub\n        /* \"#utility.yul\":4635:4636   */\n      0x00\n        /* \"#utility.yul\":4624:4633   */\n      dup4\n        /* \"#utility.yul\":4620:4637   */\n      add\n        /* \"#utility.yul\":4613:4660   */\n      mstore\n        /* \"#utility.yul\":4677:4808   */\n      tag_151\n        /* \"#utility.yul\":4803:4807   */\n      dup2\n        /* \"#utility.yul\":4677:4808   */\n      tag_125\n      jump\t// in\n    tag_151:\n        /* \"#utility.yul\":4669:4808   */\n      swap1\n      pop\n        /* \"#utility.yul\":4396:4815   */\n      swap2\n      swap1\n      pop\n      jump\t// out\n        /* \"#utility.yul\":4821:5240   */\n    tag_58:\n        /* \"#utility.yul\":4987:4991   */\n      0x00\n        /* \"#utility.yul\":5025:5027   */\n      0x20\n        /* \"#utility.yul\":5014:5023   */\n      dup3\n        /* \"#utility.yul\":5010:5028   */\n      add\n        /* \"#utility.yul\":5002:5028   */\n      swap1\n      pop\n        /* \"#utility.yul\":5074:5083   */\n      dup2\n        /* \"#utility.yul\":5068:5072   */\n      dup2\n        /* \"#utility.yul\":5064:5084   */\n      sub\n        /* \"#utility.yul\":5060:5061   */\n      0x00\n        /* \"#utility.yul\":5049:5058   */\n      dup4\n        /* \"#utility.yul\":5045:5062   */\n      add\n        /* \"#utility.yul\":5038:5085   */\n      mstore\n        /* \"#utility.yul\":5102:5233   */\n      tag_153\n        /* \"#utility.yul\":5228:5232   */\n      dup2\n        /* \"#utility.yul\":5102:5233   */\n      tag_137\n      jump\t// in\n    tag_153:\n        /* \"#utility.yul\":5094:5233   */\n      swap1\n      pop\n        /* \"#utility.yul\":4821:5240   */\n      swap2\n      swap1\n      pop\n      jump\t// out\n        /* \"#utility.yul\":5246:5468   */\n    tag_11:\n        /* \"#utility.yul\":5339:5343   */\n      0x00\n        /* \"#utility.yul\":5377:5379   */\n      0x20\n        /* \"#utility.yul\":5366:5375   */\n      dup3\n        /* \"#utility.yul\":5362:5380   */\n      add\n        /* \"#utility.yul\":5354:5380   */\n      swap1\n      pop\n        /* \"#utility.yul\":5390:5461   */\n      tag_155\n        /* \"#utility.yul\":5458:5459   */\n      0x00\n        /* \"#utility.yul\":5447:5456   */\n      dup4\n        /* \"#utility.yul\":5443:5460   */\n      add\n        /* \"#utility.yul\":5434:5440   */\n      dup5\n        /* \"#utility.yul\":5390:5461   */\n      tag_142\n      jump\t// in\n    tag_155:\n        /* \"#utility.yul\":5246:5468   */\n      swap3\n      swap2\n      pop\n      pop\n      jump\t// out\n        /* \"#utility.yul\":5555:5702   */\n    tag_134:\n        /* \"#utility.yul\":5656:5667   */\n      0x00\n        /* \"#utility.yul\":5693:5696   */\n      dup2\n        /* \"#utility.yul\":5678:5696   */\n      swap1\n      pop\n        /* \"#utility.yul\":5555:5702   */\n      swap3\n      swap2\n      pop\n      pop\n      jump\t// out\n        /* \"#utility.yul\":5708:5877   */\n    tag_128:\n        /* \"#utility.yul\":5792:5803   */\n      0x00\n        /* \"#utility.yul\":5826:5832   */\n      dup3\n        /* \"#utility.yul\":5821:5824   */\n      dup3\n        /* \"#utility.yul\":5814:5833   */\n      mstore\n        /* \"#utility.yul\":5866:5870   */\n      0x20\n        /* \"#utility.yul\":5861:5864   */\n      dup3\n        /* \"#utility.yul\":5857:5871   */\n      add\n        /* \"#utility.yul\":5842:5871   */\n      swap1\n      pop\n        /* \"#utility.yul\":5708:5877   */\n      swap3\n      swap2\n      pop\n      pop\n      jump\t// out\n        /* \"#utility.yul\":5883:6068   */\n    tag_68:\n        /* \"#utility.yul\":5923:5924   */\n      0x00\n        /* \"#utility.yul\":5940:5960   */\n      tag_161\n        /* \"#utility.yul\":5958:5959   */\n      dup3\n        /* \"#utility.yul\":5940:5960   */\n      tag_145\n      jump\t// in\n    tag_161:\n        /* \"#utility.yul\":5935:5960   */\n      swap2\n      pop\n        /* \"#utility.yul\":5974:5994   */\n      tag_162\n        /* \"#utility.yul\":5992:5993   */\n      dup4\n        /* \"#utility.yul\":5974:5994   */\n      tag_145\n      jump\t// in\n    tag_162:\n        /* \"#utility.yul\":5969:5994   */\n      swap3\n      pop\n        /* \"#utility.yul\":6013:6014   */\n      dup3\n        /* \"#utility.yul\":6003:6038   */\n      tag_163\n      jumpi\n        /* \"#utility.yul\":6018:6036   */\n      tag_164\n      tag_165\n      jump\t// in\n    tag_164:\n        /* \"#utility.yul\":6003:6038   */\n    tag_163:\n        /* \"#utility.yul\":6060:6061   */\n      dup3\n        /* \"#utility.yul\":6057:6058   */\n      dup3\n        /* \"#utility.yul\":6053:6062   */\n      div\n        /* \"#utility.yul\":6048:6062   */\n      swap1\n      pop\n        /* \"#utility.yul\":5883:6068   */\n      swap3\n      swap2\n      pop\n      pop\n      jump\t// out\n        /* \"#utility.yul\":6074:7065   */\n    tag_76:\n        /* \"#utility.yul\":6113:6120   */\n      0x00\n        /* \"#utility.yul\":6136:6155   */\n      tag_167\n        /* \"#utility.yul\":6153:6154   */\n      dup3\n        /* \"#utility.yul\":6136:6155   */\n      tag_168\n      jump\t// in\n    tag_167:\n        /* \"#utility.yul\":6131:6155   */\n      swap2\n      pop\n        /* \"#utility.yul\":6169:6188   */\n      tag_169\n        /* \"#utility.yul\":6186:6187   */\n      dup4\n        /* \"#utility.yul\":6169:6188   */\n      tag_168\n      jump\t// in\n    tag_169:\n        /* \"#utility.yul\":6164:6188   */\n      swap3\n      pop\n        /* \"#utility.yul\":6370:6371   */\n      dup3\n        /* \"#utility.yul\":6302:6368   */\n      0x7fffffffffffffffffffffffffffffffffffffffffffffffffffffffffffffff\n        /* \"#utility.yul\":6298:6372   */\n      div\n        /* \"#utility.yul\":6295:6296   */\n      dup3\n        /* \"#utility.yul\":6292:6373   */\n      gt\n        /* \"#utility.yul\":6287:6288   */\n      0x00\n        /* \"#utility.yul\":6284:6285   */\n      dup5\n        /* \"#utility.yul\":6280:6289   */\n      sgt\n        /* \"#utility.yul\":6276:6277   */\n      0x00\n        /* \"#utility.yul\":6273:6274   */\n      dup5\n        /* \"#utility.yul\":6269:6278   */\n      sgt\n        /* \"#utility.yul\":6265:6290   */\n      and\n        /* \"#utility.yul\":6261:6374   */\n      and\n        /* \"#utility.yul\":6258:6397   */\n      iszero\n      tag_170\n      jumpi\n        /* \"#utility.yul\":6377:6395   */\n      tag_171\n      tag_172\n      jump\t// in\n    tag_171:\n        /* \"#utility.yul\":6258:6397   */\n    tag_170:\n        /* \"#utility.yul\":6581:6582   */\n      dup2\n        /* \"#utility.yul\":6513:6579   */\n      0x8000000000000000000000000000000000000000000000000000000000000000\n        /* \"#utility.yul\":6508:6583   */\n      sdiv\n        /* \"#utility.yul\":6505:6506   */\n      dup4\n        /* \"#utility.yul\":6501:6584   */\n      slt\n        /* \"#utility.yul\":6496:6497   */\n      0x00\n        /* \"#utility.yul\":6493:6494   */\n      dup5\n        /* \"#utility.yul\":6489:6498   */\n      slt\n        /* \"#utility.yul\":6485:6486   */\n      0x00\n        /* \"#utility.yul\":6482:6483   */\n      dup5\n        /* \"#utility.yul\":6478:6487   */\n      sgt\n        /* \"#utility.yul\":6474:6499   */\n      and\n        /* \"#utility.yul\":6470:6585   */\n      and\n        /* \"#utility.yul\":6467:6608   */\n      iszero\n      tag_173\n      jumpi\n        /* \"#utility.yul\":6588:6606   */\n      tag_174\n      tag_172\n      jump\t// in\n    tag_174:\n        /* \"#utility.yul\":6467:6608   */\n    tag_173:\n        /* \"#utility.yul\":6792:6793   */\n      dup3\n        /* \"#utility.yul\":6724:6790   */\n      0x8000000000000000000000000000000000000000000000000000000000000000\n        /* \"#utility.yul\":6719:6794   */\n      sdiv\n        /* \"#utility.yul\":6716:6717   */\n      dup3\n        /* \"#utility.yul\":6712:6795   */\n      slt\n        /* \"#utility.yul\":6707:6708   */\n      0x00\n        /* \"#utility.yul\":6704:6705   */\n      dup5\n        /* \"#utility.yul\":6700:6709   */\n      sgt\n        /* \"#utility.yul\":6696:6697   */\n      0x00\n        /* \"#utility.yul\":6693:6694   */\n      dup5\n        /* \"#utility.yul\":6689:6698   */\n      slt\n        /* \"#utility.yul\":6685:6710   */\n      and\n        /* \"#utility.yul\":6681:6796   */\n      and\n        /* \"#utility.yul\":6678:6819   */\n      iszero\n      tag_175\n      jumpi\n        /* \"#utility.yul\":6799:6817   */\n      tag_176\n      tag_172\n      jump\t// in\n    tag_176:\n        /* \"#utility.yul\":6678:6819   */\n    tag_175:\n        /* \"#utility.yul\":7002:7003   */\n      dup3\n        /* \"#utility.yul\":6934:7000   */\n      0x7fffffffffffffffffffffffffffffffffffffffffffffffffffffffffffffff\n        /* \"#utility.yul\":6929:7004   */\n      sdiv\n        /* \"#utility.yul\":6926:6927   */\n      dup3\n        /* \"#utility.yul\":6922:7005   */\n      slt\n        /* \"#utility.yul\":6917:6918   */\n      0x00\n        /* \"#utility.yul\":6914:6915   */\n      dup5\n        /* \"#utility.yul\":6910:6919   */\n      slt\n        /* \"#utility.yul\":6906:6907   */\n      0x00\n        /* \"#utility.yul\":6903:6904   */\n      dup5\n        /* \"#utility.yul\":6899:6908   */\n      slt\n        /* \"#utility.yul\":6895:6920   */\n      and\n        /* \"#utility.yul\":6891:7006   */\n      and\n        /* \"#utility.yul\":6888:7029   */\n      iszero\n      tag_177\n      jumpi\n        /* \"#utility.yul\":7009:7027   */\n      tag_178\n      tag_172\n      jump\t// in\n    tag_178:\n        /* \"#utility.yul\":6888:7029   */\n    tag_177:\n        /* \"#utility.yul\":7057:7058   */\n      dup3\n        /* \"#utility.yul\":7054:7055   */\n      dup3\n        /* \"#utility.yul\":7050:7059   */\n      mul\n        /* \"#utility.yul\":7039:7059   */\n      swap1\n      pop\n        /* \"#utility.yul\":6074:7065   */\n      swap3\n      swap2\n      pop\n      pop\n      jump\t// out\n        /* \"#utility.yul\":7071:7419   */\n    tag_66:\n        /* \"#utility.yul\":7111:7118   */\n      0x00\n        /* \"#utility.yul\":7134:7154   */\n      tag_180\n        /* \"#utility.yul\":7152:7153   */\n      dup3\n        /* \"#utility.yul\":7134:7154   */\n      tag_145\n      jump\t// in\n    tag_180:\n        /* \"#utility.yul\":7129:7154   */\n      swap2\n      pop\n        /* \"#utility.yul\":7168:7188   */\n      tag_181\n        /* \"#utility.yul\":7186:7187   */\n      dup4\n        /* \"#utility.yul\":7168:7188   */\n      tag_145\n      jump\t// in\n    tag_181:\n        /* \"#utility.yul\":7163:7188   */\n      swap3\n      pop\n        /* \"#utility.yul\":7356:7357   */\n      dup2\n        /* \"#utility.yul\":7288:7354   */\n      0xffffffffffffffffffffffffffffffffffffffffffffffffffffffffffffffff\n        /* \"#utility.yul\":7284:7358   */\n      div\n        /* \"#utility.yul\":7281:7282   */\n      dup4\n        /* \"#utility.yul\":7278:7359   */\n      gt\n        /* \"#utility.yul\":7273:7274   */\n      dup3\n        /* \"#utility.yul\":7266:7275   */\n      iszero\n        /* \"#utility.yul\":7259:7276   */\n      iszero\n        /* \"#utility.yul\":7255:7360   */\n      and\n        /* \"#utility.yul\":7252:7383   */\n      iszero\n      tag_182\n      jumpi\n        /* \"#utility.yul\":7363:7381   */\n      tag_183\n      tag_172\n      jump\t// in\n    tag_183:\n        /* \"#utility.yul\":7252:7383   */\n    tag_182:\n        /* \"#utility.yul\":7411:7412   */\n      dup3\n        /* \"#utility.yul\":7408:7409   */\n      dup3\n        /* \"#utility.yul\":7404:7413   */\n      mul\n        /* \"#utility.yul\":7393:7413   */\n      swap1\n      pop\n        /* \"#utility.yul\":7071:7419   */\n      swap3\n      swap2\n      pop\n      pop\n      jump\t// out\n        /* \"#utility.yul\":7425:7521   */\n    tag_124:\n        /* \"#utility.yul\":7462:7469   */\n      0x00\n        /* \"#utility.yul\":7491:7515   */\n      tag_185\n        /* \"#utility.yul\":7509:7514   */\n      dup3\n        /* \"#utility.yul\":7491:7515   */\n      tag_186\n      jump\t// in\n    tag_185:\n        /* \"#utility.yul\":7480:7515   */\n      swap1\n      pop\n        /* \"#utility.yul\":7425:7521   */\n      swap2\n      swap1\n      pop\n      jump\t// out\n        /* \"#utility.yul\":7527:7603   */\n    tag_168:\n        /* \"#utility.yul\":7563:7570   */\n      0x00\n        /* \"#utility.yul\":7592:7597   */\n      dup2\n        /* \"#utility.yul\":7581:7597   */\n      swap1\n      pop\n        /* \"#utility.yul\":7527:7603   */\n      swap2\n      swap1\n      pop\n      jump\t// out\n        /* \"#utility.yul\":7609:7735   */\n    tag_186:\n        /* \"#utility.yul\":7646:7653   */\n      0x00\n        /* \"#utility.yul\":7686:7728   */\n      0xffffffffffffffffffffffffffffffffffffffff\n        /* \"#utility.yul\":7679:7684   */\n      dup3\n        /* \"#utility.yul\":7675:7729   */\n      and\n        /* \"#utility.yul\":7664:7729   */\n      swap1\n      pop\n        /* \"#utility.yul\":7609:7735   */\n      swap2\n      swap1\n      pop\n      jump\t// out\n        /* \"#utility.yul\":7741:7818   */\n    tag_145:\n        /* \"#utility.yul\":7778:7785   */\n      0x00\n        /* \"#utility.yul\":7807:7812   */\n      dup2\n        /* \"#utility.yul\":7796:7812   */\n      swap1\n      pop\n        /* \"#utility.yul\":7741:7818   */\n      swap2\n      swap1\n      pop\n      jump\t// out\n        /* \"#utility.yul\":7824:7929   */\n    tag_190:\n        /* \"#utility.yul\":7860:7867   */\n      0x00\n        /* \"#utility.yul\":7900:7922   */\n      0xffffffffffffffffffff\n        /* \"#utility.yul\":7893:7898   */\n      dup3\n        /* \"#utility.yul\":7889:7923   */\n      and\n        /* \"#utility.yul\":7878:7923   */\n      swap1\n      pop\n        /* \"#utility.yul\":7824:7929   */\n      swap2\n      swap1\n      pop\n      jump\t// out\n        /* \"#utility.yul\":7935:8168   */\n    tag_38:\n        /* \"#utility.yul\":7974:7977   */\n      0x00\n        /* \"#utility.yul\":7997:8021   */\n      tag_193\n        /* \"#utility.yul\":8015:8020   */\n      dup3\n        /* \"#utility.yul\":7997:8021   */\n      tag_145\n      jump\t// in\n    tag_193:\n        /* \"#utility.yul\":7988:8021   */\n      swap2\n      pop\n        /* \"#utility.yul\":8043:8109   */\n      0xffffffffffffffffffffffffffffffffffffffffffffffffffffffffffffffff\n        /* \"#utility.yul\":8036:8041   */\n      dup3\n        /* \"#utility.yul\":8033:8110   */\n      eq\n        /* \"#utility.yul\":8030:8133   */\n      iszero\n      tag_194\n      jumpi\n        /* \"#utility.yul\":8113:8131   */\n      tag_195\n      tag_172\n      jump\t// in\n    tag_195:\n        /* \"#utility.yul\":8030:8133   */\n    tag_194:\n        /* \"#utility.yul\":8160:8161   */\n      0x01\n        /* \"#utility.yul\":8153:8158   */\n      dup3\n        /* \"#utility.yul\":8149:8162   */\n      add\n        /* \"#utility.yul\":8142:8162   */\n      swap1\n      pop\n        /* \"#utility.yul\":7935:8168   */\n      swap2\n      swap1\n      pop\n      jump\t// out\n        /* \"#utility.yul\":8174:8354   */\n    tag_172:\n        /* \"#utility.yul\":8222:8299   */\n      0x4e487b7100000000000000000000000000000000000000000000000000000000\n        /* \"#utility.yul\":8219:8220   */\n      0x00\n        /* \"#utility.yul\":8212:8300   */\n      mstore\n        /* \"#utility.yul\":8319:8323   */\n      0x11\n        /* \"#utility.yul\":8316:8317   */\n      0x04\n        /* \"#utility.yul\":8309:8324   */\n      mstore\n        /* \"#utility.yul\":8343:8347   */\n      0x24\n        /* \"#utility.yul\":8340:8341   */\n      0x00\n        /* \"#utility.yul\":8333:8348   */\n      revert\n        /* \"#utility.yul\":8360:8540   */\n    tag_165:\n        /* \"#utility.yul\":8408:8485   */\n      0x4e487b7100000000000000000000000000000000000000000000000000000000\n        /* \"#utility.yul\":8405:8406   */\n      0x00\n        /* \"#utility.yul\":8398:8486   */\n      mstore\n        /* \"#utility.yul\":8505:8509   */\n      0x12\n        /* \"#utility.yul\":8502:8503   */\n      0x04\n        /* \"#utility.yul\":8495:8510   */\n      mstore\n        /* \"#utility.yul\":8529:8533   */\n      0x24\n        /* \"#utility.yul\":8526:8527   */\n      0x00\n        /* \"#utility.yul\":8519:8534   */\n      revert\n        /* \"#utility.yul\":8546:8726   */\n    tag_35:\n        /* \"#utility.yul\":8594:8671   */\n      0x4e487b7100000000000000000000000000000000000000000000000000000000\n        /* \"#utility.yul\":8591:8592   */\n      0x00\n        /* \"#utility.yul\":8584:8672   */\n      mstore\n        /* \"#utility.yul\":8691:8695   */\n      0x32\n        /* \"#utility.yul\":8688:8689   */\n      0x04\n        /* \"#utility.yul\":8681:8696   */\n      mstore\n        /* \"#utility.yul\":8715:8719   */\n      0x24\n        /* \"#utility.yul\":8712:8713   */\n      0x00\n        /* \"#utility.yul\":8705:8720   */\n      revert\n        /* \"#utility.yul\":8732:8912   */\n    tag_41:\n        /* \"#utility.yul\":8780:8857   */\n      0x4e487b7100000000000000000000000000000000000000000000000000000000\n        /* \"#utility.yul\":8777:8778   */\n      0x00\n        /* \"#utility.yul\":8770:8858   */\n      mstore\n        /* \"#utility.yul\":8877:8881   */\n      0x41\n        /* \"#utility.yul\":8874:8875   */\n      0x04\n        /* \"#utility.yul\":8867:8882   */\n      mstore\n        /* \"#utility.yul\":8901:8905   */\n      0x24\n        /* \"#utility.yul\":8898:8899   */\n      0x00\n        /* \"#utility.yul\":8891:8906   */\n      revert\n        /* \"#utility.yul\":9041:9158   */\n    tag_107:\n        /* \"#utility.yul\":9150:9151   */\n      0x00\n        /* \"#utility.yul\":9147:9148   */\n      dup1\n        /* \"#utility.yul\":9140:9152   */\n      revert\n        /* \"#utility.yul\":9164:9336   */\n    tag_130:\n        /* \"#utility.yul\":9304:9328   */\n      0x576974686472617720756e7375636365737366756c6c00000000000000000000\n        /* \"#utility.yul\":9300:9301   */\n      0x00\n        /* \"#utility.yul\":9292:9298   */\n      dup3\n        /* \"#utility.yul\":9288:9302   */\n      add\n        /* \"#utility.yul\":9281:9329   */\n      mstore\n        /* \"#utility.yul\":9164:9336   */\n      pop\n      jump\t// out\n        /* \"#utility.yul\":9342:9456   */\n    tag_136:\n      pop\n      jump\t// out\n        /* \"#utility.yul\":9462:9631   */\n    tag_141:\n        /* \"#utility.yul\":9602:9623   */\n      0x4469646e27742073656e6420656e6f7567682100000000000000000000000000\n        /* \"#utility.yul\":9598:9599   */\n      0x00\n        /* \"#utility.yul\":9590:9596   */\n      dup3\n        /* \"#utility.yul\":9586:9600   */\n      add\n        /* \"#utility.yul\":9579:9624   */\n      mstore\n        /* \"#utility.yul\":9462:9631   */\n      pop\n      jump\t// out\n        /* \"#utility.yul\":9637:9759   */\n    tag_88:\n        /* \"#utility.yul\":9710:9734   */\n      tag_207\n        /* \"#utility.yul\":9728:9733   */\n      dup2\n        /* \"#utility.yul\":9710:9734   */\n      tag_124\n      jump\t// in\n    tag_207:\n        /* \"#utility.yul\":9703:9708   */\n      dup2\n        /* \"#utility.yul\":9700:9735   */\n      eq\n        /* \"#utility.yul\":9690:9753   */\n      tag_208\n      jumpi\n        /* \"#utility.yul\":9749:9750   */\n      0x00\n        /* \"#utility.yul\":9746:9747   */\n      dup1\n        /* \"#utility.yul\":9739:9751   */\n      revert\n        /* \"#utility.yul\":9690:9753   */\n    tag_208:\n        /* \"#utility.yul\":9637:9759   */\n      pop\n      jump\t// out\n        /* \"#utility.yul\":9765:9885   */\n    tag_92:\n        /* \"#utility.yul\":9837:9860   */\n      tag_210\n        /* \"#utility.yul\":9854:9859   */\n      dup2\n        /* \"#utility.yul\":9837:9860   */\n      tag_168\n      jump\t// in\n    tag_210:\n        /* \"#utility.yul\":9830:9835   */\n      dup2\n        /* \"#utility.yul\":9827:9861   */\n      eq\n        /* \"#utility.yul\":9817:9879   */\n      tag_211\n      jumpi\n        /* \"#utility.yul\":9875:9876   */\n      0x00\n        /* \"#utility.yul\":9872:9873   */\n      dup1\n        /* \"#utility.yul\":9865:9877   */\n      revert\n        /* \"#utility.yul\":9817:9879   */\n    tag_211:\n        /* \"#utility.yul\":9765:9885   */\n      pop\n      jump\t// out\n        /* \"#utility.yul\":9891:10013   */\n    tag_96:\n        /* \"#utility.yul\":9964:9988   */\n      tag_213\n        /* \"#utility.yul\":9982:9987   */\n      dup2\n        /* \"#utility.yul\":9964:9988   */\n      tag_145\n      jump\t// in\n    tag_213:\n        /* \"#utility.yul\":9957:9962   */\n      dup2\n        /* \"#utility.yul\":9954:9989   */\n      eq\n        /* \"#utility.yul\":9944:10007   */\n      tag_214\n      jumpi\n        /* \"#utility.yul\":10003:10004   */\n      0x00\n        /* \"#utility.yul\":10000:10001   */\n      dup1\n        /* \"#utility.yul\":9993:10005   */\n      revert\n        /* \"#utility.yul\":9944:10007   */\n    tag_214:\n        /* \"#utility.yul\":9891:10013   */\n      pop\n      jump\t// out\n        /* \"#utility.yul\":10019:10139   */\n    tag_103:\n        /* \"#utility.yul\":10091:10114   */\n      tag_216\n        /* \"#utility.yul\":10108:10113   */\n      dup2\n        /* \"#utility.yul\":10091:10114   */\n      tag_190\n      jump\t// in\n    tag_216:\n        /* \"#utility.yul\":10084:10089   */\n      dup2\n        /* \"#utility.yul\":10081:10115   */\n      eq\n        /* \"#utility.yul\":10071:10133   */\n      tag_217\n      jumpi\n        /* \"#utility.yul\":10129:10130   */\n      0x00\n        /* \"#utility.yul\":10126:10127   */\n      dup1\n        /* \"#utility.yul\":10119:10131   */\n      revert\n        /* \"#utility.yul\":10071:10133   */\n    tag_217:\n        /* \"#utility.yul\":10019:10139   */\n      pop\n      jump\t// out\n\n    auxdata: 0xa26469706673582212204d8ae1d7ca89ed0080cd382b025b7341dff7b3c21f819d45d13bf5daada99c2a64736f6c63430008070033\n}\n",
				"bytecode": {
					"linkReferences": {},
					"object": "6080604052678ac7230489e8000060005534801561001c57600080fd5b50610c0b8061002c6000396000f3fe60806040526004361061004a5760003560e01c80633430a88c1461004f5780633ccfd60b1461007a5780633e47d6f314610084578063b60d4288146100c1578063dc0d3dff146100cb575b600080fd5b34801561005b57600080fd5b50610064610108565b60405161007191906107e5565b60405180910390f35b61008261010e565b005b34801561009057600080fd5b506100ab60048036038101906100a69190610619565b6102ca565b6040516100b891906107e5565b60405180910390f35b6100c96102e2565b005b3480156100d757600080fd5b506100f260048036038101906100ed9190610646565b6103d8565b6040516100ff919061078a565b60405180910390f35b60005481565b60005b6001805490508110156101ba5760006001828154811061013457610133610ac1565b5b9060005260206000200160009054906101000a900473ffffffffffffffffffffffffffffffffffffffff1690506000600260008373ffffffffffffffffffffffffffffffffffffffff1673ffffffffffffffffffffffffffffffffffffffff168152602001908152602001600020819055505080806101b290610a1a565b915050610111565b50600067ffffffffffffffff8111156101d6576101d5610af0565b5b6040519080825280602002602001820160405280156102045781602001602082028036833780820191505090505b506001908051906020019061021a929190610509565b5060003373ffffffffffffffffffffffffffffffffffffffff164760405161024190610775565b60006040518083038185875af1925050503d806000811461027e576040519150601f19603f3d011682016040523d82523d6000602084013e610283565b606091505b50509050806102c7576040517f08c379a00000000000000000000000000000000000000000000000000000000081526004016102be906107a5565b60405180910390fd5b50565b60026020528060005260406000206000915090505481565b6000546102ee34610417565b101561032f576040517f08c379a0000000000000000000000000000000000000000000000000000000008152600401610326906107c5565b60405180910390fd5b6001339080600181540180825580915050600190039060005260206000200160009091909190916101000a81548173ffffffffffffffffffffffffffffffffffffffff021916908373ffffffffffffffffffffffffffffffffffffffff16021790555034600260003373ffffffffffffffffffffffffffffffffffffffff1673ffffffffffffffffffffffffffffffffffffffff16815260200190815260200160002081905550565b600181815481106103e857600080fd5b906000526020600020016000915054906101000a900473ffffffffffffffffffffffffffffffffffffffff1681565b600080610422610451565b90506000670de0b6b3a7640000828561043b9190610964565b610445919061081c565b90508092505050919050565b60008073d4a33860578de61dbabdc8bfdb98fd742fa7028e905060008173ffffffffffffffffffffffffffffffffffffffff1663feaf968c6040518163ffffffff1660e01b815260040160a06040518083038186803b1580156104b357600080fd5b505afa1580156104c7573d6000803e3d6000fd5b505050506040513d601f19601f820116820180604052508101906104eb9190610673565b5050509150506402540be40081610502919061084d565b9250505090565b828054828255906000526020600020908101928215610582579160200282015b828111156105815782518260006101000a81548173ffffffffffffffffffffffffffffffffffffffff021916908373ffffffffffffffffffffffffffffffffffffffff16021790555091602001919060010190610529565b5b50905061058f9190610593565b5090565b5b808211156105ac576000816000905550600101610594565b5090565b6000813590506105bf81610b79565b92915050565b6000815190506105d481610b90565b92915050565b6000813590506105e981610ba7565b92915050565b6000815190506105fe81610ba7565b92915050565b60008151905061061381610bbe565b92915050565b60006020828403121561062f5761062e610b1f565b5b600061063d848285016105b0565b91505092915050565b60006020828403121561065c5761065b610b1f565b5b600061066a848285016105da565b91505092915050565b600080600080600060a0868803121561068f5761068e610b1f565b5b600061069d88828901610604565b95505060206106ae888289016105c5565b94505060406106bf888289016105ef565b93505060606106d0888289016105ef565b92505060806106e188828901610604565b9150509295509295909350565b6106f7816109be565b82525050565b600061070a60168361080b565b915061071582610b24565b602082019050919050565b600061072d600083610800565b915061073882610b4d565b600082019050919050565b600061075060138361080b565b915061075b82610b50565b602082019050919050565b61076f816109fa565b82525050565b600061078082610720565b9150819050919050565b600060208201905061079f60008301846106ee565b92915050565b600060208201905081810360008301526107be816106fd565b9050919050565b600060208201905081810360008301526107de81610743565b9050919050565b60006020820190506107fa6000830184610766565b92915050565b600081905092915050565b600082825260208201905092915050565b6000610827826109fa565b9150610832836109fa565b92508261084257610841610a92565b5b828204905092915050565b6000610858826109d0565b9150610863836109d0565b9250827f7fffffffffffffffffffffffffffffffffffffffffffffffffffffffffffffff04821160008413600084131616156108a2576108a1610a63565b5b817f800000000000000000000000000000000000000000000000000000000000000005831260008412600084131616156108df576108de610a63565b5b827f8000000000000000000000000000000000000000000000000000000000000000058212600084136000841216161561091c5761091b610a63565b5b827f7fffffffffffffffffffffffffffffffffffffffffffffffffffffffffffffff058212600084126000841216161561095957610958610a63565b5b828202905092915050565b600061096f826109fa565b915061097a836109fa565b9250817fffffffffffffffffffffffffffffffffffffffffffffffffffffffffffffffff04831182151516156109b3576109b2610a63565b5b828202905092915050565b60006109c9826109da565b9050919050565b6000819050919050565b600073ffffffffffffffffffffffffffffffffffffffff82169050919050565b6000819050919050565b600069ffffffffffffffffffff82169050919050565b6000610a25826109fa565b91507fffffffffffffffffffffffffffffffffffffffffffffffffffffffffffffffff821415610a5857610a57610a63565b5b600182019050919050565b7f4e487b7100000000000000000000000000000000000000000000000000000000600052601160045260246000fd5b7f4e487b7100000000000000000000000000000000000000000000000000000000600052601260045260246000fd5b7f4e487b7100000000000000000000000000000000000000000000000000000000600052603260045260246000fd5b7f4e487b7100000000000000000000000000000000000000000000000000000000600052604160045260246000fd5b600080fd5b7f576974686472617720756e7375636365737366756c6c00000000000000000000600082015250565b50565b7f4469646e27742073656e6420656e6f7567682100000000000000000000000000600082015250565b610b82816109be565b8114610b8d57600080fd5b50565b610b99816109d0565b8114610ba457600080fd5b50565b610bb0816109fa565b8114610bbb57600080fd5b50565b610bc781610a04565b8114610bd257600080fd5b5056fea26469706673582212204d8ae1d7ca89ed0080cd382b025b7341dff7b3c21f819d45d13bf5daada99c2a64736f6c63430008070033",
					"opcodes": "PUSH1 0x80 PUSH1 0x40 MSTORE PUSH8 0x8AC7230489E80000 PUSH1 0x0 SSTORE CALLVALUE DUP1 ISZERO PUSH2 0x1C JUMPI PUSH1 0x0 DUP1 REVERT JUMPDEST POP PUSH2 0xC0B DUP1 PUSH2 0x2C PUSH1 0x0 CODECOPY PUSH1 0x0 RETURN INVALID PUSH1 0x80 PUSH1 0x40 MSTORE PUSH1 0x4 CALLDATASIZE LT PUSH2 0x4A JUMPI PUSH1 0x0 CALLDATALOAD PUSH1 0xE0 SHR DUP1 PUSH4 0x3430A88C EQ PUSH2 0x4F JUMPI DUP1 PUSH4 0x3CCFD60B EQ PUSH2 0x7A JUMPI DUP1 PUSH4 0x3E47D6F3 EQ PUSH2 0x84 JUMPI DUP1 PUSH4 0xB60D4288 EQ PUSH2 0xC1 JUMPI DUP1 PUSH4 0xDC0D3DFF EQ PUSH2 0xCB JUMPI JUMPDEST PUSH1 0x0 DUP1 REVERT JUMPDEST CALLVALUE DUP1 ISZERO PUSH2 0x5B JUMPI PUSH1 0x0 DUP1 REVERT JUMPDEST POP PUSH2 0x64 PUSH2 0x108 JUMP JUMPDEST PUSH1 0x40 MLOAD PUSH2 0x71 SWAP2 SWAP1 PUSH2 0x7E5 JUMP JUMPDEST PUSH1 0x40 MLOAD DUP1 SWAP2 SUB SWAP1 RETURN JUMPDEST PUSH2 0x82 PUSH2 0x10E JUMP JUMPDEST STOP JUMPDEST CALLVALUE DUP1 ISZERO PUSH2 0x90 JUMPI PUSH1 0x0 DUP1 REVERT JUMPDEST POP PUSH2 0xAB PUSH1 0x4 DUP1 CALLDATASIZE SUB DUP2 ADD SWAP1 PUSH2 0xA6 SWAP2 SWAP1 PUSH2 0x619 JUMP JUMPDEST PUSH2 0x2CA JUMP JUMPDEST PUSH1 0x40 MLOAD PUSH2 0xB8 SWAP2 SWAP1 PUSH2 0x7E5 JUMP JUMPDEST PUSH1 0x40 MLOAD DUP1 SWAP2 SUB SWAP1 RETURN JUMPDEST PUSH2 0xC9 PUSH2 0x2E2 JUMP JUMPDEST STOP JUMPDEST CALLVALUE DUP1 ISZERO PUSH2 0xD7 JUMPI PUSH1 0x0 DUP1 REVERT JUMPDEST POP PUSH2 0xF2 PUSH1 0x4 DUP1 CALLDATASIZE SUB DUP2 ADD SWAP1 PUSH2 0xED SWAP2 SWAP1 PUSH2 0x646 JUMP JUMPDEST PUSH2 0x3D8 JUMP JUMPDEST PUSH1 0x40 MLOAD PUSH2 0xFF SWAP2 SWAP1 PUSH2 0x78A JUMP JUMPDEST PUSH1 0x40 MLOAD DUP1 SWAP2 SUB SWAP1 RETURN JUMPDEST PUSH1 0x0 SLOAD DUP2 JUMP JUMPDEST PUSH1 0x0 JUMPDEST PUSH1 0x1 DUP1 SLOAD SWAP1 POP DUP2 LT ISZERO PUSH2 0x1BA JUMPI PUSH1 0x0 PUSH1 0x1 DUP3 DUP2 SLOAD DUP2 LT PUSH2 0x134 JUMPI PUSH2 0x133 PUSH2 0xAC1 JUMP JUMPDEST JUMPDEST SWAP1 PUSH1 0x0 MSTORE PUSH1 0x20 PUSH1 0x0 KECCAK256 ADD PUSH1 0x0 SWAP1 SLOAD SWAP1 PUSH2 0x100 EXP SWAP1 DIV PUSH20 0xFFFFFFFFFFFFFFFFFFFFFFFFFFFFFFFFFFFFFFFF AND SWAP1 POP PUSH1 0x0 PUSH1 0x2 PUSH1 0x0 DUP4 PUSH20 0xFFFFFFFFFFFFFFFFFFFFFFFFFFFFFFFFFFFFFFFF AND PUSH20 0xFFFFFFFFFFFFFFFFFFFFFFFFFFFFFFFFFFFFFFFF AND DUP2 MSTORE PUSH1 0x20 ADD SWAP1 DUP2 MSTORE PUSH1 0x20 ADD PUSH1 0x0 KECCAK256 DUP2 SWAP1 SSTORE POP POP DUP1 DUP1 PUSH2 0x1B2 SWAP1 PUSH2 0xA1A JUMP JUMPDEST SWAP2 POP POP PUSH2 0x111 JUMP JUMPDEST POP PUSH1 0x0 PUSH8 0xFFFFFFFFFFFFFFFF DUP2 GT ISZERO PUSH2 0x1D6 JUMPI PUSH2 0x1D5 PUSH2 0xAF0 JUMP JUMPDEST JUMPDEST PUSH1 0x40 MLOAD SWAP1 DUP1 DUP3 MSTORE DUP1 PUSH1 0x20 MUL PUSH1 0x20 ADD DUP3 ADD PUSH1 0x40 MSTORE DUP1 ISZERO PUSH2 0x204 JUMPI DUP2 PUSH1 0x20 ADD PUSH1 0x20 DUP3 MUL DUP1 CALLDATASIZE DUP4 CALLDATACOPY DUP1 DUP3 ADD SWAP2 POP POP SWAP1 POP JUMPDEST POP PUSH1 0x1 SWAP1 DUP1 MLOAD SWAP1 PUSH1 0x20 ADD SWAP1 PUSH2 0x21A SWAP3 SWAP2 SWAP1 PUSH2 0x509 JUMP JUMPDEST POP PUSH1 0x0 CALLER PUSH20 0xFFFFFFFFFFFFFFFFFFFFFFFFFFFFFFFFFFFFFFFF AND SELFBALANCE PUSH1 0x40 MLOAD PUSH2 0x241 SWAP1 PUSH2 0x775 JUMP JUMPDEST PUSH1 0x0 PUSH1 0x40 MLOAD DUP1 DUP4 SUB DUP2 DUP6 DUP8 GAS CALL SWAP3 POP POP POP RETURNDATASIZE DUP1 PUSH1 0x0 DUP2 EQ PUSH2 0x27E JUMPI PUSH1 0x40 MLOAD SWAP2 POP PUSH1 0x1F NOT PUSH1 0x3F RETURNDATASIZE ADD AND DUP3 ADD PUSH1 0x40 MSTORE RETURNDATASIZE DUP3 MSTORE RETURNDATASIZE PUSH1 0x0 PUSH1 0x20 DUP5 ADD RETURNDATACOPY PUSH2 0x283 JUMP JUMPDEST PUSH1 0x60 SWAP2 POP JUMPDEST POP POP SWAP1 POP DUP1 PUSH2 0x2C7 JUMPI PUSH1 0x40 MLOAD PUSH32 0x8C379A000000000000000000000000000000000000000000000000000000000 DUP2 MSTORE PUSH1 0x4 ADD PUSH2 0x2BE SWAP1 PUSH2 0x7A5 JUMP JUMPDEST PUSH1 0x40 MLOAD DUP1 SWAP2 SUB SWAP1 REVERT JUMPDEST POP JUMP JUMPDEST PUSH1 0x2 PUSH1 0x20 MSTORE DUP1 PUSH1 0x0 MSTORE PUSH1 0x40 PUSH1 0x0 KECCAK256 PUSH1 0x0 SWAP2 POP SWAP1 POP SLOAD DUP2 JUMP JUMPDEST PUSH1 0x0 SLOAD PUSH2 0x2EE CALLVALUE PUSH2 0x417 JUMP JUMPDEST LT ISZERO PUSH2 0x32F JUMPI PUSH1 0x40 MLOAD PUSH32 0x8C379A000000000000000000000000000000000000000000000000000000000 DUP2 MSTORE PUSH1 0x4 ADD PUSH2 0x326 SWAP1 PUSH2 0x7C5 JUMP JUMPDEST PUSH1 0x40 MLOAD DUP1 SWAP2 SUB SWAP1 REVERT JUMPDEST PUSH1 0x1 CALLER SWAP1 DUP1 PUSH1 0x1 DUP2 SLOAD ADD DUP1 DUP3 SSTORE DUP1 SWAP2 POP POP PUSH1 0x1 SWAP1 SUB SWAP1 PUSH1 0x0 MSTORE PUSH1 0x20 PUSH1 0x0 KECCAK256 ADD PUSH1 0x0 SWAP1 SWAP2 SWAP1 SWAP2 SWAP1 SWAP2 PUSH2 0x100 EXP DUP2 SLOAD DUP2 PUSH20 0xFFFFFFFFFFFFFFFFFFFFFFFFFFFFFFFFFFFFFFFF MUL NOT AND SWAP1 DUP4 PUSH20 0xFFFFFFFFFFFFFFFFFFFFFFFFFFFFFFFFFFFFFFFF AND MUL OR SWAP1 SSTORE POP CALLVALUE PUSH1 0x2 PUSH1 0x0 CALLER PUSH20 0xFFFFFFFFFFFFFFFFFFFFFFFFFFFFFFFFFFFFFFFF AND PUSH20 0xFFFFFFFFFFFFFFFFFFFFFFFFFFFFFFFFFFFFFFFF AND DUP2 MSTORE PUSH1 0x20 ADD SWAP1 DUP2 MSTORE PUSH1 0x20 ADD PUSH1 0x0 KECCAK256 DUP2 SWAP1 SSTORE POP JUMP JUMPDEST PUSH1 0x1 DUP2 DUP2 SLOAD DUP2 LT PUSH2 0x3E8 JUMPI PUSH1 0x0 DUP1 REVERT JUMPDEST SWAP1 PUSH1 0x0 MSTORE PUSH1 0x20 PUSH1 0x0 KECCAK256 ADD PUSH1 0x0 SWAP2 POP SLOAD SWAP1 PUSH2 0x100 EXP SWAP1 DIV PUSH20 0xFFFFFFFFFFFFFFFFFFFFFFFFFFFFFFFFFFFFFFFF AND DUP2 JUMP JUMPDEST PUSH1 0x0 DUP1 PUSH2 0x422 PUSH2 0x451 JUMP JUMPDEST SWAP1 POP PUSH1 0x0 PUSH8 0xDE0B6B3A7640000 DUP3 DUP6 PUSH2 0x43B SWAP2 SWAP1 PUSH2 0x964 JUMP JUMPDEST PUSH2 0x445 SWAP2 SWAP1 PUSH2 0x81C JUMP JUMPDEST SWAP1 POP DUP1 SWAP3 POP POP POP SWAP2 SWAP1 POP JUMP JUMPDEST PUSH1 0x0 DUP1 PUSH20 0xD4A33860578DE61DBABDC8BFDB98FD742FA7028E SWAP1 POP PUSH1 0x0 DUP2 PUSH20 0xFFFFFFFFFFFFFFFFFFFFFFFFFFFFFFFFFFFFFFFF AND PUSH4 0xFEAF968C PUSH1 0x40 MLOAD DUP2 PUSH4 0xFFFFFFFF AND PUSH1 0xE0 SHL DUP2 MSTORE PUSH1 0x4 ADD PUSH1 0xA0 PUSH1 0x40 MLOAD DUP1 DUP4 SUB DUP2 DUP7 DUP1 EXTCODESIZE ISZERO DUP1 ISZERO PUSH2 0x4B3 JUMPI PUSH1 0x0 DUP1 REVERT JUMPDEST POP GAS STATICCALL ISZERO DUP1 ISZERO PUSH2 0x4C7 JUMPI RETURNDATASIZE PUSH1 0x0 DUP1 RETURNDATACOPY RETURNDATASIZE PUSH1 0x0 REVERT JUMPDEST POP POP POP POP PUSH1 0x40 MLOAD RETURNDATASIZE PUSH1 0x1F NOT PUSH1 0x1F DUP3 ADD AND DUP3 ADD DUP1 PUSH1 0x40 MSTORE POP DUP2 ADD SWAP1 PUSH2 0x4EB SWAP2 SWAP1 PUSH2 0x673 JUMP JUMPDEST POP POP POP SWAP2 POP POP PUSH5 0x2540BE400 DUP2 PUSH2 0x502 SWAP2 SWAP1 PUSH2 0x84D JUMP JUMPDEST SWAP3 POP POP POP SWAP1 JUMP JUMPDEST DUP3 DUP1 SLOAD DUP3 DUP3 SSTORE SWAP1 PUSH1 0x0 MSTORE PUSH1 0x20 PUSH1 0x0 KECCAK256 SWAP1 DUP2 ADD SWAP3 DUP3 ISZERO PUSH2 0x582 JUMPI SWAP2 PUSH1 0x20 MUL DUP3 ADD JUMPDEST DUP3 DUP2 GT ISZERO PUSH2 0x581 JUMPI DUP3 MLOAD DUP3 PUSH1 0x0 PUSH2 0x100 EXP DUP2 SLOAD DUP2 PUSH20 0xFFFFFFFFFFFFFFFFFFFFFFFFFFFFFFFFFFFFFFFF MUL NOT AND SWAP1 DUP4 PUSH20 0xFFFFFFFFFFFFFFFFFFFFFFFFFFFFFFFFFFFFFFFF AND MUL OR SWAP1 SSTORE POP SWAP2 PUSH1 0x20 ADD SWAP2 SWAP1 PUSH1 0x1 ADD SWAP1 PUSH2 0x529 JUMP JUMPDEST JUMPDEST POP SWAP1 POP PUSH2 0x58F SWAP2 SWAP1 PUSH2 0x593 JUMP JUMPDEST POP SWAP1 JUMP JUMPDEST JUMPDEST DUP1 DUP3 GT ISZERO PUSH2 0x5AC JUMPI PUSH1 0x0 DUP2 PUSH1 0x0 SWAP1 SSTORE POP PUSH1 0x1 ADD PUSH2 0x594 JUMP JUMPDEST POP SWAP1 JUMP JUMPDEST PUSH1 0x0 DUP2 CALLDATALOAD SWAP1 POP PUSH2 0x5BF DUP2 PUSH2 0xB79 JUMP JUMPDEST SWAP3 SWAP2 POP POP JUMP JUMPDEST PUSH1 0x0 DUP2 MLOAD SWAP1 POP PUSH2 0x5D4 DUP2 PUSH2 0xB90 JUMP JUMPDEST SWAP3 SWAP2 POP POP JUMP JUMPDEST PUSH1 0x0 DUP2 CALLDATALOAD SWAP1 POP PUSH2 0x5E9 DUP2 PUSH2 0xBA7 JUMP JUMPDEST SWAP3 SWAP2 POP POP JUMP JUMPDEST PUSH1 0x0 DUP2 MLOAD SWAP1 POP PUSH2 0x5FE DUP2 PUSH2 0xBA7 JUMP JUMPDEST SWAP3 SWAP2 POP POP JUMP JUMPDEST PUSH1 0x0 DUP2 MLOAD SWAP1 POP PUSH2 0x613 DUP2 PUSH2 0xBBE JUMP JUMPDEST SWAP3 SWAP2 POP POP JUMP JUMPDEST PUSH1 0x0 PUSH1 0x20 DUP3 DUP5 SUB SLT ISZERO PUSH2 0x62F JUMPI PUSH2 0x62E PUSH2 0xB1F JUMP JUMPDEST JUMPDEST PUSH1 0x0 PUSH2 0x63D DUP5 DUP3 DUP6 ADD PUSH2 0x5B0 JUMP JUMPDEST SWAP2 POP POP SWAP3 SWAP2 POP POP JUMP JUMPDEST PUSH1 0x0 PUSH1 0x20 DUP3 DUP5 SUB SLT ISZERO PUSH2 0x65C JUMPI PUSH2 0x65B PUSH2 0xB1F JUMP JUMPDEST JUMPDEST PUSH1 0x0 PUSH2 0x66A DUP5 DUP3 DUP6 ADD PUSH2 0x5DA JUMP JUMPDEST SWAP2 POP POP SWAP3 SWAP2 POP POP JUMP JUMPDEST PUSH1 0x0 DUP1 PUSH1 0x0 DUP1 PUSH1 0x0 PUSH1 0xA0 DUP7 DUP9 SUB SLT ISZERO PUSH2 0x68F JUMPI PUSH2 0x68E PUSH2 0xB1F JUMP JUMPDEST JUMPDEST PUSH1 0x0 PUSH2 0x69D DUP9 DUP3 DUP10 ADD PUSH2 0x604 JUMP JUMPDEST SWAP6 POP POP PUSH1 0x20 PUSH2 0x6AE DUP9 DUP3 DUP10 ADD PUSH2 0x5C5 JUMP JUMPDEST SWAP5 POP POP PUSH1 0x40 PUSH2 0x6BF DUP9 DUP3 DUP10 ADD PUSH2 0x5EF JUMP JUMPDEST SWAP4 POP POP PUSH1 0x60 PUSH2 0x6D0 DUP9 DUP3 DUP10 ADD PUSH2 0x5EF JUMP JUMPDEST SWAP3 POP POP PUSH1 0x80 PUSH2 0x6E1 DUP9 DUP3 DUP10 ADD PUSH2 0x604 JUMP JUMPDEST SWAP2 POP POP SWAP3 SWAP6 POP SWAP3 SWAP6 SWAP1 SWAP4 POP JUMP JUMPDEST PUSH2 0x6F7 DUP2 PUSH2 0x9BE JUMP JUMPDEST DUP3 MSTORE POP POP JUMP JUMPDEST PUSH1 0x0 PUSH2 0x70A PUSH1 0x16 DUP4 PUSH2 0x80B JUMP JUMPDEST SWAP2 POP PUSH2 0x715 DUP3 PUSH2 0xB24 JUMP JUMPDEST PUSH1 0x20 DUP3 ADD SWAP1 POP SWAP2 SWAP1 POP JUMP JUMPDEST PUSH1 0x0 PUSH2 0x72D PUSH1 0x0 DUP4 PUSH2 0x800 JUMP JUMPDEST SWAP2 POP PUSH2 0x738 DUP3 PUSH2 0xB4D JUMP JUMPDEST PUSH1 0x0 DUP3 ADD SWAP1 POP SWAP2 SWAP1 POP JUMP JUMPDEST PUSH1 0x0 PUSH2 0x750 PUSH1 0x13 DUP4 PUSH2 0x80B JUMP JUMPDEST SWAP2 POP PUSH2 0x75B DUP3 PUSH2 0xB50 JUMP JUMPDEST PUSH1 0x20 DUP3 ADD SWAP1 POP SWAP2 SWAP1 POP JUMP JUMPDEST PUSH2 0x76F DUP2 PUSH2 0x9FA JUMP JUMPDEST DUP3 MSTORE POP POP JUMP JUMPDEST PUSH1 0x0 PUSH2 0x780 DUP3 PUSH2 0x720 JUMP JUMPDEST SWAP2 POP DUP2 SWAP1 POP SWAP2 SWAP1 POP JUMP JUMPDEST PUSH1 0x0 PUSH1 0x20 DUP3 ADD SWAP1 POP PUSH2 0x79F PUSH1 0x0 DUP4 ADD DUP5 PUSH2 0x6EE JUMP JUMPDEST SWAP3 SWAP2 POP POP JUMP JUMPDEST PUSH1 0x0 PUSH1 0x20 DUP3 ADD SWAP1 POP DUP2 DUP2 SUB PUSH1 0x0 DUP4 ADD MSTORE PUSH2 0x7BE DUP2 PUSH2 0x6FD JUMP JUMPDEST SWAP1 POP SWAP2 SWAP1 POP JUMP JUMPDEST PUSH1 0x0 PUSH1 0x20 DUP3 ADD SWAP1 POP DUP2 DUP2 SUB PUSH1 0x0 DUP4 ADD MSTORE PUSH2 0x7DE DUP2 PUSH2 0x743 JUMP JUMPDEST SWAP1 POP SWAP2 SWAP1 POP JUMP JUMPDEST PUSH1 0x0 PUSH1 0x20 DUP3 ADD SWAP1 POP PUSH2 0x7FA PUSH1 0x0 DUP4 ADD DUP5 PUSH2 0x766 JUMP JUMPDEST SWAP3 SWAP2 POP POP JUMP JUMPDEST PUSH1 0x0 DUP2 SWAP1 POP SWAP3 SWAP2 POP POP JUMP JUMPDEST PUSH1 0x0 DUP3 DUP3 MSTORE PUSH1 0x20 DUP3 ADD SWAP1 POP SWAP3 SWAP2 POP POP JUMP JUMPDEST PUSH1 0x0 PUSH2 0x827 DUP3 PUSH2 0x9FA JUMP JUMPDEST SWAP2 POP PUSH2 0x832 DUP4 PUSH2 0x9FA JUMP JUMPDEST SWAP3 POP DUP3 PUSH2 0x842 JUMPI PUSH2 0x841 PUSH2 0xA92 JUMP JUMPDEST JUMPDEST DUP3 DUP3 DIV SWAP1 POP SWAP3 SWAP2 POP POP JUMP JUMPDEST PUSH1 0x0 PUSH2 0x858 DUP3 PUSH2 0x9D0 JUMP JUMPDEST SWAP2 POP PUSH2 0x863 DUP4 PUSH2 0x9D0 JUMP JUMPDEST SWAP3 POP DUP3 PUSH32 0x7FFFFFFFFFFFFFFFFFFFFFFFFFFFFFFFFFFFFFFFFFFFFFFFFFFFFFFFFFFFFFFF DIV DUP3 GT PUSH1 0x0 DUP5 SGT PUSH1 0x0 DUP5 SGT AND AND ISZERO PUSH2 0x8A2 JUMPI PUSH2 0x8A1 PUSH2 0xA63 JUMP JUMPDEST JUMPDEST DUP2 PUSH32 0x8000000000000000000000000000000000000000000000000000000000000000 SDIV DUP4 SLT PUSH1 0x0 DUP5 SLT PUSH1 0x0 DUP5 SGT AND AND ISZERO PUSH2 0x8DF JUMPI PUSH2 0x8DE PUSH2 0xA63 JUMP JUMPDEST JUMPDEST DUP3 PUSH32 0x8000000000000000000000000000000000000000000000000000000000000000 SDIV DUP3 SLT PUSH1 0x0 DUP5 SGT PUSH1 0x0 DUP5 SLT AND AND ISZERO PUSH2 0x91C JUMPI PUSH2 0x91B PUSH2 0xA63 JUMP JUMPDEST JUMPDEST DUP3 PUSH32 0x7FFFFFFFFFFFFFFFFFFFFFFFFFFFFFFFFFFFFFFFFFFFFFFFFFFFFFFFFFFFFFFF SDIV DUP3 SLT PUSH1 0x0 DUP5 SLT PUSH1 0x0 DUP5 SLT AND AND ISZERO PUSH2 0x959 JUMPI PUSH2 0x958 PUSH2 0xA63 JUMP JUMPDEST JUMPDEST DUP3 DUP3 MUL SWAP1 POP SWAP3 SWAP2 POP POP JUMP JUMPDEST PUSH1 0x0 PUSH2 0x96F DUP3 PUSH2 0x9FA JUMP JUMPDEST SWAP2 POP PUSH2 0x97A DUP4 PUSH2 0x9FA JUMP JUMPDEST SWAP3 POP DUP2 PUSH32 0xFFFFFFFFFFFFFFFFFFFFFFFFFFFFFFFFFFFFFFFFFFFFFFFFFFFFFFFFFFFFFFFF DIV DUP4 GT DUP3 ISZERO ISZERO AND ISZERO PUSH2 0x9B3 JUMPI PUSH2 0x9B2 PUSH2 0xA63 JUMP JUMPDEST JUMPDEST DUP3 DUP3 MUL SWAP1 POP SWAP3 SWAP2 POP POP JUMP JUMPDEST PUSH1 0x0 PUSH2 0x9C9 DUP3 PUSH2 0x9DA JUMP JUMPDEST SWAP1 POP SWAP2 SWAP1 POP JUMP JUMPDEST PUSH1 0x0 DUP2 SWAP1 POP SWAP2 SWAP1 POP JUMP JUMPDEST PUSH1 0x0 PUSH20 0xFFFFFFFFFFFFFFFFFFFFFFFFFFFFFFFFFFFFFFFF DUP3 AND SWAP1 POP SWAP2 SWAP1 POP JUMP JUMPDEST PUSH1 0x0 DUP2 SWAP1 POP SWAP2 SWAP1 POP JUMP JUMPDEST PUSH1 0x0 PUSH10 0xFFFFFFFFFFFFFFFFFFFF DUP3 AND SWAP1 POP SWAP2 SWAP1 POP JUMP JUMPDEST PUSH1 0x0 PUSH2 0xA25 DUP3 PUSH2 0x9FA JUMP JUMPDEST SWAP2 POP PUSH32 0xFFFFFFFFFFFFFFFFFFFFFFFFFFFFFFFFFFFFFFFFFFFFFFFFFFFFFFFFFFFFFFFF DUP3 EQ ISZERO PUSH2 0xA58 JUMPI PUSH2 0xA57 PUSH2 0xA63 JUMP JUMPDEST JUMPDEST PUSH1 0x1 DUP3 ADD SWAP1 POP SWAP2 SWAP1 POP JUMP JUMPDEST PUSH32 0x4E487B7100000000000000000000000000000000000000000000000000000000 PUSH1 0x0 MSTORE PUSH1 0x11 PUSH1 0x4 MSTORE PUSH1 0x24 PUSH1 0x0 REVERT JUMPDEST PUSH32 0x4E487B7100000000000000000000000000000000000000000000000000000000 PUSH1 0x0 MSTORE PUSH1 0x12 PUSH1 0x4 MSTORE PUSH1 0x24 PUSH1 0x0 REVERT JUMPDEST PUSH32 0x4E487B7100000000000000000000000000000000000000000000000000000000 PUSH1 0x0 MSTORE PUSH1 0x32 PUSH1 0x4 MSTORE PUSH1 0x24 PUSH1 0x0 REVERT JUMPDEST PUSH32 0x4E487B7100000000000000000000000000000000000000000000000000000000 PUSH1 0x0 MSTORE PUSH1 0x41 PUSH1 0x4 MSTORE PUSH1 0x24 PUSH1 0x0 REVERT JUMPDEST PUSH1 0x0 DUP1 REVERT JUMPDEST PUSH32 0x576974686472617720756E7375636365737366756C6C00000000000000000000 PUSH1 0x0 DUP3 ADD MSTORE POP JUMP JUMPDEST POP JUMP JUMPDEST PUSH32 0x4469646E27742073656E6420656E6F7567682100000000000000000000000000 PUSH1 0x0 DUP3 ADD MSTORE POP JUMP JUMPDEST PUSH2 0xB82 DUP2 PUSH2 0x9BE JUMP JUMPDEST DUP2 EQ PUSH2 0xB8D JUMPI PUSH1 0x0 DUP1 REVERT JUMPDEST POP JUMP JUMPDEST PUSH2 0xB99 DUP2 PUSH2 0x9D0 JUMP JUMPDEST DUP2 EQ PUSH2 0xBA4 JUMPI PUSH1 0x0 DUP1 REVERT JUMPDEST POP JUMP JUMPDEST PUSH2 0xBB0 DUP2 PUSH2 0x9FA JUMP JUMPDEST DUP2 EQ PUSH2 0xBBB JUMPI PUSH1 0x0 DUP1 REVERT JUMPDEST POP JUMP JUMPDEST PUSH2 0xBC7 DUP2 PUSH2 0xA04 JUMP JUMPDEST DUP2 EQ PUSH2 0xBD2 JUMPI PUSH1 0x0 DUP1 REVERT JUMPDEST POP JUMP INVALID LOG2 PUSH5 0x6970667358 0x22 SLT KECCAK256 0x4D DUP11 0xE1 0xD7 0xCA DUP10 0xED STOP DUP1 0xCD CODESIZE 0x2B MUL JUMPDEST PUSH20 0x41DFF7B3C21F819D45D13BF5DAADA99C2A64736F PUSH13 0x63430008070033000000000000 "
				},
				"gasEstimates": {
					"creation": {
						"codeDepositCost": "616600",
						"executionCost": "22757",
						"totalCost": "639357"
					},
					"external": {
						"addressToAmountFunded(address)": "2836",
						"fund()": "infinite",
						"funders(uint256)": "5022",
						"minimumUSD()": "2407",
						"withdraw()": "infinite"
					}
				},
				"methodIdentifiers": {
					"addressToAmountFunded(address)": "3e47d6f3",
					"fund()": "b60d4288",
					"funders(uint256)": "dc0d3dff",
					"minimumUSD()": "3430a88c",
					"withdraw()": "3ccfd60b"
				}
			},
			"storageLayout": {
				"storage": [
					{
						"astId": 56,
						"contract": "contracts/NewFundMe.sol:NewFundMe",
						"label": "minimumUSD",
						"offset": 0,
						"slot": "0",
						"type": "t_uint256"
					},
					{
						"astId": 59,
						"contract": "contracts/NewFundMe.sol:NewFundMe",
						"label": "funders",
						"offset": 0,
						"slot": "1",
						"type": "t_array(t_address)dyn_storage"
					},
					{
						"astId": 63,
						"contract": "contracts/NewFundMe.sol:NewFundMe",
						"label": "addressToAmountFunded",
						"offset": 0,
						"slot": "2",
						"type": "t_mapping(t_address,t_uint256)"
					}
				],
				"types": {
					"t_address": {
						"encoding": "inplace",
						"label": "address",
						"numberOfBytes": "20"
					},
					"t_array(t_address)dyn_storage": {
						"base": "t_address",
						"encoding": "dynamic_array",
						"label": "address[]",
						"numberOfBytes": "32"
					},
					"t_mapping(t_address,t_uint256)": {
						"encoding": "mapping",
						"key": "t_address",
						"label": "mapping(address => uint256)",
						"numberOfBytes": "32",
						"value": "t_uint256"
					},
					"t_uint256": {
						"encoding": "inplace",
						"label": "uint256",
						"numberOfBytes": "32"
					}
				}
			},
			"userdoc": {
				"kind": "user",
				"methods": {},
				"version": 1
			}
		}
	}
}