{
	"contracts/NewFundMe.sol": {
		"NewFundMe": {
			"abi": [
				{
					"inputs": [],
					"name": "fund",
					"outputs": [],
					"stateMutability": "payable",
					"type": "function"
				},
				{
					"inputs": [],
					"name": "minimumUSD",
					"outputs": [
						{
							"internalType": "uint256",
							"name": "",
							"type": "uint256"
						}
					],
					"stateMutability": "view",
					"type": "function"
				},
				{
					"inputs": [],
					"name": "withdraw",
					"outputs": [],
					"stateMutability": "payable",
					"type": "function"
				}
			],
			"devdoc": {
				"kind": "dev",
				"methods": {},
				"version": 1
			},
			"evm": {
				"assembly": "    /* \"contracts/NewFundMe.sol\":100:402  contract NewFundMe{\r... */\n  mstore(0x40, 0x80)\n    /* \"contracts/NewFundMe.sol\":199:208  10 * 1e18 */\n  0x8ac7230489e80000\n    /* \"contracts/NewFundMe.sol\":171:208  uint256 public minimumUSD = 10 * 1e18 */\n  0x00\n  sstore\n    /* \"contracts/NewFundMe.sol\":100:402  contract NewFundMe{\r... */\n  callvalue\n  dup1\n  iszero\n  tag_1\n  jumpi\n  0x00\n  dup1\n  revert\ntag_1:\n  pop\n  dataSize(sub_0)\n  dup1\n  dataOffset(sub_0)\n  0x00\n  codecopy\n  0x00\n  return\nstop\n\nsub_0: assembly {\n        /* \"contracts/NewFundMe.sol\":100:402  contract NewFundMe{\r... */\n      mstore(0x40, 0x80)\n      jumpi(tag_1, lt(calldatasize, 0x04))\n      shr(0xe0, calldataload(0x00))\n      dup1\n      0x3430a88c\n      eq\n      tag_2\n      jumpi\n      dup1\n      0x3ccfd60b\n      eq\n      tag_3\n      jumpi\n      dup1\n      0xb60d4288\n      eq\n      tag_4\n      jumpi\n    tag_1:\n      0x00\n      dup1\n      revert\n        /* \"contracts/NewFundMe.sol\":171:208  uint256 public minimumUSD = 10 * 1e18 */\n    tag_2:\n      callvalue\n      dup1\n      iszero\n      tag_5\n      jumpi\n      0x00\n      dup1\n      revert\n    tag_5:\n      pop\n      tag_6\n      tag_7\n      jump\t// in\n    tag_6:\n      mload(0x40)\n      tag_8\n      swap2\n      swap1\n      tag_9\n      jump\t// in\n    tag_8:\n      mload(0x40)\n      dup1\n      swap2\n      sub\n      swap1\n      return\n        /* \"contracts/NewFundMe.sol\":354:399  function withdraw() public payable {\r... */\n    tag_3:\n      tag_10\n      tag_11\n      jump\t// in\n    tag_10:\n      stop\n        /* \"contracts/NewFundMe.sol\":217:346  function fund() public payable {\r... */\n    tag_4:\n      tag_12\n      tag_13\n      jump\t// in\n    tag_12:\n      stop\n        /* \"contracts/NewFundMe.sol\":171:208  uint256 public minimumUSD = 10 * 1e18 */\n    tag_7:\n      sload(0x00)\n      dup2\n      jump\t// out\n        /* \"contracts/NewFundMe.sol\":354:399  function withdraw() public payable {\r... */\n    tag_11:\n      jump\t// out\n        /* \"contracts/NewFundMe.sol\":217:346  function fund() public payable {\r... */\n    tag_13:\n        /* \"contracts/NewFundMe.sol\":302:312  minimumUSD */\n      sload(0x00)\n        /* \"contracts/NewFundMe.sol\":269:298  msg.value.getConversionRate() */\n      tag_16\n        /* \"contracts/NewFundMe.sol\":269:278  msg.value */\n      callvalue\n        /* \"contracts/NewFundMe.sol\":269:296  msg.value.getConversionRate */\n      tag_17\n        /* \"contracts/NewFundMe.sol\":269:298  msg.value.getConversionRate() */\n      jump\t// in\n    tag_16:\n        /* \"contracts/NewFundMe.sol\":269:312  msg.value.getConversionRate() >= minimumUSD */\n      lt\n      iszero\n        /* \"contracts/NewFundMe.sol\":261:336  require(msg.value.getConversionRate() >= minimumUSD, \"Didn't send enough!\") */\n      tag_18\n      jumpi\n      mload(0x40)\n      0x08c379a000000000000000000000000000000000000000000000000000000000\n      dup2\n      mstore\n      0x04\n      add\n      tag_19\n      swap1\n      tag_20\n      jump\t// in\n    tag_19:\n      mload(0x40)\n      dup1\n      swap2\n      sub\n      swap1\n      revert\n    tag_18:\n        /* \"contracts/NewFundMe.sol\":217:346  function fund() public payable {\r... */\n      jump\t// out\n        /* \"contracts/NewPriceConverter.sol\":470:691  function getConversionRate(uint256 ethAmount) internal view returns(uint256){\r... */\n    tag_17:\n        /* \"contracts/NewPriceConverter.sol\":538:545  uint256 */\n      0x00\n        /* \"contracts/NewPriceConverter.sol\":557:573  uint256 ethPrice */\n      dup1\n        /* \"contracts/NewPriceConverter.sol\":576:586  getPrice() */\n      tag_22\n        /* \"contracts/NewPriceConverter.sol\":576:584  getPrice */\n      tag_23\n        /* \"contracts/NewPriceConverter.sol\":576:586  getPrice() */\n      jump\t// in\n    tag_22:\n        /* \"contracts/NewPriceConverter.sol\":557:586  uint256 ethPrice = getPrice() */\n      swap1\n      pop\n        /* \"contracts/NewPriceConverter.sol\":597:619  uint256 ethAmountInUSD */\n      0x00\n        /* \"contracts/NewPriceConverter.sol\":647:651  1e18 */\n      0x0de0b6b3a7640000\n        /* \"contracts/NewPriceConverter.sol\":635:643  ethPrice */\n      dup3\n        /* \"contracts/NewPriceConverter.sol\":623:632  ethAmount */\n      dup6\n        /* \"contracts/NewPriceConverter.sol\":623:643  ethAmount * ethPrice */\n      tag_24\n      swap2\n      swap1\n      tag_25\n      jump\t// in\n    tag_24:\n        /* \"contracts/NewPriceConverter.sol\":622:651  (ethAmount * ethPrice) / 1e18 */\n      tag_26\n      swap2\n      swap1\n      tag_27\n      jump\t// in\n    tag_26:\n        /* \"contracts/NewPriceConverter.sol\":597:651  uint256 ethAmountInUSD = (ethAmount * ethPrice) / 1e18 */\n      swap1\n      pop\n        /* \"contracts/NewPriceConverter.sol\":669:683  ethAmountInUSD */\n      dup1\n        /* \"contracts/NewPriceConverter.sol\":662:683  return ethAmountInUSD */\n      swap3\n      pop\n      pop\n      pop\n        /* \"contracts/NewPriceConverter.sol\":470:691  function getConversionRate(uint256 ethAmount) internal view returns(uint256){\r... */\n      swap2\n      swap1\n      pop\n      jump\t// out\n        /* \"contracts/NewPriceConverter.sol\":176:462  function getPrice() internal view returns(uint256){\r... */\n    tag_23:\n        /* \"contracts/NewPriceConverter.sol\":218:225  uint256 */\n      0x00\n        /* \"contracts/NewPriceConverter.sol\":237:268  AggregatorV3Interface priceFeed */\n      dup1\n        /* \"contracts/NewPriceConverter.sol\":293:335  0xD4a33860578De61DBAbDc8BFdb98FD742fA7028e */\n      0xd4a33860578de61dbabdc8bfdb98fd742fa7028e\n        /* \"contracts/NewPriceConverter.sol\":237:336  AggregatorV3Interface priceFeed = AggregatorV3Interface(0xD4a33860578De61DBAbDc8BFdb98FD742fA7028e) */\n      swap1\n      pop\n        /* \"contracts/NewPriceConverter.sol\":350:359  int price */\n      0x00\n        /* \"contracts/NewPriceConverter.sol\":368:377  priceFeed */\n      dup2\n        /* \"contracts/NewPriceConverter.sol\":368:393  priceFeed.latestRoundData */\n      0xffffffffffffffffffffffffffffffffffffffff\n      and\n      0xfeaf968c\n        /* \"contracts/NewPriceConverter.sol\":368:395  priceFeed.latestRoundData() */\n      mload(0x40)\n      dup2\n      0xffffffff\n      and\n      0xe0\n      shl\n      dup2\n      mstore\n      0x04\n      add\n      0xa0\n      mload(0x40)\n      dup1\n      dup4\n      sub\n      dup2\n      dup7\n      dup1\n      extcodesize\n      iszero\n      dup1\n      iszero\n      tag_29\n      jumpi\n      0x00\n      dup1\n      revert\n    tag_29:\n      pop\n      gas\n      staticcall\n      iszero\n      dup1\n      iszero\n      tag_31\n      jumpi\n      returndatasize\n      0x00\n      dup1\n      returndatacopy\n      revert(0x00, returndatasize)\n    tag_31:\n      pop\n      pop\n      pop\n      pop\n      mload(0x40)\n      returndatasize\n      not(0x1f)\n      0x1f\n      dup3\n      add\n      and\n      dup3\n      add\n      dup1\n      0x40\n      mstore\n      pop\n      dup2\n      add\n      swap1\n      tag_32\n      swap2\n      swap1\n      tag_33\n      jump\t// in\n    tag_32:\n        /* \"contracts/NewPriceConverter.sol\":347:395  (, int price, , ,) = priceFeed.latestRoundData() */\n      pop\n      pop\n      pop\n      swap2\n      pop\n      pop\n        /* \"contracts/NewPriceConverter.sol\":429:433  1e10 */\n      0x02540be400\n        /* \"contracts/NewPriceConverter.sol\":421:426  price */\n      dup2\n        /* \"contracts/NewPriceConverter.sol\":421:433  price * 1e10 */\n      tag_34\n      swap2\n      swap1\n      tag_35\n      jump\t// in\n    tag_34:\n        /* \"contracts/NewPriceConverter.sol\":406:434  return uint256(price * 1e10) */\n      swap3\n      pop\n      pop\n      pop\n        /* \"contracts/NewPriceConverter.sol\":176:462  function getPrice() internal view returns(uint256){\r... */\n      swap1\n      jump\t// out\n        /* \"#utility.yul\":7:148   */\n    tag_37:\n        /* \"#utility.yul\":63:68   */\n      0x00\n        /* \"#utility.yul\":94:100   */\n      dup2\n        /* \"#utility.yul\":88:101   */\n      mload\n        /* \"#utility.yul\":79:101   */\n      swap1\n      pop\n        /* \"#utility.yul\":110:142   */\n      tag_39\n        /* \"#utility.yul\":136:141   */\n      dup2\n        /* \"#utility.yul\":110:142   */\n      tag_40\n      jump\t// in\n    tag_39:\n        /* \"#utility.yul\":7:148   */\n      swap3\n      swap2\n      pop\n      pop\n      jump\t// out\n        /* \"#utility.yul\":154:297   */\n    tag_41:\n        /* \"#utility.yul\":211:216   */\n      0x00\n        /* \"#utility.yul\":242:248   */\n      dup2\n        /* \"#utility.yul\":236:249   */\n      mload\n        /* \"#utility.yul\":227:249   */\n      swap1\n      pop\n        /* \"#utility.yul\":258:291   */\n      tag_43\n        /* \"#utility.yul\":285:290   */\n      dup2\n        /* \"#utility.yul\":258:291   */\n      tag_44\n      jump\t// in\n    tag_43:\n        /* \"#utility.yul\":154:297   */\n      swap3\n      swap2\n      pop\n      pop\n      jump\t// out\n        /* \"#utility.yul\":303:444   */\n    tag_45:\n        /* \"#utility.yul\":359:364   */\n      0x00\n        /* \"#utility.yul\":390:396   */\n      dup2\n        /* \"#utility.yul\":384:397   */\n      mload\n        /* \"#utility.yul\":375:397   */\n      swap1\n      pop\n        /* \"#utility.yul\":406:438   */\n      tag_47\n        /* \"#utility.yul\":432:437   */\n      dup2\n        /* \"#utility.yul\":406:438   */\n      tag_48\n      jump\t// in\n    tag_47:\n        /* \"#utility.yul\":303:444   */\n      swap3\n      swap2\n      pop\n      pop\n      jump\t// out\n        /* \"#utility.yul\":450:1421   */\n    tag_33:\n        /* \"#utility.yul\":553:559   */\n      0x00\n        /* \"#utility.yul\":561:567   */\n      dup1\n        /* \"#utility.yul\":569:575   */\n      0x00\n        /* \"#utility.yul\":577:583   */\n      dup1\n        /* \"#utility.yul\":585:591   */\n      0x00\n        /* \"#utility.yul\":634:637   */\n      0xa0\n        /* \"#utility.yul\":622:631   */\n      dup7\n        /* \"#utility.yul\":613:620   */\n      dup9\n        /* \"#utility.yul\":609:632   */\n      sub\n        /* \"#utility.yul\":605:638   */\n      slt\n        /* \"#utility.yul\":602:722   */\n      iszero\n      tag_50\n      jumpi\n        /* \"#utility.yul\":641:720   */\n      tag_51\n      tag_52\n      jump\t// in\n    tag_51:\n        /* \"#utility.yul\":602:722   */\n    tag_50:\n        /* \"#utility.yul\":761:762   */\n      0x00\n        /* \"#utility.yul\":786:849   */\n      tag_53\n        /* \"#utility.yul\":841:848   */\n      dup9\n        /* \"#utility.yul\":832:838   */\n      dup3\n        /* \"#utility.yul\":821:830   */\n      dup10\n        /* \"#utility.yul\":817:839   */\n      add\n        /* \"#utility.yul\":786:849   */\n      tag_45\n      jump\t// in\n    tag_53:\n        /* \"#utility.yul\":776:849   */\n      swap6\n      pop\n        /* \"#utility.yul\":732:859   */\n      pop\n        /* \"#utility.yul\":898:900   */\n      0x20\n        /* \"#utility.yul\":924:987   */\n      tag_54\n        /* \"#utility.yul\":979:986   */\n      dup9\n        /* \"#utility.yul\":970:976   */\n      dup3\n        /* \"#utility.yul\":959:968   */\n      dup10\n        /* \"#utility.yul\":955:977   */\n      add\n        /* \"#utility.yul\":924:987   */\n      tag_37\n      jump\t// in\n    tag_54:\n        /* \"#utility.yul\":914:987   */\n      swap5\n      pop\n        /* \"#utility.yul\":869:997   */\n      pop\n        /* \"#utility.yul\":1036:1038   */\n      0x40\n        /* \"#utility.yul\":1062:1126   */\n      tag_55\n        /* \"#utility.yul\":1118:1125   */\n      dup9\n        /* \"#utility.yul\":1109:1115   */\n      dup3\n        /* \"#utility.yul\":1098:1107   */\n      dup10\n        /* \"#utility.yul\":1094:1116   */\n      add\n        /* \"#utility.yul\":1062:1126   */\n      tag_41\n      jump\t// in\n    tag_55:\n        /* \"#utility.yul\":1052:1126   */\n      swap4\n      pop\n        /* \"#utility.yul\":1007:1136   */\n      pop\n        /* \"#utility.yul\":1175:1177   */\n      0x60\n        /* \"#utility.yul\":1201:1265   */\n      tag_56\n        /* \"#utility.yul\":1257:1264   */\n      dup9\n        /* \"#utility.yul\":1248:1254   */\n      dup3\n        /* \"#utility.yul\":1237:1246   */\n      dup10\n        /* \"#utility.yul\":1233:1255   */\n      add\n        /* \"#utility.yul\":1201:1265   */\n      tag_41\n      jump\t// in\n    tag_56:\n        /* \"#utility.yul\":1191:1265   */\n      swap3\n      pop\n        /* \"#utility.yul\":1146:1275   */\n      pop\n        /* \"#utility.yul\":1314:1317   */\n      0x80\n        /* \"#utility.yul\":1341:1404   */\n      tag_57\n        /* \"#utility.yul\":1396:1403   */\n      dup9\n        /* \"#utility.yul\":1387:1393   */\n      dup3\n        /* \"#utility.yul\":1376:1385   */\n      dup10\n        /* \"#utility.yul\":1372:1394   */\n      add\n        /* \"#utility.yul\":1341:1404   */\n      tag_45\n      jump\t// in\n    tag_57:\n        /* \"#utility.yul\":1331:1404   */\n      swap2\n      pop\n        /* \"#utility.yul\":1285:1414   */\n      pop\n        /* \"#utility.yul\":450:1421   */\n      swap3\n      swap6\n      pop\n      swap3\n      swap6\n      swap1\n      swap4\n      pop\n      jump\t// out\n        /* \"#utility.yul\":1427:1793   */\n    tag_58:\n        /* \"#utility.yul\":1569:1572   */\n      0x00\n        /* \"#utility.yul\":1590:1657   */\n      tag_60\n        /* \"#utility.yul\":1654:1656   */\n      0x13\n        /* \"#utility.yul\":1649:1652   */\n      dup4\n        /* \"#utility.yul\":1590:1657   */\n      tag_61\n      jump\t// in\n    tag_60:\n        /* \"#utility.yul\":1583:1657   */\n      swap2\n      pop\n        /* \"#utility.yul\":1666:1759   */\n      tag_62\n        /* \"#utility.yul\":1755:1758   */\n      dup3\n        /* \"#utility.yul\":1666:1759   */\n      tag_63\n      jump\t// in\n    tag_62:\n        /* \"#utility.yul\":1784:1786   */\n      0x20\n        /* \"#utility.yul\":1779:1782   */\n      dup3\n        /* \"#utility.yul\":1775:1787   */\n      add\n        /* \"#utility.yul\":1768:1787   */\n      swap1\n      pop\n        /* \"#utility.yul\":1427:1793   */\n      swap2\n      swap1\n      pop\n      jump\t// out\n        /* \"#utility.yul\":1799:1917   */\n    tag_64:\n        /* \"#utility.yul\":1886:1910   */\n      tag_66\n        /* \"#utility.yul\":1904:1909   */\n      dup2\n        /* \"#utility.yul\":1886:1910   */\n      tag_67\n      jump\t// in\n    tag_66:\n        /* \"#utility.yul\":1881:1884   */\n      dup3\n        /* \"#utility.yul\":1874:1911   */\n      mstore\n        /* \"#utility.yul\":1799:1917   */\n      pop\n      pop\n      jump\t// out\n        /* \"#utility.yul\":1923:2342   */\n    tag_20:\n        /* \"#utility.yul\":2089:2093   */\n      0x00\n        /* \"#utility.yul\":2127:2129   */\n      0x20\n        /* \"#utility.yul\":2116:2125   */\n      dup3\n        /* \"#utility.yul\":2112:2130   */\n      add\n        /* \"#utility.yul\":2104:2130   */\n      swap1\n      pop\n        /* \"#utility.yul\":2176:2185   */\n      dup2\n        /* \"#utility.yul\":2170:2174   */\n      dup2\n        /* \"#utility.yul\":2166:2186   */\n      sub\n        /* \"#utility.yul\":2162:2163   */\n      0x00\n        /* \"#utility.yul\":2151:2160   */\n      dup4\n        /* \"#utility.yul\":2147:2164   */\n      add\n        /* \"#utility.yul\":2140:2187   */\n      mstore\n        /* \"#utility.yul\":2204:2335   */\n      tag_69\n        /* \"#utility.yul\":2330:2334   */\n      dup2\n        /* \"#utility.yul\":2204:2335   */\n      tag_58\n      jump\t// in\n    tag_69:\n        /* \"#utility.yul\":2196:2335   */\n      swap1\n      pop\n        /* \"#utility.yul\":1923:2342   */\n      swap2\n      swap1\n      pop\n      jump\t// out\n        /* \"#utility.yul\":2348:2570   */\n    tag_9:\n        /* \"#utility.yul\":2441:2445   */\n      0x00\n        /* \"#utility.yul\":2479:2481   */\n      0x20\n        /* \"#utility.yul\":2468:2477   */\n      dup3\n        /* \"#utility.yul\":2464:2482   */\n      add\n        /* \"#utility.yul\":2456:2482   */\n      swap1\n      pop\n        /* \"#utility.yul\":2492:2563   */\n      tag_71\n        /* \"#utility.yul\":2560:2561   */\n      0x00\n        /* \"#utility.yul\":2549:2558   */\n      dup4\n        /* \"#utility.yul\":2545:2562   */\n      add\n        /* \"#utility.yul\":2536:2542   */\n      dup5\n        /* \"#utility.yul\":2492:2563   */\n      tag_64\n      jump\t// in\n    tag_71:\n        /* \"#utility.yul\":2348:2570   */\n      swap3\n      swap2\n      pop\n      pop\n      jump\t// out\n        /* \"#utility.yul\":2657:2826   */\n    tag_61:\n        /* \"#utility.yul\":2741:2752   */\n      0x00\n        /* \"#utility.yul\":2775:2781   */\n      dup3\n        /* \"#utility.yul\":2770:2773   */\n      dup3\n        /* \"#utility.yul\":2763:2782   */\n      mstore\n        /* \"#utility.yul\":2815:2819   */\n      0x20\n        /* \"#utility.yul\":2810:2813   */\n      dup3\n        /* \"#utility.yul\":2806:2820   */\n      add\n        /* \"#utility.yul\":2791:2820   */\n      swap1\n      pop\n        /* \"#utility.yul\":2657:2826   */\n      swap3\n      swap2\n      pop\n      pop\n      jump\t// out\n        /* \"#utility.yul\":2832:3017   */\n    tag_27:\n        /* \"#utility.yul\":2872:2873   */\n      0x00\n        /* \"#utility.yul\":2889:2909   */\n      tag_76\n        /* \"#utility.yul\":2907:2908   */\n      dup3\n        /* \"#utility.yul\":2889:2909   */\n      tag_67\n      jump\t// in\n    tag_76:\n        /* \"#utility.yul\":2884:2909   */\n      swap2\n      pop\n        /* \"#utility.yul\":2923:2943   */\n      tag_77\n        /* \"#utility.yul\":2941:2942   */\n      dup4\n        /* \"#utility.yul\":2923:2943   */\n      tag_67\n      jump\t// in\n    tag_77:\n        /* \"#utility.yul\":2918:2943   */\n      swap3\n      pop\n        /* \"#utility.yul\":2962:2963   */\n      dup3\n        /* \"#utility.yul\":2952:2987   */\n      tag_78\n      jumpi\n        /* \"#utility.yul\":2967:2985   */\n      tag_79\n      tag_80\n      jump\t// in\n    tag_79:\n        /* \"#utility.yul\":2952:2987   */\n    tag_78:\n        /* \"#utility.yul\":3009:3010   */\n      dup3\n        /* \"#utility.yul\":3006:3007   */\n      dup3\n        /* \"#utility.yul\":3002:3011   */\n      div\n        /* \"#utility.yul\":2997:3011   */\n      swap1\n      pop\n        /* \"#utility.yul\":2832:3017   */\n      swap3\n      swap2\n      pop\n      pop\n      jump\t// out\n        /* \"#utility.yul\":3023:4014   */\n    tag_35:\n        /* \"#utility.yul\":3062:3069   */\n      0x00\n        /* \"#utility.yul\":3085:3104   */\n      tag_82\n        /* \"#utility.yul\":3102:3103   */\n      dup3\n        /* \"#utility.yul\":3085:3104   */\n      tag_83\n      jump\t// in\n    tag_82:\n        /* \"#utility.yul\":3080:3104   */\n      swap2\n      pop\n        /* \"#utility.yul\":3118:3137   */\n      tag_84\n        /* \"#utility.yul\":3135:3136   */\n      dup4\n        /* \"#utility.yul\":3118:3137   */\n      tag_83\n      jump\t// in\n    tag_84:\n        /* \"#utility.yul\":3113:3137   */\n      swap3\n      pop\n        /* \"#utility.yul\":3319:3320   */\n      dup3\n        /* \"#utility.yul\":3251:3317   */\n      0x7fffffffffffffffffffffffffffffffffffffffffffffffffffffffffffffff\n        /* \"#utility.yul\":3247:3321   */\n      div\n        /* \"#utility.yul\":3244:3245   */\n      dup3\n        /* \"#utility.yul\":3241:3322   */\n      gt\n        /* \"#utility.yul\":3236:3237   */\n      0x00\n        /* \"#utility.yul\":3233:3234   */\n      dup5\n        /* \"#utility.yul\":3229:3238   */\n      sgt\n        /* \"#utility.yul\":3225:3226   */\n      0x00\n        /* \"#utility.yul\":3222:3223   */\n      dup5\n        /* \"#utility.yul\":3218:3227   */\n      sgt\n        /* \"#utility.yul\":3214:3239   */\n      and\n        /* \"#utility.yul\":3210:3323   */\n      and\n        /* \"#utility.yul\":3207:3346   */\n      iszero\n      tag_85\n      jumpi\n        /* \"#utility.yul\":3326:3344   */\n      tag_86\n      tag_87\n      jump\t// in\n    tag_86:\n        /* \"#utility.yul\":3207:3346   */\n    tag_85:\n        /* \"#utility.yul\":3530:3531   */\n      dup2\n        /* \"#utility.yul\":3462:3528   */\n      0x8000000000000000000000000000000000000000000000000000000000000000\n        /* \"#utility.yul\":3457:3532   */\n      sdiv\n        /* \"#utility.yul\":3454:3455   */\n      dup4\n        /* \"#utility.yul\":3450:3533   */\n      slt\n        /* \"#utility.yul\":3445:3446   */\n      0x00\n        /* \"#utility.yul\":3442:3443   */\n      dup5\n        /* \"#utility.yul\":3438:3447   */\n      slt\n        /* \"#utility.yul\":3434:3435   */\n      0x00\n        /* \"#utility.yul\":3431:3432   */\n      dup5\n        /* \"#utility.yul\":3427:3436   */\n      sgt\n        /* \"#utility.yul\":3423:3448   */\n      and\n        /* \"#utility.yul\":3419:3534   */\n      and\n        /* \"#utility.yul\":3416:3557   */\n      iszero\n      tag_88\n      jumpi\n        /* \"#utility.yul\":3537:3555   */\n      tag_89\n      tag_87\n      jump\t// in\n    tag_89:\n        /* \"#utility.yul\":3416:3557   */\n    tag_88:\n        /* \"#utility.yul\":3741:3742   */\n      dup3\n        /* \"#utility.yul\":3673:3739   */\n      0x8000000000000000000000000000000000000000000000000000000000000000\n        /* \"#utility.yul\":3668:3743   */\n      sdiv\n        /* \"#utility.yul\":3665:3666   */\n      dup3\n        /* \"#utility.yul\":3661:3744   */\n      slt\n        /* \"#utility.yul\":3656:3657   */\n      0x00\n        /* \"#utility.yul\":3653:3654   */\n      dup5\n        /* \"#utility.yul\":3649:3658   */\n      sgt\n        /* \"#utility.yul\":3645:3646   */\n      0x00\n        /* \"#utility.yul\":3642:3643   */\n      dup5\n        /* \"#utility.yul\":3638:3647   */\n      slt\n        /* \"#utility.yul\":3634:3659   */\n      and\n        /* \"#utility.yul\":3630:3745   */\n      and\n        /* \"#utility.yul\":3627:3768   */\n      iszero\n      tag_90\n      jumpi\n        /* \"#utility.yul\":3748:3766   */\n      tag_91\n      tag_87\n      jump\t// in\n    tag_91:\n        /* \"#utility.yul\":3627:3768   */\n    tag_90:\n        /* \"#utility.yul\":3951:3952   */\n      dup3\n        /* \"#utility.yul\":3883:3949   */\n      0x7fffffffffffffffffffffffffffffffffffffffffffffffffffffffffffffff\n        /* \"#utility.yul\":3878:3953   */\n      sdiv\n        /* \"#utility.yul\":3875:3876   */\n      dup3\n        /* \"#utility.yul\":3871:3954   */\n      slt\n        /* \"#utility.yul\":3866:3867   */\n      0x00\n        /* \"#utility.yul\":3863:3864   */\n      dup5\n        /* \"#utility.yul\":3859:3868   */\n      slt\n        /* \"#utility.yul\":3855:3856   */\n      0x00\n        /* \"#utility.yul\":3852:3853   */\n      dup5\n        /* \"#utility.yul\":3848:3857   */\n      slt\n        /* \"#utility.yul\":3844:3869   */\n      and\n        /* \"#utility.yul\":3840:3955   */\n      and\n        /* \"#utility.yul\":3837:3978   */\n      iszero\n      tag_92\n      jumpi\n        /* \"#utility.yul\":3958:3976   */\n      tag_93\n      tag_87\n      jump\t// in\n    tag_93:\n        /* \"#utility.yul\":3837:3978   */\n    tag_92:\n        /* \"#utility.yul\":4006:4007   */\n      dup3\n        /* \"#utility.yul\":4003:4004   */\n      dup3\n        /* \"#utility.yul\":3999:4008   */\n      mul\n        /* \"#utility.yul\":3988:4008   */\n      swap1\n      pop\n        /* \"#utility.yul\":3023:4014   */\n      swap3\n      swap2\n      pop\n      pop\n      jump\t// out\n        /* \"#utility.yul\":4020:4368   */\n    tag_25:\n        /* \"#utility.yul\":4060:4067   */\n      0x00\n        /* \"#utility.yul\":4083:4103   */\n      tag_95\n        /* \"#utility.yul\":4101:4102   */\n      dup3\n        /* \"#utility.yul\":4083:4103   */\n      tag_67\n      jump\t// in\n    tag_95:\n        /* \"#utility.yul\":4078:4103   */\n      swap2\n      pop\n        /* \"#utility.yul\":4117:4137   */\n      tag_96\n        /* \"#utility.yul\":4135:4136   */\n      dup4\n        /* \"#utility.yul\":4117:4137   */\n      tag_67\n      jump\t// in\n    tag_96:\n        /* \"#utility.yul\":4112:4137   */\n      swap3\n      pop\n        /* \"#utility.yul\":4305:4306   */\n      dup2\n        /* \"#utility.yul\":4237:4303   */\n      0xffffffffffffffffffffffffffffffffffffffffffffffffffffffffffffffff\n        /* \"#utility.yul\":4233:4307   */\n      div\n        /* \"#utility.yul\":4230:4231   */\n      dup4\n        /* \"#utility.yul\":4227:4308   */\n      gt\n        /* \"#utility.yul\":4222:4223   */\n      dup3\n        /* \"#utility.yul\":4215:4224   */\n      iszero\n        /* \"#utility.yul\":4208:4225   */\n      iszero\n        /* \"#utility.yul\":4204:4309   */\n      and\n        /* \"#utility.yul\":4201:4332   */\n      iszero\n      tag_97\n      jumpi\n        /* \"#utility.yul\":4312:4330   */\n      tag_98\n      tag_87\n      jump\t// in\n    tag_98:\n        /* \"#utility.yul\":4201:4332   */\n    tag_97:\n        /* \"#utility.yul\":4360:4361   */\n      dup3\n        /* \"#utility.yul\":4357:4358   */\n      dup3\n        /* \"#utility.yul\":4353:4362   */\n      mul\n        /* \"#utility.yul\":4342:4362   */\n      swap1\n      pop\n        /* \"#utility.yul\":4020:4368   */\n      swap3\n      swap2\n      pop\n      pop\n      jump\t// out\n        /* \"#utility.yul\":4374:4450   */\n    tag_83:\n        /* \"#utility.yul\":4410:4417   */\n      0x00\n        /* \"#utility.yul\":4439:4444   */\n      dup2\n        /* \"#utility.yul\":4428:4444   */\n      swap1\n      pop\n        /* \"#utility.yul\":4374:4450   */\n      swap2\n      swap1\n      pop\n      jump\t// out\n        /* \"#utility.yul\":4456:4533   */\n    tag_67:\n        /* \"#utility.yul\":4493:4500   */\n      0x00\n        /* \"#utility.yul\":4522:4527   */\n      dup2\n        /* \"#utility.yul\":4511:4527   */\n      swap1\n      pop\n        /* \"#utility.yul\":4456:4533   */\n      swap2\n      swap1\n      pop\n      jump\t// out\n        /* \"#utility.yul\":4539:4644   */\n    tag_101:\n        /* \"#utility.yul\":4575:4582   */\n      0x00\n        /* \"#utility.yul\":4615:4637   */\n      0xffffffffffffffffffff\n        /* \"#utility.yul\":4608:4613   */\n      dup3\n        /* \"#utility.yul\":4604:4638   */\n      and\n        /* \"#utility.yul\":4593:4638   */\n      swap1\n      pop\n        /* \"#utility.yul\":4539:4644   */\n      swap2\n      swap1\n      pop\n      jump\t// out\n        /* \"#utility.yul\":4650:4830   */\n    tag_87:\n        /* \"#utility.yul\":4698:4775   */\n      0x4e487b7100000000000000000000000000000000000000000000000000000000\n        /* \"#utility.yul\":4695:4696   */\n      0x00\n        /* \"#utility.yul\":4688:4776   */\n      mstore\n        /* \"#utility.yul\":4795:4799   */\n      0x11\n        /* \"#utility.yul\":4792:4793   */\n      0x04\n        /* \"#utility.yul\":4785:4800   */\n      mstore\n        /* \"#utility.yul\":4819:4823   */\n      0x24\n        /* \"#utility.yul\":4816:4817   */\n      0x00\n        /* \"#utility.yul\":4809:4824   */\n      revert\n        /* \"#utility.yul\":4836:5016   */\n    tag_80:\n        /* \"#utility.yul\":4884:4961   */\n      0x4e487b7100000000000000000000000000000000000000000000000000000000\n        /* \"#utility.yul\":4881:4882   */\n      0x00\n        /* \"#utility.yul\":4874:4962   */\n      mstore\n        /* \"#utility.yul\":4981:4985   */\n      0x12\n        /* \"#utility.yul\":4978:4979   */\n      0x04\n        /* \"#utility.yul\":4971:4986   */\n      mstore\n        /* \"#utility.yul\":5005:5009   */\n      0x24\n        /* \"#utility.yul\":5002:5003   */\n      0x00\n        /* \"#utility.yul\":4995:5010   */\n      revert\n        /* \"#utility.yul\":5145:5262   */\n    tag_52:\n        /* \"#utility.yul\":5254:5255   */\n      0x00\n        /* \"#utility.yul\":5251:5252   */\n      dup1\n        /* \"#utility.yul\":5244:5256   */\n      revert\n        /* \"#utility.yul\":5268:5437   */\n    tag_63:\n        /* \"#utility.yul\":5408:5429   */\n      0x4469646e27742073656e6420656e6f7567682100000000000000000000000000\n        /* \"#utility.yul\":5404:5405   */\n      0x00\n        /* \"#utility.yul\":5396:5402   */\n      dup3\n        /* \"#utility.yul\":5392:5406   */\n      add\n        /* \"#utility.yul\":5385:5430   */\n      mstore\n        /* \"#utility.yul\":5268:5437   */\n      pop\n      jump\t// out\n        /* \"#utility.yul\":5443:5563   */\n    tag_40:\n        /* \"#utility.yul\":5515:5538   */\n      tag_110\n        /* \"#utility.yul\":5532:5537   */\n      dup2\n        /* \"#utility.yul\":5515:5538   */\n      tag_83\n      jump\t// in\n    tag_110:\n        /* \"#utility.yul\":5508:5513   */\n      dup2\n        /* \"#utility.yul\":5505:5539   */\n      eq\n        /* \"#utility.yul\":5495:5557   */\n      tag_111\n      jumpi\n        /* \"#utility.yul\":5553:5554   */\n      0x00\n        /* \"#utility.yul\":5550:5551   */\n      dup1\n        /* \"#utility.yul\":5543:5555   */\n      revert\n        /* \"#utility.yul\":5495:5557   */\n    tag_111:\n        /* \"#utility.yul\":5443:5563   */\n      pop\n      jump\t// out\n        /* \"#utility.yul\":5569:5691   */\n    tag_44:\n        /* \"#utility.yul\":5642:5666   */\n      tag_113\n        /* \"#utility.yul\":5660:5665   */\n      dup2\n        /* \"#utility.yul\":5642:5666   */\n      tag_67\n      jump\t// in\n    tag_113:\n        /* \"#utility.yul\":5635:5640   */\n      dup2\n        /* \"#utility.yul\":5632:5667   */\n      eq\n        /* \"#utility.yul\":5622:5685   */\n      tag_114\n      jumpi\n        /* \"#utility.yul\":5681:5682   */\n      0x00\n        /* \"#utility.yul\":5678:5679   */\n      dup1\n        /* \"#utility.yul\":5671:5683   */\n      revert\n        /* \"#utility.yul\":5622:5685   */\n    tag_114:\n        /* \"#utility.yul\":5569:5691   */\n      pop\n      jump\t// out\n        /* \"#utility.yul\":5697:5817   */\n    tag_48:\n        /* \"#utility.yul\":5769:5792   */\n      tag_116\n        /* \"#utility.yul\":5786:5791   */\n      dup2\n        /* \"#utility.yul\":5769:5792   */\n      tag_101\n      jump\t// in\n    tag_116:\n        /* \"#utility.yul\":5762:5767   */\n      dup2\n        /* \"#utility.yul\":5759:5793   */\n      eq\n        /* \"#utility.yul\":5749:5811   */\n      tag_117\n      jumpi\n        /* \"#utility.yul\":5807:5808   */\n      0x00\n        /* \"#utility.yul\":5804:5805   */\n      dup1\n        /* \"#utility.yul\":5797:5809   */\n      revert\n        /* \"#utility.yul\":5749:5811   */\n    tag_117:\n        /* \"#utility.yul\":5697:5817   */\n      pop\n      jump\t// out\n\n    auxdata: 0xa264697066735822122020f4a042c3db15f0b3f3ccb48e9a74b0e1bd5a7fad93a97be01e109b7a384cf964736f6c63430008070033\n}\n",
				"bytecode": {
					"linkReferences": {},
					"object": "6080604052678ac7230489e8000060005534801561001c57600080fd5b506105cc8061002c6000396000f3fe6080604052600436106100345760003560e01c80633430a88c146100395780633ccfd60b14610064578063b60d42881461006e575b600080fd5b34801561004557600080fd5b5061004e610078565b60405161005b91906102cd565b60405180910390f35b61006c61007e565b005b610076610080565b005b60005481565b565b60005461008c346100cf565b10156100cd576040517f08c379a00000000000000000000000000000000000000000000000000000000081526004016100c4906102ad565b60405180910390fd5b565b6000806100da610109565b90506000670de0b6b3a764000082856100f39190610441565b6100fd91906102f9565b90508092505050919050565b60008073d4a33860578de61dbabdc8bfdb98fd742fa7028e905060008173ffffffffffffffffffffffffffffffffffffffff1663feaf968c6040518163ffffffff1660e01b815260040160a06040518083038186803b15801561016b57600080fd5b505afa15801561017f573d6000803e3d6000fd5b505050506040513d601f19601f820116820180604052508101906101a39190610200565b5050509150506402540be400816101ba919061032a565b9250505090565b6000815190506101d081610551565b92915050565b6000815190506101e581610568565b92915050565b6000815190506101fa8161057f565b92915050565b600080600080600060a0868803121561021c5761021b610523565b5b600061022a888289016101eb565b955050602061023b888289016101c1565b945050604061024c888289016101d6565b935050606061025d888289016101d6565b925050608061026e888289016101eb565b9150509295509295909350565b60006102886013836102e8565b915061029382610528565b602082019050919050565b6102a7816104a5565b82525050565b600060208201905081810360008301526102c68161027b565b9050919050565b60006020820190506102e2600083018461029e565b92915050565b600082825260208201905092915050565b6000610304826104a5565b915061030f836104a5565b92508261031f5761031e6104f4565b5b828204905092915050565b60006103358261049b565b91506103408361049b565b9250827f7fffffffffffffffffffffffffffffffffffffffffffffffffffffffffffffff048211600084136000841316161561037f5761037e6104c5565b5b817f800000000000000000000000000000000000000000000000000000000000000005831260008412600084131616156103bc576103bb6104c5565b5b827f800000000000000000000000000000000000000000000000000000000000000005821260008413600084121616156103f9576103f86104c5565b5b827f7fffffffffffffffffffffffffffffffffffffffffffffffffffffffffffffff0582126000841260008412161615610436576104356104c5565b5b828202905092915050565b600061044c826104a5565b9150610457836104a5565b9250817fffffffffffffffffffffffffffffffffffffffffffffffffffffffffffffffff04831182151516156104905761048f6104c5565b5b828202905092915050565b6000819050919050565b6000819050919050565b600069ffffffffffffffffffff82169050919050565b7f4e487b7100000000000000000000000000000000000000000000000000000000600052601160045260246000fd5b7f4e487b7100000000000000000000000000000000000000000000000000000000600052601260045260246000fd5b600080fd5b7f4469646e27742073656e6420656e6f7567682100000000000000000000000000600082015250565b61055a8161049b565b811461056557600080fd5b50565b610571816104a5565b811461057c57600080fd5b50565b610588816104af565b811461059357600080fd5b5056fea264697066735822122020f4a042c3db15f0b3f3ccb48e9a74b0e1bd5a7fad93a97be01e109b7a384cf964736f6c63430008070033",
					"opcodes": "PUSH1 0x80 PUSH1 0x40 MSTORE PUSH8 0x8AC7230489E80000 PUSH1 0x0 SSTORE CALLVALUE DUP1 ISZERO PUSH2 0x1C JUMPI PUSH1 0x0 DUP1 REVERT JUMPDEST POP PUSH2 0x5CC DUP1 PUSH2 0x2C PUSH1 0x0 CODECOPY PUSH1 0x0 RETURN INVALID PUSH1 0x80 PUSH1 0x40 MSTORE PUSH1 0x4 CALLDATASIZE LT PUSH2 0x34 JUMPI PUSH1 0x0 CALLDATALOAD PUSH1 0xE0 SHR DUP1 PUSH4 0x3430A88C EQ PUSH2 0x39 JUMPI DUP1 PUSH4 0x3CCFD60B EQ PUSH2 0x64 JUMPI DUP1 PUSH4 0xB60D4288 EQ PUSH2 0x6E JUMPI JUMPDEST PUSH1 0x0 DUP1 REVERT JUMPDEST CALLVALUE DUP1 ISZERO PUSH2 0x45 JUMPI PUSH1 0x0 DUP1 REVERT JUMPDEST POP PUSH2 0x4E PUSH2 0x78 JUMP JUMPDEST PUSH1 0x40 MLOAD PUSH2 0x5B SWAP2 SWAP1 PUSH2 0x2CD JUMP JUMPDEST PUSH1 0x40 MLOAD DUP1 SWAP2 SUB SWAP1 RETURN JUMPDEST PUSH2 0x6C PUSH2 0x7E JUMP JUMPDEST STOP JUMPDEST PUSH2 0x76 PUSH2 0x80 JUMP JUMPDEST STOP JUMPDEST PUSH1 0x0 SLOAD DUP2 JUMP JUMPDEST JUMP JUMPDEST PUSH1 0x0 SLOAD PUSH2 0x8C CALLVALUE PUSH2 0xCF JUMP JUMPDEST LT ISZERO PUSH2 0xCD JUMPI PUSH1 0x40 MLOAD PUSH32 0x8C379A000000000000000000000000000000000000000000000000000000000 DUP2 MSTORE PUSH1 0x4 ADD PUSH2 0xC4 SWAP1 PUSH2 0x2AD JUMP JUMPDEST PUSH1 0x40 MLOAD DUP1 SWAP2 SUB SWAP1 REVERT JUMPDEST JUMP JUMPDEST PUSH1 0x0 DUP1 PUSH2 0xDA PUSH2 0x109 JUMP JUMPDEST SWAP1 POP PUSH1 0x0 PUSH8 0xDE0B6B3A7640000 DUP3 DUP6 PUSH2 0xF3 SWAP2 SWAP1 PUSH2 0x441 JUMP JUMPDEST PUSH2 0xFD SWAP2 SWAP1 PUSH2 0x2F9 JUMP JUMPDEST SWAP1 POP DUP1 SWAP3 POP POP POP SWAP2 SWAP1 POP JUMP JUMPDEST PUSH1 0x0 DUP1 PUSH20 0xD4A33860578DE61DBABDC8BFDB98FD742FA7028E SWAP1 POP PUSH1 0x0 DUP2 PUSH20 0xFFFFFFFFFFFFFFFFFFFFFFFFFFFFFFFFFFFFFFFF AND PUSH4 0xFEAF968C PUSH1 0x40 MLOAD DUP2 PUSH4 0xFFFFFFFF AND PUSH1 0xE0 SHL DUP2 MSTORE PUSH1 0x4 ADD PUSH1 0xA0 PUSH1 0x40 MLOAD DUP1 DUP4 SUB DUP2 DUP7 DUP1 EXTCODESIZE ISZERO DUP1 ISZERO PUSH2 0x16B JUMPI PUSH1 0x0 DUP1 REVERT JUMPDEST POP GAS STATICCALL ISZERO DUP1 ISZERO PUSH2 0x17F JUMPI RETURNDATASIZE PUSH1 0x0 DUP1 RETURNDATACOPY RETURNDATASIZE PUSH1 0x0 REVERT JUMPDEST POP POP POP POP PUSH1 0x40 MLOAD RETURNDATASIZE PUSH1 0x1F NOT PUSH1 0x1F DUP3 ADD AND DUP3 ADD DUP1 PUSH1 0x40 MSTORE POP DUP2 ADD SWAP1 PUSH2 0x1A3 SWAP2 SWAP1 PUSH2 0x200 JUMP JUMPDEST POP POP POP SWAP2 POP POP PUSH5 0x2540BE400 DUP2 PUSH2 0x1BA SWAP2 SWAP1 PUSH2 0x32A JUMP JUMPDEST SWAP3 POP POP POP SWAP1 JUMP JUMPDEST PUSH1 0x0 DUP2 MLOAD SWAP1 POP PUSH2 0x1D0 DUP2 PUSH2 0x551 JUMP JUMPDEST SWAP3 SWAP2 POP POP JUMP JUMPDEST PUSH1 0x0 DUP2 MLOAD SWAP1 POP PUSH2 0x1E5 DUP2 PUSH2 0x568 JUMP JUMPDEST SWAP3 SWAP2 POP POP JUMP JUMPDEST PUSH1 0x0 DUP2 MLOAD SWAP1 POP PUSH2 0x1FA DUP2 PUSH2 0x57F JUMP JUMPDEST SWAP3 SWAP2 POP POP JUMP JUMPDEST PUSH1 0x0 DUP1 PUSH1 0x0 DUP1 PUSH1 0x0 PUSH1 0xA0 DUP7 DUP9 SUB SLT ISZERO PUSH2 0x21C JUMPI PUSH2 0x21B PUSH2 0x523 JUMP JUMPDEST JUMPDEST PUSH1 0x0 PUSH2 0x22A DUP9 DUP3 DUP10 ADD PUSH2 0x1EB JUMP JUMPDEST SWAP6 POP POP PUSH1 0x20 PUSH2 0x23B DUP9 DUP3 DUP10 ADD PUSH2 0x1C1 JUMP JUMPDEST SWAP5 POP POP PUSH1 0x40 PUSH2 0x24C DUP9 DUP3 DUP10 ADD PUSH2 0x1D6 JUMP JUMPDEST SWAP4 POP POP PUSH1 0x60 PUSH2 0x25D DUP9 DUP3 DUP10 ADD PUSH2 0x1D6 JUMP JUMPDEST SWAP3 POP POP PUSH1 0x80 PUSH2 0x26E DUP9 DUP3 DUP10 ADD PUSH2 0x1EB JUMP JUMPDEST SWAP2 POP POP SWAP3 SWAP6 POP SWAP3 SWAP6 SWAP1 SWAP4 POP JUMP JUMPDEST PUSH1 0x0 PUSH2 0x288 PUSH1 0x13 DUP4 PUSH2 0x2E8 JUMP JUMPDEST SWAP2 POP PUSH2 0x293 DUP3 PUSH2 0x528 JUMP JUMPDEST PUSH1 0x20 DUP3 ADD SWAP1 POP SWAP2 SWAP1 POP JUMP JUMPDEST PUSH2 0x2A7 DUP2 PUSH2 0x4A5 JUMP JUMPDEST DUP3 MSTORE POP POP JUMP JUMPDEST PUSH1 0x0 PUSH1 0x20 DUP3 ADD SWAP1 POP DUP2 DUP2 SUB PUSH1 0x0 DUP4 ADD MSTORE PUSH2 0x2C6 DUP2 PUSH2 0x27B JUMP JUMPDEST SWAP1 POP SWAP2 SWAP1 POP JUMP JUMPDEST PUSH1 0x0 PUSH1 0x20 DUP3 ADD SWAP1 POP PUSH2 0x2E2 PUSH1 0x0 DUP4 ADD DUP5 PUSH2 0x29E JUMP JUMPDEST SWAP3 SWAP2 POP POP JUMP JUMPDEST PUSH1 0x0 DUP3 DUP3 MSTORE PUSH1 0x20 DUP3 ADD SWAP1 POP SWAP3 SWAP2 POP POP JUMP JUMPDEST PUSH1 0x0 PUSH2 0x304 DUP3 PUSH2 0x4A5 JUMP JUMPDEST SWAP2 POP PUSH2 0x30F DUP4 PUSH2 0x4A5 JUMP JUMPDEST SWAP3 POP DUP3 PUSH2 0x31F JUMPI PUSH2 0x31E PUSH2 0x4F4 JUMP JUMPDEST JUMPDEST DUP3 DUP3 DIV SWAP1 POP SWAP3 SWAP2 POP POP JUMP JUMPDEST PUSH1 0x0 PUSH2 0x335 DUP3 PUSH2 0x49B JUMP JUMPDEST SWAP2 POP PUSH2 0x340 DUP4 PUSH2 0x49B JUMP JUMPDEST SWAP3 POP DUP3 PUSH32 0x7FFFFFFFFFFFFFFFFFFFFFFFFFFFFFFFFFFFFFFFFFFFFFFFFFFFFFFFFFFFFFFF DIV DUP3 GT PUSH1 0x0 DUP5 SGT PUSH1 0x0 DUP5 SGT AND AND ISZERO PUSH2 0x37F JUMPI PUSH2 0x37E PUSH2 0x4C5 JUMP JUMPDEST JUMPDEST DUP2 PUSH32 0x8000000000000000000000000000000000000000000000000000000000000000 SDIV DUP4 SLT PUSH1 0x0 DUP5 SLT PUSH1 0x0 DUP5 SGT AND AND ISZERO PUSH2 0x3BC JUMPI PUSH2 0x3BB PUSH2 0x4C5 JUMP JUMPDEST JUMPDEST DUP3 PUSH32 0x8000000000000000000000000000000000000000000000000000000000000000 SDIV DUP3 SLT PUSH1 0x0 DUP5 SGT PUSH1 0x0 DUP5 SLT AND AND ISZERO PUSH2 0x3F9 JUMPI PUSH2 0x3F8 PUSH2 0x4C5 JUMP JUMPDEST JUMPDEST DUP3 PUSH32 0x7FFFFFFFFFFFFFFFFFFFFFFFFFFFFFFFFFFFFFFFFFFFFFFFFFFFFFFFFFFFFFFF SDIV DUP3 SLT PUSH1 0x0 DUP5 SLT PUSH1 0x0 DUP5 SLT AND AND ISZERO PUSH2 0x436 JUMPI PUSH2 0x435 PUSH2 0x4C5 JUMP JUMPDEST JUMPDEST DUP3 DUP3 MUL SWAP1 POP SWAP3 SWAP2 POP POP JUMP JUMPDEST PUSH1 0x0 PUSH2 0x44C DUP3 PUSH2 0x4A5 JUMP JUMPDEST SWAP2 POP PUSH2 0x457 DUP4 PUSH2 0x4A5 JUMP JUMPDEST SWAP3 POP DUP2 PUSH32 0xFFFFFFFFFFFFFFFFFFFFFFFFFFFFFFFFFFFFFFFFFFFFFFFFFFFFFFFFFFFFFFFF DIV DUP4 GT DUP3 ISZERO ISZERO AND ISZERO PUSH2 0x490 JUMPI PUSH2 0x48F PUSH2 0x4C5 JUMP JUMPDEST JUMPDEST DUP3 DUP3 MUL SWAP1 POP SWAP3 SWAP2 POP POP JUMP JUMPDEST PUSH1 0x0 DUP2 SWAP1 POP SWAP2 SWAP1 POP JUMP JUMPDEST PUSH1 0x0 DUP2 SWAP1 POP SWAP2 SWAP1 POP JUMP JUMPDEST PUSH1 0x0 PUSH10 0xFFFFFFFFFFFFFFFFFFFF DUP3 AND SWAP1 POP SWAP2 SWAP1 POP JUMP JUMPDEST PUSH32 0x4E487B7100000000000000000000000000000000000000000000000000000000 PUSH1 0x0 MSTORE PUSH1 0x11 PUSH1 0x4 MSTORE PUSH1 0x24 PUSH1 0x0 REVERT JUMPDEST PUSH32 0x4E487B7100000000000000000000000000000000000000000000000000000000 PUSH1 0x0 MSTORE PUSH1 0x12 PUSH1 0x4 MSTORE PUSH1 0x24 PUSH1 0x0 REVERT JUMPDEST PUSH1 0x0 DUP1 REVERT JUMPDEST PUSH32 0x4469646E27742073656E6420656E6F7567682100000000000000000000000000 PUSH1 0x0 DUP3 ADD MSTORE POP JUMP JUMPDEST PUSH2 0x55A DUP2 PUSH2 0x49B JUMP JUMPDEST DUP2 EQ PUSH2 0x565 JUMPI PUSH1 0x0 DUP1 REVERT JUMPDEST POP JUMP JUMPDEST PUSH2 0x571 DUP2 PUSH2 0x4A5 JUMP JUMPDEST DUP2 EQ PUSH2 0x57C JUMPI PUSH1 0x0 DUP1 REVERT JUMPDEST POP JUMP JUMPDEST PUSH2 0x588 DUP2 PUSH2 0x4AF JUMP JUMPDEST DUP2 EQ PUSH2 0x593 JUMPI PUSH1 0x0 DUP1 REVERT JUMPDEST POP JUMP INVALID LOG2 PUSH5 0x6970667358 0x22 SLT KECCAK256 KECCAK256 DELEGATECALL LOG0 TIMESTAMP 0xC3 0xDB ISZERO CREATE 0xB3 RETURN 0xCC 0xB4 DUP15 SWAP11 PUSH21 0xB0E1BD5A7FAD93A97BE01E109B7A384CF964736F6C PUSH4 0x43000807 STOP CALLER "
				},
				"gasEstimates": {
					"creation": {
						"codeDepositCost": "296800",
						"executionCost": "22443",
						"totalCost": "319243"
					},
					"external": {
						"fund()": "infinite",
						"minimumUSD()": "2407",
						"withdraw()": "120"
					}
				},
				"methodIdentifiers": {
					"fund()": "b60d4288",
					"minimumUSD()": "3430a88c",
					"withdraw()": "3ccfd60b"
				}
			},
			"storageLayout": {
				"storage": [
					{
						"astId": 56,
						"contract": "contracts/NewFundMe.sol:NewFundMe",
						"label": "minimumUSD",
						"offset": 0,
						"slot": "0",
						"type": "t_uint256"
					}
				],
				"types": {
					"t_uint256": {
						"encoding": "inplace",
						"label": "uint256",
						"numberOfBytes": "32"
					}
				}
			},
			"userdoc": {
				"kind": "user",
				"methods": {},
				"version": 1
			}
		}
	}
}